S02B00002E2F77656C6C2D6D6F6E69746F722D322D626F6F746C6F616465725F76616C6964617465642E7372B7
S3150801000000800120F52001087120010873200108EC
S3150801001075200108772001087920010800000000F1
S315080100200000000000000000000000007B2001081D
S315080100307D200108000000007F20010881200108B9
S3150801004045210108452101084521010845210108E5
S3150801005045210108452101084521010845210108D5
S3150801006045210108452101084521010845210108C5
S3150801007045210108452101084521010845210108B5
S315080100804521010845210108452101080000000014
S3150801009000000000000000000000000045210108E2
S315080100A04521010845210108452101084521010885
S315080100B04521010845210108452101084521010875
S315080100C04521010845210108452101084521010865
S315080100D04521010845210108892001080000000081
S315080100E045210108452101084521010800000000B4
S315080100F00000000000000000000000004521010882
S315080101000000000045210108452101084521010893
S3150801011000000000000000000000000000000000D0
S315080101204521010845210108452101084521010804
S315080101304521010800000000000000000000000041
S315080101400000000000000000000000004521010831
S3150801015045210108452101084521010845210108D4
S3150801016045210108452101080000000000000000A2
S315080101700000000000000000000000000000000070
S3150801018000000000452101080000000000000000F1
S3150801019045210108000000000000000000000000E1
S315080101A010B5054C237833B9044B13B10448AFF3A2
S315080101B000800123237010BD90000020000000007C
S315080101C04052010808B5034B1BB103490348AFF375
S315080101D0008008BD0000000094000020405201087C
S315080101E010F8012B11F8013B012A28BF9A42F7D0D2
S315080101F0D01A7047034613F8012B002AFBD1181AA7
S3150801020001387047000000000000000000000000EF
S3150801021001F0FF01102A2BDB10F0070F08D010F8A8
S31508010220013B013A8B422DD010F0070F42B3F6D1AC
S31508010230F0B441EA012141EA014122F007047FF0C5
S3150801024000070023F0E80256083C85EA010586EA1C
S31508010250010685FA47F5A3FA87F586FA47F6A5FA58
S3150801026087F68EB9EED1F0BC01F0FF0102F0070264
S3150801027032B110F8013B013A83EA010313B1F8D10F
S315080102800020704701387047002D06BF35460338F0
S31508010290073815F0010F07D1013015F4807F02BF29
S315080102A0013015F4C03F0130F0BC0138704700BF7A
S315080102B053B94AB9002908BF00281CBF4FF0FF31BE
S315080102C04FF0FF3000F088B9ADF1080C6DE904CEA6
S315080102D000F006F8DDF804E0DDE9022304B0704712
S315080102E02DE9F047089D0F4604468C46002B48D158
S315080102F08A42164661D9B2FA82F34BB1C3F120029A
S3150801030001FA03FC20FA02F29E4042EA0C0C9C40D8
S315080103104FEA164EB7B2BCFBFEF1220C0EFB11CC0E
S3150801032042EA0C4201FB07F0904209D9B21801F1E1
S31508010330FF3C80F0EE80904240F2EB800239324475
S31508010340121AA4B2B2FBFEF00EFB102244EA0244D2
S3150801035000FB07F7A74209D9341900F1FF3280F0EB
S31508010360DA80A74240F2D7803444023840EA014095
S31508010370E41B00211DB1DC400023C5E90043BDE8AB
S31508010380F0878B4206D90DB1C5E90001002108465F
S31508010390BDE8F087B3FA83F1002948D1BB4202D3FD
S315080103A0824200F20781841A67EB03020120944610
S315080103B0002DE4D0C5E9004CE1E7002A00F092805F
S315080103C0B2FA82F3002B40F0A8808A1A4FEA164E39
S315080103D01FFA86FC0121200CB2FBFEF70EFB172241
S315080103E040EA02420CFB07F0904207D9B21807F11E
S315080103F0FF3802D2904200F2E2804746121AA4B2AE
S31508010400B2FBFEF00EFB102244EA02440CFB00FC90
S31508010410A44507D9341900F1FF3202D2A44500F2E6
S31508010420CB801046A4EB0C0440EA0740A2E7C1F1D1
S3150801043020068B4022FA06FC4CEA030C07FA01F463
S3150801044020FA06F3F7404FEA1C49234300FA01F85C
S315080104501FFA8CFEB7FBF9F01C0C09FB107744EA6E
S31508010460074400FB0EF7A74202FA01F20AD91CEB70
S31508010470040400F1FF3A80F09B80A74240F298807D
S3150801048002386444E41B9FB2B4FBF9F309FB134435
S3150801049047EA044403FB0EFEA64509D91CEB0404EE
S315080104A003F1FF3780F08280A6457FD9023B644479
S315080104B043EA0040A4EB0E04A0FB02E7BC427346E4
S315080104C0B94663D360D05DB1B8EB030264EB0904A6
S315080104D004FA06F622FA01F31E43CC40C5E9006484
S315080104E000214CE76208480842EAC1710B0C43EA4D
S315080104F000438AB242EA0342B3FBF6F1E407B44683
S315080105003746B6461F23B0FBF6F0D21B41EA004137
S3150801051061E7614614E7104628E7C3F1200120FA8E
S3150801052001F29E4027FA01F19F403A434FEA164EDF
S315080105301FFA86FCB1FBFEF70EFB1710110C41EAF8
S31508010540004107FB0CF8884504FA03F43AD97118F7
S3150801055007F1FF3001D288451FD8A1EB0801B1FB8D
S31508010560FEF808FB0CF70EFB181192B242EA01429B
S31508010570BA422FD2B21808F1FF31C6D2BA42C4D252
S31508010580A8F102013244C0E7F0459CD2BEEB020352
S3150801059067EB0C070138B94695E7A6EB080841440D
S315080105A0B81EB1FBFEF808FB0CF7DCE73B467FE714
S315080105B0504667E70846FBE63444023832E7023F0D
S315080105C032441BE7A1EB08013846B1FBFEF808FBEC
S315080105D00CF7C8E7414698E7704700BF2DE9F04F89
S315080105E0E1B09DF8A891002800F0B9808846174621
S315080105F01E460446FFF7FEFD85B2FA2D04D90124ED
S31508010600204661B0BDE8F08F0DF1800A2A462146E1
S31508010610504603F041FD6B1C9BB20D220AF80520DA
S315080106200235ADB20A220AF803204FF4807200217E
S315080106304D4803F0C1FC4D4B00221A804C4803F08B
S3150801064097F901F0CDFD00F1320401F0C9FDA04290
S3150801065007D2052301226946454803F01FF90028F8
S31508010660F3D0444A4449684603F046FCDFF810A132
S315080106704FF47A7314226946504603F0AAF820AC5F
S315080106804FF47A732A462146504603F0A2F83346B8
S315080106902A462146364803F09CF80446002860D1CC
S315080106A0B9F1000FACD0304DDFF8C4903346FF22C4
S315080106B02946484603F0F2F8B9F82E309BB2C3F141
S315080106C0FF039BB20022EA54DFF8A090A9F8003094
S315080106D0284A2A49684603F00FFC294E4FF47A73D3
S315080106E014226946304603F074F8B9F800204FF42D
S315080106F07A7392B22946304603F06BF8B8F1000FC7
S3150801070013D097B1B9F800309BB273B1B9F800307C
S315080107109BB27A1E934216DB95B22A461249404687
S3150801072003F0BAFC002308F8053016490E4803F011
S3150801073070FC00287FF464AF13490B4803F069FC89
S3150801074028B101245CE7094B1D88ADB2E5E7074BE3
S315080107501B889BB2002B7FF453AF022450E7012478
S315080107604EE701244CE700BFB0000020AC00002092
S3150801077058130020445901086452010870520108AF
S31508010780D01300207C52010804530108BFF34F8F90
S315080107900549CA6802F4E062044B1343CB60BFF310
S315080107A04F8F00BFFDE700BF00ED00E00400FA052A
S315080107B008290CD90023072B07D803F11802044985
S315080107C08A5C12B1C2540133F5E70022C25470475C
S315080107D0E05C01081A4B1A88002A2ED010B40CE0E6
S315080107E0184B19880022184842541A8001205DF8CE
S315080107F0044B7047124B1A88EAB1144C23881449E2
S31508010800C85C01335942C3F30B03C1F30B0158BF4B
S315080108104B422380013A0A4B1A800A28E0D00D2858
S31508010820E8D0084B1B887E2BE4D8591C054A118051
S31508010830054AD054DEE70020D9E70020704700BFFB
S3150801084050030020CC020020D002002052030020D1
S315080108505403002008B501224FF40051034802F061
S315080108609FF94FF4FA7001F0C1FC08BD000402407B
S3150801087008B500224FF40051034802F091F94FF4EC
S31508010880FA7001F0B3FC08BD0004024010B5094C2A
S3150801089000224FF48041204602F082F94FF4FA70A3
S315080108A001F0A4FC01224FF48041204602F078F9B8
S315080108B010BD00BF00040240F0B5ADB007462822BE
S315080108C0002122A803F078FB0025092D1CDC22ACA7
S315080108D03B46072221460F4802F0E0FF02AE00948C
S315080108E00D4B0E4A8021304603F0D0FA4FF47A7345
S315080108F082B231460A4802F06CFF0A49204603F0E3
S3150801090088FB20B90135E0E700202DB0F0BD0120B4
S31508010910FBE700BF581300208459010880520108DB
S31508010920D013002090520108F0B5C1B0074600B3B4
S31508010930034620AD104A8021284603F0A7FA04464B
S315080109403B460E4A0E49684603F0D6FA642382B23C
S3150801095069460C4802F03DFF4FF47A73A2B2294664
S31508010960094802F036FF642001F040FC72B6FFF731
S315080109700DFF064BDDE700BFA052010878590108B3
S31508010980B8520108D01300205813002098520108C4
S3150801099000B583B006226946134800F0D3FF9DF8D7
S315080109A000309DF8012043EA02239DF8022043EA1C
S315080109B002439DF8032043EA02630C4A934206D098
S315080109C000230B4A13800B4A137003B000BD9DF830
S315080109D004309DF8052043EA0223054A1380054B96
S315080109E001221A70F1E700BF00C000084C4C4557B8
S315080109F0BE020020BC02002010B5C2B0012300933C
S31508010A0040F6B8334FF4807202A92E48FFF7E6FD87
S31508010A1060B92D4902A803F0FCFA18B300F10902DE
S31508010A20417A22290CD100F10A0209E0274C132246
S31508010A302749204603F0DAFA0023E37437E0013246
S31508010A4013788BB1A3F13001C9B209290ED9A3F1E3
S31508010A506101C9B205290BD9413BDBB2052BEED899
S31508010A6000210DE002AAEBE7002109E0002107E0D9
S31508010A70002105E0122916D80132144843540131E0
S31508010A80137883B1A3F13000C0B20928F2D9A3F1D2
S31508010A906100C0B20528EDD9A3F14100C0B205280D
S31508010AA0E8D93A2BE6D0094B00225A5409B142B08B
S31508010AB010BD1C4613220649184603F097FA00236F
S31508010AC0E374F4E7C4520108E45201080000002067
S31508010AD0D0520108F8B505460E46044600E008342A
S31508010AE004F15803AA19934208D82746082205494A
S31508010AF0204603F051FA0028F1D100E000273846D4
S31508010B00F8BD00BF5459010838B504460D464FF4DF
S31508010B1000310E48FFF7DEFF78B18446002301E075
S31508010B20E2540133072B05D803F118021CF80220F9
S31508010B30002AF5D10022E25438BD013D2A4604496E
S31508010B40204603F053FA00236355F5E7000006082B
S31508010B50F052010838B50446FFF74CFB074D4FF430
S31508010B60FA6382B22146284602F033FE4FF4FA733D
S31508010B7002220349284602F02CFE38BD58130020EC
S31508010B80F852010808B5104B1A8802B908BD0F4971
S31508010B900F4B186800F0DEFE40B10D490A4A13886A
S31508010BA0086803440B6000231380EFE7094B1B78A1
S31508010BB02BB10948FFF7CEFF0848FFF7B5FE0848ED
S31508010BC0FFF7C8FFF8E700BFB0010020B401002015
S31508010BD0C4020020C1020020FC5201081C5301086E
S31508010BE00C5301082E4B1B682BB12E4B1A88002A71
S31508010BF054D010B50CE07047FFF7C4FF2A4B1A68AA
S31508010C00274B1B689A4228D2264B1A88002A3BD0C2
S31508010C10254B1968224B1B68994235D2234C2388E8
S31508010C20234810F803C001335842C3F30B03C0F33A
S31508010C300B0058BF43422380013A1A4B1A801D48BC
S31508010C400288531C9BB203801B4800F802C001317D
S31508010C50154A1160FF2BD1D9CEE7FFF793FF174B42
S31508010C601B7893B11648FFF775FF164A13880133A7
S31508010C70138000230A4A13600B4A1360124B1A6841
S31508010C80124B1B689A4204D210BD1148FFF762FF46
S31508010C90EBE7642001F0AAFAFFF778FD704700BF79
S31508010CA0B802002050030020B4020020520300209D
S31508010CB054030020B0010020B4010020C102002025
S31508010CC034530108C2020020C4020020C8020020D1
S31508010CD04453010810B582B004460822204903F09E
S31508010CE073F938B109221F49204603F06DF9E0B1BD
S31508010CF002B010BD01AB6A461B4904F1080003F0B6
S31508010D001DF90228F4D1194B1A88009B9A4206D17B
S31508010D10174B019A1A60174B00221A60E8E7164822
S31508010D20FFF718FF1548FFF7FFFD01AB6A460E49A5
S31508010D3004F1090003F002F90228D9D10B4B1A88EC
S31508010D40009B9A4206D10A4B019A1A60094B002266
S31508010D501A60CDE70A48FFF7FDFE0848FFF7E4FDEC
S31508010D60545301088453010860530108C202002044
S31508010D70B8020020B4020020FC5201086853010899
S31508010D800C530108254B1B78052B46D110B592B09B
S31508010D90234903F03EF9002832D0224802F0E8FD43
S31508010DA002AC214B214A4021204603F06FF801236A
S31508010DB000934FF4FA63002211462046FFF70EFC12
S31508010DC000BB012300934FF4FA6300221146184829
S31508010DD0FFF704FCC8B9012300934FF4FA63002214
S31508010DE011461448FFF7FAFB90B9012212490D483A
S31508010DF003F039F8114B1B786BB10722074B1A70B0
S31508010E0012B010BD0E48FFF78FFD0E48FFF78CFD97
S31508010E100D48FFF789FD0922F0E7704754130020B2
S31508010E209053010858130020000000209C53010824
S31508010E30C0530108F0530108C0020020BC0200207B
S31508010E40AC530108DC530108FC5301080C4B1B7811
S31508010E50082B00D0704710B504460A49FFF7C0F9B8
S31508010E6018B9074B0B221A7010BD07492046FFF720
S31508010E70B7F90028F8D1024B09221A70F4E700BF26
S31508010E80541300203C53010810540108274B1B78C2
S31508010E900C2B00D0704710B586B0044609222449A8
S31508010EA003F092F838B107222249204603F08CF85C
S31508010EB028B106B010BD1D4B0E221A70F9E70023A2
S31508010EC0019302AA029353609360D36001AB1A4956
S31508010ED0E01D03F033F80128EBDD019B002BE8D078
S31508010EE0B3F5003F15D8062000F0C6FCB8B1134883
S31508010EF0FFF730FE124B019A1A600023114A13605C
S31508010F00114A1380114B01221A70084B0D221A70CF
S31508010F10CFE70F48FFF71EFE0E48FFF705FD0C4801
S31508010F20FFF718FE0C48FFF7FFFC00BF541300201B
S31508010F3018540108245401082C540108785401084E
S31508010F40C8020020C4020020C2020020C1020020FB
S31508010F5034540108405401085C540108274B1B7896
S31508010F600F2B00D0704710B586B004460A222449D3
S31508010F7003F02AF838B108222249204603F024F85A
S31508010F8030B106B010BD642001F030F9FFF7FEFB61
S31508010F900023019302AA029353609360D36001ABC5
S31508010FA0194904F1080002F0C9FF0128E9DD019B8E
S31508010FB0002BE6D0B3F5003F14D8062000F05CFC00
S31508010FC0B0B11248FFF7C6FD114B019A1A6000230A
S31508010FD0104A1360104A1380104A1370074B1022E7
S31508010FE01A70CEE70E48FFF7B5FD0E48FFF79CFCD1
S31508010FF00B48FFF7AFFD0C48FFF796FC541300208A
S3150801100084540108905401082C540108C854010855
S31508011010C8020020C4020020C2020020C10200202A
S315080110209C540108AC5401085C54010810B582B0FF
S3150801103004464C238DF800308DF8013045238DF890
S31508011040023057238DF803308DF80400030A8DF812
S315080110500530FF238DF806308DF80730032000F0A0
S315080110600BFC08B902B010BD08226946044800F015
S3150801107023FC044B1C80044B01221A70F2E700BFC3
S3150801108000C00008BE020020BC020020114B1B78DC
S315080110900A2B00D0704710B582B0044607220E49C4
S315080110A002F092FF08B102B010BD01AA0B49E01D7A
S315080110B002F044FF0128F6D10198B0F5803FF2D23B
S315080110C080B2074B1880FFF7B1FF024B0B221A704B
S315080110D0E9E700BF54130020D8540108E054010879
S315080110E0BE02002008B5144B1B78052B0ED0082B21
S315080110F00FD00A2B10D0114A127882B9102B11D0B1
S315080111000C2B12D00F2B13D0012008BDFFF73AFE86
S31508011110FAE7FFF79BFEF7E7FFF7B8FFF4E7FFF7F4
S31508011120B5FEF1E7FFF71AFFEEE7FFF7AFFEEBE7CC
S31508011130FFF714FFE8E700BF54130020C10200209F
S3150801114008B5FFF74FFD0EE008220E490E4802F0DA
S315080111503BFF90B109220D490B4802F035FF60B1FA
S315080111600948FFF7BFFFFFF735FB48B1084B1B7866
S315080111700D2BE9D0102BF3D1E6E70348FFF7AAFDBB
S3150801118008BD00BF54530108D0020020845301084A
S3150801119054130020074B1B88B3F5805F09D2064A12
S315080111A012881A44C2F30B02044988540133014ACE
S315080111B01380704750030020520300205403002077
S315080111C070B5E2B04FF48072002122A802F0F4FE55
S315080111D00023934A1380934A1380934A1380934AB0
S315080111E01360934A1360934A1370934E02AC3246C6
S315080111F09249204602F080FE914D4FF47A732222DD
S315080112002146284602F0E5FA32468E49204602F082
S3150801121073FE4FF47A732E222146284602F0D9FA34
S31508011220FFF718FB32468849204602F065FE4FF45F
S315080112307A732D222146284602F0CBFAFFF718FBCE
S3150801124032468249204602F057FE4FF47A732B2222
S315080112502146284602F0BDFAFFF718FB7C4B1A68AF
S31508011260D36823F40053D360794B1A6802F1140347
S3150801127053E8003F23F40073143242E80031002991
S31508011280F2D1734B9A6922F400729A611A68D3688B
S3150801129043F40053D36002AC674A6E49204602F014
S315080112A02BFE4FF47A732B222146654802F091FAF8
S315080112B042F21070FFF700FB002800F0908001232E
S315080112C000934FF47A73002211466348FFF786F9B3
S315080112D0002840F08780012300934FF47A73002297
S315080112E011465E48FFF77AF900287ED1FFF750FBD1
S315080112F0012300934FF47A73002211465848FFF7E9
S315080113006DF9002874D1FFF777FB012300934FF499
S315080113107A73002211465348FFF760F900286AD10B
S31508011320012300934FF47A73002211464E48FFF7C2
S3150801133055F9002862D1012300934FF47A730022EC
S3150801134011464A48FFF74AF900285AD10123009362
S315080113504FF47A73002211464548FFF73FF90028F2
S3150801136052D10123009342F21073FF2222A9414868
S31508011370FFF734F900284AD12E4B05221A7002AC20
S315080113802D4A3D49204602F0B7FD4FF47A733122C2
S3150801139021462B4802F01DFA384922A802F039FEE7
S315080113A0B0B1012300934FF4FA6300221146344881
S315080113B0FFF714F970BB012300934FF4FA63002277
S315080113C011463048FFF70AF938BB1A4B06221A703C
S315080113D001222D491E4802F046FD62B070BD2B4818
S315080113E0FFF7A2FA2A48FFF79FFA2A48FFF79CFA5D
S315080113F02948FFF799FA2948FFF796FA2848FFF787
S3150801140093FA2848FFF790FA2748FFF78DFA2748F5
S31508011410FFF78AFA2648FFF787FA2648FFF784FA7C
S315080114205203002050030020CC020020B8020020FD
S31508011430B40200205413002094590108E454010809
S31508011440D0130020F0540108085501082055010859
S3150801145058130020345501086055010880550108C4
S31508011460B0550108D4550108045601083456010837
S315080114706C560108D4560108FC5601089053010818
S31508011480C0530108F0530108C0020020485501085D
S315080114906C5501089C550108C0550108E855010815
S315080114A0185601084C5601089C560108E4560108CD
S315080114B0DC530108FC5301080268074B9A4200D025
S315080114C0704710B5054C2078FFF764FE01222146C6
S315080114D0034802F0C8FC10BD00440040C0020020C9
S315080114E05813002030B5A5B04E4B1B78062B0BD0F0
S315080114F04C4B1B78073B072B00F28F80DFE803F084
S315080115001C8D378D518D8D6F04AC474A474920464E
S3150801151002F0F2FC4FF47A7323222146444802F082
S3150801152058F9444B1B781BB13E4B07221A70DFE76B
S315080115303C4B09221A70DBE704AC3B4A3E4920467C
S3150801154002F0DAFC4FF47A7329222146384802F070
S3150801155040F93A4B1B883A4A4021204602F096FC4C
S315080115602046FFF7F7FA2F4B08221A7057E004AC0A
S315080115702D4A3449204602F0BFFC4FF47A732A22D9
S3150801158021462B4802F025F92F4B304A40212046A7
S3150801159002F07CFC2046FFF7DDFA224B0A221A707C
S315080115A03DE004AC204A2A49204602F0A5FC4FF446
S315080115B07A73292221461E4802F00BF91021684642
S315080115C0FFF7F6F86B46234A4021204602F05EFCF7
S315080115D02046FFF7BFFA134B0C221A701FE004AC22
S315080115E0114A1D49204602F087FC4FF47A732A22D4
S315080115F021460F4802F0EDF810216846FFF784FAF4
S315080116006B46164A4021204602F040FC2046FFF769
S31508011610A1FA044B0F221A7001E0FFF791FD25B0DC
S3150801162030BD00BF541300205C590108E454010879
S31508011630D0130020BC02002018570108BE02002062
S315080116402C57010838570108000000204C5701089B
S31508011650585701086C570108785701088C57010833
S31508011660BFF34F8F0549CA6802F4E062044B13437E
S31508011670CB60BFF34F8F00BFFDE700BF00ED00E071
S315080116800400FA0590F8243090F8252043EA02234D
S3150801169090F8262043EA024390F8270043EA0060BF
S315080116A0704708B50268436872B682F30888984796
S315080116B008BD000008B508220349283002F06CFC71
S315080116C0B0FA80F0400908BDC059010810B50446B2
S315080116D00822084902F060FC38B908220649A01810
S315080116E002F05AFC18B1002000E0002010BD0120CC
S315080116F0FCE700BFD0590108C8590108F8B50546E5
S315080117000E46044600E0083404F15803AA19934228
S3150801171006D827462046FFF7D9FF0028F3D000E070
S3150801172000273846F8BD000010B5044608220949C5
S31508011730283002F031FC40B90822074904F130008B
S3150801174002F02AFC18B1002000E0002010BD01209B
S31508011750FCE700BFB8590108B0590108F0B5A5B0B2
S3150801176006461546A1F13007684600F02DFB3A46B4
S315080117703146684600F052FB08220C49684600F0DB
S315080117804DFB08220A49684600F048FB1CAE314663
S31508011790684600F063FB20222946304602F0FCFB2E
S315080117A0B0FA80F0400925B0F0BD00BFC059010864
S315080117B0B059010830B589B014466A46203900F097
S315080117C0C0FB20222146684602F0E6FBB0FA80F00B
S315080117D0400909B030BD000038B54FF40031224840
S315080117E0FFF78CFF60B10546FFF74CFF0446572803
S315080117F006D9B0F5003F03D81C4B0344AB4213D0BE
S315080118004FF400311A48FFF779FF054658B1FFF73B
S3150801181039FF0446572806D9B0F5003F03D8154BBA
S315080118200344AB420FD038BD2846FFF743FF0028D3
S31508011830E6D005F1380221460B48FFF78FFF00284D
S31508011840DED0FFF70DFF2846FFF76EFF0028EAD026
S3150801185005F1380221460648FFF7ACFF0028E2D019
S315080118600348FFF71EFFDEE700000408A8FF030888
S3150801187000000608A8FF050810B586B000230093E6
S31508011880072802D9002006B010BD044600F0B8FEAC
S3150801189000230193022305930394012304936946C4
S315080118A001A800F0DBFF18B900F0C2FE0120EAE743
S315080118B000F0BEFE0020E6E72DE9F04782B010F001
S315080118C0030703D0002002B0BDE8F08704460E46A0
S315080118D090464FEA920902F0030A00F091FE3D464E
S315080118E04D450ED256F8252000232146022000F048
S315080118F0D9FE10B904340135F2E700F099FE00204B
S31508011900E1E7BAF1000F15D00023019328F0030887
S315080119102368019305E006EB0803DA5D01ABDA55A6
S3150801192001375745F7D3019A00232146022000F0D3
S31508011930B9FE18B900F07CFE0120C4E700F078FE74
S315080119400020C0E708B50B460146184602F0A4FB7D
S31508011950012008BD08B5034610F0030F0CD100F1AC
S31508011960006000F580201344B3F5003F01D900203B
S3150801197003E0FFF7A1FF00E0002008BD2DE9F043D1
S315080119808BB005AD00240594069407940894099430
S315080119900094434B1A6B42F004021A631A6B02F065
S315080119A004020092009A01941A6B42F080021A63AB
S315080119B01A6B02F080020192019A02941A6B42F0A4
S315080119C001021A631A6B02F001020292029A039447
S315080119D01A6B42F002021A631A6B02F002020392B0
S315080119E0039A04941A6B42F008021A631B6B03F0FC
S315080119F008030493049B2B4F22464FF400513846A3
S31508011A0001F0CEF801224FF48041384601F0C8F8BA
S31508011A10DFF89C8022464FF48051404601F0C0F819
S31508011A2042F6FF7305930326069607942946404610
S31508011A3000F074FF48F2F0130593069607942946B9
S31508011A40194800F06BFF49F2FF7305930696079450
S31508011A502946384600F062FF4FF4C04305934FF01C
S31508011A600109CDF81890079408942946384600F0DC
S31508011A7055FF4FF480530593CDF8189007940894B1
S31508011A802946404600F04AFF042305930696079423
S31508011A902946064800F042FF0BB0BDE8F08300BFB7
S31508011AA0003802400004024000000240000C0240D7
S31508011AB00008024072B6FEE708B50A480A4B0360F9
S31508011AC04FF4E133436000238360C36003610C2252
S31508011AD042618361C36102F01FF900B908BDFFF7CE
S31508011AE0E9FF00BF581300200044004008B50A4822
S31508011AF00A4B03604FF4E133436000238360C360FC
S31508011B0003610C2242618361C36102F005F900B9E0
S31508011B1008BDFFF7CFFF00BFD0130020001001401A
S31508011B2010B594B008AC30220021204602F044FAE0
S31508011B300023039304930593069307930193204A7D
S31508011B40116C41F080511164126C02F080520192BD
S31508011B50019A02931B4A136823F4404343F4004352
S31508011B601360136803F440430293029B012308930D
S31508011B704FF48033099302230E934FF480020F9298
S31508011B800C22109248221192129304231393204691
S31508011B9001F022F878B90F23039302210491002357
S31508011BA005934FF480520692079303A801F0E6FACB
S31508011BB018B914B010BDFFF77DFFFFF77BFF00BF13
S31508011BC0003802400070004070B5A0B000F0E2FA9B
S31508011BD062B6FFF7A5FFFFF7D1FEFFF76DFFFFF727
S31508011BE085FF6C46164D0FCD0FC495E8070003C453
S31508011BF02270144D4FF47A7318226946284601F06B
S31508011C00E8FDFFF7E9FDFFF7DBFAEC460E4C0FCCD2
S31508011C10ACE80F000FCCACE80F0094E803004CF8D1
S31508011C20040BACF800104FF47A732522694628464E
S31508011C3001F0CFFDFFF756FC0A2000F0D7FAD0E7EE
S31508011C4098570108D0130020B457010870470000BF
S31508011C502DE9F04FC9B08146002002460FE00D5C20
S31508011C600C1863781B0443EA0563A57843EA052340
S31508011C70E478234308AC44F82230013204300F2AB1
S31508011C80EDD920E0931E08A951F823004FEAF04345
S31508011C9083EA704383EA9023D01F51F82000034456
S31508011CA0A2F10F0051F820404FEAB44080EAF4103F
S31508011CB080EAD4000344A2F1100051F8200003443D
S31508011CC041F8223001323F2ADCD9D9F850A0D9F897
S31508011CD054B0D9F85820D9F85C30D9F86010009179
S31508011CE0D9F864700197D9F868600296D9F86C003A
S31508011CF003908646984614465D46D4460020CDF89C
S31508011D0010A0F246CDF814B00692079330E04FEAD8
S31508011D10F12E8EEAB11E8EEA716ED64401EA0702E9
S31508011D2026EA010A82EA0A027244264B53F820304F
S31508011D301A440DF1200E5EF820301A444FEA7C3A17
S31508011D408AEABC0A8AEABC5A85EA040E0EEA0C0E2D
S31508011D5005EA040B8EEA0B0ED6440130B2463E461E
S31508011D600F4608EB0201A0462C46654602EB0E0C0F
S31508011D703F28CCD9D646DDF810A0DDF814B0069A6E
S31508011D80079B0CEB0A00C9F850005D44C9F854508A
S31508011D901444C9F858404344C9F85C30009B1944B7
S31508011DA0C9F86010019B1F44C9F86470029B1E4460
S31508011DB0C9F86860039B7344C9F86C3049B0BDE83B
S31508011DC0F08F00BFD85901080023036400220023BD
S31508011DD0C0E912230A4B03650A4B43650A4B83651F
S31508011DE00A4BC3650A4B03660A4B43660A4B83666D
S31508011DF003F17453A3F52303A3F69243C36670470D
S31508011E0067E6096A85AE67BB72F36E3C3AF54FA57C
S31508011E107F520E518C68059BABD9831FF8B50446D2
S31508011E200F461646002500E00135B54215D2236C4A
S31508011E30785DE05401332364402BF5D121462046D1
S31508011E40FFF706FFA36CE26C13F5007342F100027B
S31508011E50A364E26400232364E6E7F8BD38B50446C3
S31508011E600D46026C372A2DD8531C8021815402E075
S31508011E700022E2540133372BFAD9A36CE26C216CA8
S31508011E80C9005B1842F10002A364E26484F83F309A
S31508011E90190A84F83E10190C84F83D101B0E84F8B3
S31508011EA03C3084F83B20130A84F83A30130C84F842
S31508011EB03930120E84F8382021462046FFF7C8FE2D
S31508011EC000233BE0531C8021815402E00022E254A6
S31508011ED001333F2BFAD921462046FFF7B9FE3822AE
S31508011EE00021204602F068F8C7E7216DC3F1030215
S31508011EF0D200D140E954616DD140181D2954A16D14
S31508011F00D14003F108002954E16DD14003F10C00D9
S31508011F102954216ED14003F110002954616ED14034
S31508011F2003F114002954A16ED14003F11800295474
S31508011F30E16ED14003F11C02A9540133032BD4D914
S31508011F4038BDF0B59DB006460F4615466846FFF7FB
S31508011F503BFF3A4631466846FFF760FF2946684621
S31508011F60FFF77CFF1DB0F0BD82B0002100910B4B3D
S31508011F705A6C42F480425A645A6C02F480420092C6
S31508011F80009A01911A6C42F080521A641B6C03F094
S31508011F9080530193019B02B0704700BF003802408D
S31508011FA010B58AB0002305930693079308930993FE
S31508011FB003682B4A934204D02A4A934225D00AB091
S31508011FC010BD00210191284B5A6C42F010025A6447
S31508011FD05A6C02F010020192019A02911A6B42F0B0
S31508011FE001021A631B6B03F001030293029B4FF470
S31508011FF0F0530593022306930323089307230993B2
S3150801200005A91A4800F08AFCD9E700240394164B5F
S315080120101A6C42F400321A641A6C02F40032039202
S31508012020039A04941A6B42F001021A631B6B03F0BC
S3150801203001030493049B0F230593022306930323A9
S3150801204008930723099305A9084800F067FC224667
S315080120502146262000F03CF9262000F05DF9AEE77E
S3150801206000100140004400400038024000000240D0
S31508012070FEE7FEE7FEE7FEE7FEE7704770477047B3
S3150801208008B500F0A1F808BD08B5024801F0CEFC74
S3150801209008BD00BF5813002010B503460C4A0D4968
S315080120A00D48006840B10C4800680344521A93422F
S315080120B006D8094A136010BD0748084C0460F2E7C0
S315080120C001F0BEFF0C2303604FF0FF30F3E700BFBA
S315080120D00080012000040000481400209815002003
S315080120E0034AD2F8883043F47003C2F8883070473F
S315080120F000ED00E0DFF834D0FFF7F2FF0C480D4998
S315080121000D4A002302E0D458C4500433C4188C4243
S31508012110F9D30A4A0A4C002301E013600432A242A9
S31508012120FBD301F093FFFFF74FFD704700800120B5
S315080121300000002090000020505C0108900000205B
S3150801214098150020FEE7000010B504460E4B1868E6
S315080121500E4B1A784FF47A73B3FBF2F3B0FBF3F034
S3150801216000F0E8F868B90F2C01D901200AE000222D
S3150801217021464FF0FF3000F0ABF8054B1C600020FC
S3150801218000E0012010BD00BF140000201800002047
S315080121901C00002008B50B4B1A6842F400721A603D
S315080121A01A6842F480621A601A6842F480721A60E8
S315080121B0032000F06FF80F20FFF7C6FFFFF7D4FEE4
S315080121C0002008BD003C0240034A1168034B1B78F6
S315080121D00B441360704700BF4C1400201800002000
S315080121E0014B1868704700BF4C14002038B50446E7
S315080121F0FFF7F6FF0546B4F1FF3F02D0044B1B7803
S315080122001C44FFF7EDFF401BA042FAD338BD00BFBF
S3150801221018000020002807DB00F01F0240090123EF
S315080122209340024A42F82030704700BF00E100E0BF
S31508012230002808DB0901C9B200F1604000F56140D8
S3150801224080F80013704700F00F000901C9B2014B6D
S315080122501954704714ED00E000B500F00700C0F10D
S31508012260070CBCF1040F28BF4FF0040C031D062B05
S315080122700ED9C31E4FF0FF3E0EFA0CF021EA0001FB
S3150801228099400EFA03FE22EA0E0241EA020000BD57
S315080122900023EFE710B50446C31E042B0FD80A4ADC
S315080122A0D36823F4E0631B041B0C240204F4E064E2
S315080122B0234343F0BF6343F40033D36010BD902139
S315080122C00248FFF7C3FCEAE700ED00E0DC57010826
S315080122D070B506460C4615460F2A0ED80F2C11D88E
S315080122E00B4BD8682A462146C0F30220FFF7B4FFF4
S315080122F001463046FFF79CFF70BDA8210548FFF748
S31508012300A5FCEBE7A9210348FFF7A0FCE8E700BF16
S3150801231000ED00E0DC57010810B5041E03DB20467A
S31508012320FFF778FF10BDBC210148FFF78FFCF6E7E0
S31508012330DC5701080138B0F1807F0BD24FF0E0235A
S315080123405861054AF02182F8231000209861072276
S315080123501A6170470120704700ED00E070B5044628
S31508012360866DFFF73DFF94F83530022B06D08023A2
S315080123706365002384F83430012070BD0546226860
S31508012380136823F0160313602268536923F0800348
S315080123905361236CE3B12268136823F008031360C1
S315080123A02268136823F00103136023681B6813F07E
S315080123B0010F11D0FFF714FF431B052BF5D9202375
S315080123C06365032084F83500002384F83430D4E7A4
S315080123D0A36C002BDFD1E3E7E26D3F239340B360A3
S315080123E0012384F83530002084F83400C5E790F8D5
S315080123F03530022B03D0802343650120704705231E
S3150801240080F835300268136823F001031360002051
S3150801241070470000274BDB6813F0100F07D0264AD8
S31508012420D36943F01003D361224B1022DA60214BA2
S31508012430DB6813F0200F07D01F4AD36943F008035E
S31508012440D3611C4B2022DA601A4BDB6813F0400F6C
S3150801245007D0194AD36943F00403D361154B4022C7
S31508012460DA60144BDB6813F0800F07D0124AD36980
S3150801247043F00203D3610F4B8022DA600D4BDB6810
S3150801248013F4807F08D00C4AD36943F00103D36162
S31508012490084B4FF48072DA60064BDB6813F0020FC3
S315080124A007D0054AD36943F02003D361014B0222C1
S315080124B0DA607047003C02402000002038B5044627
S315080124C00D4600F17843B3F5002F06D300F16043BA
S315080124D003F50843B3F5047F0CD2094B1A6922F4B4
S315080124E040721A611A691A611A6942F001021A617F
S315080124F0257038BD40F2BA210248FFF7A7FBECE781
S31508012500003C02401858010838B504460D4600F14A
S315080125107843B3F5002F06D300F1604303F508436A
S31508012520B3F5047F0ED20A4B1A6922F440721A6176
S315080125301A6942F480721A611A6942F001021A6133
S31508012540258038BD40F2A1210248FFF77FFBEAE763
S31508012550003C02401858010838B504460D4600F1FA
S315080125607843B3F5002F06D300F1604303F508431A
S31508012570B3F5047F0ED20A4B1A6922F440721A6126
S315080125801A6942F400721A611A6942F001021A6163
S31508012590256038BD4FF422710248FFF757FBEAE779
S315080125A0003C02401858010870B5044616461D46F7
S315080125B000F17843B3F5002F06D300F1604303F524
S315080125C00843B3F5047F11D20B490B6923F4407311
S315080125D00B610B6943F440730B610B6943F001030B
S315080125E00B612660BFF36F8F656070BD40F266218F
S315080125F00248FFF72BFBE7E7003C024018580108A1
S31508012600094B1B69002B01DB00207047064B074A63
S315080126105A6002F188325A601B69002B01DB0020DF
S3150801262070470120704700BF003C024023016745FF
S31508012630034A136943F0004313610020704700BF42
S31508012640003C024038B50446144B0022DA61FFF714
S31508012650C7FD0546124BDB6813F4803F0AD0B4F177
S31508012660FF3FF7D024B1FFF7BBFD401BA042F1D9CC
S3150801267003200DE00A4BDB6813F0010F02D0084B6B
S315080126800122DA60064BDB6813F4F97F01D10020D9
S3150801269038BDFFF7BFFE0120FAE700BF2000002082
S315080126A0003C0240F8B516461E4A127E012A37D06A
S315080126B004460D461F461B4B01221A7603281BD8D2
S315080126C04CF25030FFF7BEFF90B9D4B1012C1DD0A2
S315080126D0022C20D032463B462846FFF765FF4CF2CE
S315080126E05030FFF7AFFF104A136923F00103136156
S315080126F00C4B00221A76F8BDA9210C48FFF7A6FA59
S31508012700DEE7F1B22846FFF7D9FEE8E7B1B2284677
S31508012710FFF7FAFEE3E731462846FFF71DFFDEE736
S315080127200220E8E720000020003C02401858010872
S3150801273038B504460D46032811D8012D15D10E4B7F
S315080127401A6922F440721A611A6942F004021A617E
S31508012750186940EA042040F48030186138BD40F217
S31508012760B7310648FFF772FAE7E74FF46E71034887
S31508012770FFF76CFAE3E700BF003C02405458010832
S3150801278038B505460C46072808D8032C0CD8012C61
S3150801279010D0022C11D04CBB002110E040F2D631EA
S315080127A01448FFF753FAF0E740F2D7311148FFF71B
S315080127B04DFAECE74FF4807101E04FF400710E4BCE
S315080127C01A6922F440721A611A690A431A611A6966
S315080127D022F0F8021A61186940EAC50040F00200C1
S315080127E018611A6942F480321A6138BD4FF4407192
S315080127F0E5E700BF54580108003C0240164B1B6828
S3150801280013F4007F10D0144B1A6822F400721A6070
S315080128101A6842F400621A601A6822F400621A60A1
S315080128201A6842F400721A600B4B1B6813F4806F26
S3150801283010D0094B1A6822F480621A601A6842F4A9
S3150801284080521A601A6822F480521A601A6842F491
S3150801285080621A60704700BF003C0240F8B52C4BF5
S315080128601B7E012B52D004460E46294B01221A76AD
S315080128700368934229D84CF25030FFF7E3FE074626
S3150801288000283ED14FF0FF3333602368012B21D056
S31508012890E368A2681344013B072B2AD8A568E368B5
S315080128A0A2681344AB422AD9217C2846FFF768FF60
S315080128B04CF25030FFF7C6FE164A136923F0FA03A5
S315080128C013610746D0B90135E9E7A9211248FFF78F
S315080128D0BDF9D0E76168207CFFF72AFF4CF250303A
S315080128E0FFF7B0FE07460B4A136923F00403136189
S315080128F005E0C1210848FFF7A9F9CFE73560FFF7D9
S315080129007DFF034B00221A763846F8BD0227FBE7FE
S3150801291020000020003C0240545801082DE9F041EE
S3150801292082B007460E46994B984217D003F5806345
S31508012930984213D003F5806398420FD003F580635C
S3150801294098420BD003F58063984207D003F540639C
S31508012950984203D0AC218E48FFF778F933689AB2CA
S3150801296012B1B3F5803F03D3AD218948FFF76EF95C
S315080129707368B3F5041F1BD00DD8B3F5881F17D09C
S3150801298005D8032B14D9113B012B11D90CE0B3F54A
S31508012990901F0DD008E0B3F5441F09D0B3F5481FC1
S315080129A006D0B3F5081F03D0AE217948FFF74EF9D3
S315080129B000247AE0F368032B13D8BA68610003236D
S315080129C08B4022EA0302F3688B401343BB607A68A3
S315080129D022EA05027368C3F30013A34013437B601D
S315080129E074E0C0216A48FFF731F9E6E7D121684862
S315080129F0FFF72CF972E033694BB1013B0E2B17D85F
S31508012A0044F6FF3222FA03F313F0010F10D0E2085D
S31508012A10083257F8220004F0070189000F238B407A
S31508012A2020EA030033698B40034347F8223065E007
S31508012A30DE215748FFF70AF9E9E7042300E00023F6
S31508012A408B4003430232534941F82230524B9A686C
S31508012A506FEA080322EA0801706810F4801F01D0A2
S31508012A6048EA02014C4A9160D26803EA0201706899
S31508012A7010F4001F01D048EA0201474AD1605268A2
S31508012A8003EA0201706810F4003F01D048EA020126
S31508012A90414A516012681340716811F4803F01D0B0
S31508012AA048EA02033C4A136001340F2C6BD801250E
S31508012AB0A540336803EA050835EA0303F4D17368C8
S31508012AC003F00303013B012B7FF674AF736803F030
S31508012AD00303032B0CD0B368022B87D8FA6861006D
S31508012AE003238B4022EA0302B3688B401343FB603E
S31508012AF0736803F00303022B3FF47DAF3A68610064
S31508012B0003238B4022EA0302736803F003038B4015
S31508012B1013433B60736813F4403FC5D00023019308
S31508012B201E4B5A6C42F480425A645B6C03F4804330
S31508012B300193019BA208911C164B53F8210004F03E
S31508012B40030189000F238B4020EA03000F4B9F42A4
S31508012B503FF475AF03F580639F420ED003F580639A
S31508012B609F420CD003F580639F420AD003F5806328
S31508012B709F423FF462AF072362E7012360E702231E
S31508012B805EE703235CE702B0BDE8F081000002407E
S31508012B909458010800380140003C014000380240C1
S31508012BA070B5054614460E4621B1012C08D86CB1FC
S31508012BB0AE6170BD40F29D110648FFF747F8F4E78C
S31508012BC04FF4CF710348FFF741F8F0E73604AE61D9
S31508012BD0EFE700BF94580108002800F05E8270B53F
S31508012BE082B0044603680F2B39D8236813F0010F06
S31508012BF04DD063682BB1B3F5803F02D0B3F5A02F52
S31508012C0032D1804B9B6803F00C03042B36D07D4BE5
S31508012C109B6803F00C03082B2BD06368B3F5803F40
S31508012C205FD0B3F5A02F62D0764B1A6822F48032B2
S31508012C301A601A6822F480221A606368002B60D031
S31508012C40FFF7CEFA05466F4B1B6813F4003F1ED1FA
S31508012C50FFF7C6FA401B6428F5D9032024E2E621CA
S31508012C606948FEF7F3FFC0E7EB216748FEF7EEFF79
S31508012C70C7E7644B5B6813F4800FCED0614B1B68C2
S31508012C8013F4003F03D06368002B00F00882236821
S31508012C9013F0020F66D0E368012B41D823691F2B75
S31508012CA044D8584B9B6813F00C0F4AD0554B9B6878
S31508012CB003F00C03082B3FD0E368002B77D0534B66
S31508012CC001221A60FFF78CFA05464E4B1B6813F072
S31508012CD0020F63D1FFF784FA401B0228F5D90320B6
S31508012CE0E2E1484A136843F480331360A5E7454B8C
S31508012CF01A6842F480221A601A6842F480321A600D
S31508012D009BE7FFF76DFA05463E4B1B6813F4003F38
S31508012D10BDD0FFF765FA401B6428F5D90320C3E146
S31508012D2040F21D113848FEF791FFB7E74FF48F714E
S31508012D303548FEF78BFFB4E7324B5B6813F4800F17
S31508012D40BAD1304B1B6813F0020F03D0E368012B8D
S31508012D5040F0A7812B4A136823F0F803216943EA57
S31508012D60C1031360236813F0080F51D06369012B5F
S31508012D702FD863699BB3254B0122C3F8802EFFF731
S31508012D802FFA05461F4B5B6F13F0020F40D1FFF771
S31508012D9027FA401B0228F5D9032085E1194A136849
S31508012DA023F0F803216943EAC1031360DAE7174BF5
S31508012DB000221A60FFF714FA0546124B1B6813F036
S31508012DC0020FCFD0FFF70CFA401B0228F5D90320D2
S31508012DD06AE14FF4AF710C48FEF738FFC9E70B4BB0
S31508012DE00022C3F8802EFFF7FBF90546054B5B6FFA
S31508012DF013F0020F0CD0FFF7F3F9401B0228F5D99F
S31508012E00032051E100380240D0580108000047422A
S31508012E10236813F0040F7CD0A368012B01D9052B75
S31508012E2038D1A54B1B6C13F0805F39D10023019370
S31508012E30A14B1A6C42F080521A641B6C03F0805342
S31508012E400193019B01259D4B1B6813F4807F29D0B3
S31508012E50A368012B3AD0052B3ED0974B1A6F22F067
S31508012E6001021A671A6F22F004021A67A368002B77
S31508012E703CD0FFF7B5F906468F4B1B6F13F0020FCF
S31508012E8045D1FFF7ADF9801B41F288339842F3D952
S31508012E90032009E14FF4C5718948FEF7D7FEC0E75B
S31508012EA00025D0E7854A136843F480731360FFF75A
S31508012EB097F90646814B1B6813F4807FC8D1FFF743
S31508012EC08FF9801B0228F5D90320EDE07A4A136FA2
S31508012ED043F001031367C9E7774B1A6F42F00402FF
S31508012EE01A671A6F42F001021A67BFE7FFF778F906
S31508012EF00646714B1B6F13F0020F08D0FFF770F9E6
S31508012F00801B41F288339842F3D90320CCE0002D87
S31508012F103CD1A369022B3FD8A369002B00F0C380DB
S31508012F20654A926802F00C02082A00F09180022B89
S31508012F307AD1E36913B1B3F5800F33D1236A023B22
S31508012F403D2B35D8636A323BB3F5BF7F36D8A26AC3
S31508012F50082A39D84FF4AA73D34013F0010F33D096
S31508012F60E36A023B0D2B35D8564B00221A66FFF74A
S31508012F7037F90546504B1B6813F0007F30D0FFF731
S31508012F802FF9401B0228F5D903208DE04A4A136C14
S31508012F9023F080531364BCE740F2CD114848FEF78D
S31508012FA055FEB9E74FF4EB714548FEF74FFEC5E705
S31508012FB040F2D7114248FEF749FEC3E74FF4EC71D8
S31508012FC03F48FEF743FEC2E740F2D9113C48FEF7F7
S31508012FD03DFEC5E74FF4ED713948FEF737FEC3E705
S31508012FE0E369226A1343626A43EA8213A26A5208B0
S31508012FF0013A43EA0243E26A43EA02632E4A53600C
S31508013000304B01221A66FFF7EBF804462A4B1B6878
S3150801301013F0007F06D1FFF7E3F8001B0228F5D964
S31508013020032041E000203FE0264B00221A66FFF705
S31508013030D7F80446204B1B6813F0007F06D0FFF72C
S31508013040CFF8001B0228F5D903202DE000202BE03C
S31508013050012B2BD0184B5B6803F48001E26991427E
S3150801306026D103F03F02216A8A4223D1616A47F6D3
S31508013070C0721A40B2EB811F26D103F44031A26A0D
S315080130805208013AB1EB024F20D103F07063E26AAC
S31508013090B3EB026F1CD1002006E001207047012026
S315080130A002E0012000E0002002B070BD0120FBE72C
S315080130B00120F9E70120F7E70038024000700040D7
S315080130C0D0580108000047420120EDE70120EBE74F
S315080130D00120E9E708B5264B9B6803F00C03042B8E
S315080130E041D0082B41D1224B5A6802F03F025B6856
S315080130F013F4800F12D01E4B5968C1F388111D486D
S315080131000023A1FB0001FDF7D3F8194B5B68C3F354
S31508013110014301335B00B0FBF3F008BD144B58685B
S31508013120C0F388104FEA401CBCEB000C6EEB0E0E88
S315080131304FEA8E1343EA9C634FEA8C11B1EB0C01FB
S3150801314063EB0E03DB0043EA5173C90011EB000C74
S3150801315043F10003990200234FEA8C2041EA9C516E
S31508013160FDF7A6F8D1E70348D7E70348D5E700BF37
S315080131700038024000366E010024F400002800F0F1
S31508013180FA8070B50D4604460368013B0E2B32D80A
S31508013190072D36D87C4B1B6803F00703AB4208D2D0
S315080131A0EBB2794A1370136803F00703AB4240F098
S315080131B0E480236813F0020F3ED013F0040F04D005
S315080131C0724A936843F4E0539360236813F0080F37
S315080131D004D06E4A936843F460439360A36823B3AB
S315080131E0C02B22D016D8A02B1FD010D8802B1CD0CC
S315080131F0902B1AD014E040F25A216548FEF726FDB5
S31508013200C6E740F25B216248FEF720FDC2E7B02B14
S315080132100BD005E0E02B08D0F02B06D0D02B04D03C
S3150801322040F27E215A48FEF711FD584A936823F069
S31508013230F003A1680B439360236813F0010F3CD098
S315080132406368032B25D86368012B28D09A1E012AA7
S315080132502CD94E4A126812F0020F00F090804B49A1
S315080132608A6822F0030213438B60FEF7B9FF06460C
S31508013270464B9B6803F00C036268B3EB820F1CD0C4
S31508013280FEF7AEFF801B41F288339842F0D903203E
S3150801329064E040F285213E48FEF7D8FCD3E73B4A75
S315080132A0126812F4003FDAD1012057E0374A126852
S315080132B012F0007FD3D1012050E0334B1B6803F095
S315080132C00703AB4207D9EAB22F4B1A701B6803F002
S315080132D00703AB4255D1236813F0040F14D0E368F2
S315080132E05BB1B3F5805F08D0B3F5A05F05D0B3F540
S315080132F0C05F02D0B3F5E05F31D1244A936823F465
S31508013300E053E1680B439360236813F0080F15D067
S3150801331023695BB1B3F5805F08D0B3F5A05F05D02B
S31508013320B3F5C05F02D0B3F5E05F1ED1174A9368C3
S3150801333023F46043216943EAC1039360FFF7CAFE98
S31508013340124B9B68C3F30313124AD35CD840124B42
S315080133501860124B1868FEF7F7FE002070BD40F2A0
S31508013360C3210B48FEF772FCC7E740F2CA21084899
S31508013370FEF76CFCDAE7012070470120EEE7012031
S31508013380ECE70120EAE700BF003C024000380240B2
S31508013390D0580108E05A0108140000201C0000203A
S315080133A0014B1868704700BF1400002008B5FFF7E5
S315080133B0F7FF044B9B68C3F38223034AD35CD840C7
S315080133C008BD00BF00380240D85A010808B5FFF702
S315080133D0E7FF044B9B68C3F34233034AD35CD840E7
S315080133E008BD00BF00380240D85A01087047704727
S315080133F0704770477047704770477047026802F117
S315080134000C0353E8003F23F490730C3242E8003171
S315080134100029F3D1026802F1140353E8003F23F0AF
S315080134200103143242E800310029F3D1036B012B61
S3150801343005D0202380F842300023036370470268D1
S3150801344002F10C0353E8003F23F010030C3242E863
S3150801345000310029F3D1ECE708B5806B0023C38559
S31508013460836D984708BD08B5806B0023C385202264
S3150801347080F842200363436E984708BD90F84130AF
S31508013480212B01D0022070478368B3F5805F17D0DE
S31508013490036A5A1C02621A7803685A60C38C9BB283
S315080134A0013B9BB2C3844BB90268D36823F08003FE
S315080134B0D3600268D36843F04003D36000207047A5
S315080134C00369002BE4D1036A1B880268C3F3080366
S315080134D05360036A02330362E0E708B50168CA6804
S315080134E022F04002CA60202280F84120C36C984726
S315080134F0002008BD90F84230222B68D18368B3F5C5
S31508013500805F33D0826AB3F5805F04D0002B3AD14D
S315080135100369002B37D103685B681370836A01332B
S315080135208362C38D9BB2013B9BB2C385002B50D1ED
S3150801353000B583B00268D36823F02003D36002681C
S31508013540D36823F48073D3600268536923F00103B7
S315080135505361202380F8423000234363036B012B18
S3150801356017D0436D9847002003B000BD0269002AB1
S31508013570C8D1826A03685B68C3F308031380836A48
S3150801358002338362CDE703685B6803F07F03137038
S31508013590C4E700230363026802F10C0353E8003F02
S315080135A023F010030C3242E800310029F3D10368F5
S315080135B01A6812F0100F06D0002201921A680192B9
S315080135C05B680193019BC36E818D9847CBE7022007
S315080135D0704700207047000010B504464268574BF3
S315080135E09A423FD8E36813B1B3F5005F40D1236926
S315080135F02BB1B3F5806F02D0B3F5C06F3ED16369C5
S315080136004FF6F372134200D123B940F69C614C4838
S31508013610FEF71CFB2268136923F44053E1680B4348
S315080136201361A36822691A4363691A43E3691A4352
S315080136302168CB6823F4164323F00C031343CB60AC
S315080136402268536923F44073A1690B4353612368C4
S315080136503C4A934218D002F58062934214D0FFF790
S31508013660A5FE13E040F699613548FEF7EFFAB9E78A
S3150801367040F69A613248FEF7E9FAB8E740F69B61E7
S315080136802F48FEF7E3FABAE7FFF7A0FEE369B3F5B9
S31508013690004F29D00021031849411B1841F10001A7
S315080136A0C90041EA5371DB00181863684FEA8302BF
S315080136B04FEA937341F10001FCF7FAFD224AA2FB96
S315080136C000314909642303FB11031B013233A2FBB1
S315080136D003235B0903F0F00202EB011203F00F0367
S315080136E0216813448B6010BD0023021843EB0301C4
S315080136F0121841F10001C90041EA5271D2001018AD
S3150801370041F10001626892185B41FCF7D1FD0E4A4E
S31508013710A2FB00314909642303FB1103DB003233A1
S31508013720A2FB03235B095A0002F4F87202EB0112A9
S3150801373003F00703216813448B60D4E7A037A00080
S3150801374008590108001001401F85EB512DE9F04386
S3150801375083B005460E4617469946DDF828802B683C
S315080137601C6836EA04040CBF01240024BC4228D193
S31508013770B8F1FF3FF3D0FEF733FDA0EB0900404552
S3150801378023D8B8F1000F22D02B68DA6812F0040F9B
S31508013790E5D0802EE3D0402EE1D01A6812F0080F4A
S315080137A0DDD0002401941A6801925B680193019B9C
S315080137B02846FFF723FE08236B6485F8404001205D
S315080137C000E0002003B0BDE8F0830320FAE70320F8
S315080137D0F8E72DE9F04182B01E4690F84130202BDA
S315080137E056D104460D469046002955D00AB90120FE
S315080137F04FE000234364212380F84130FEF7F0FCB3
S315080138000746A4F82480A4F82680A368B3F5805F48
S3150801381002D04FF0000814E023692BB34FF00008DB
S315080138200FE0202384F84130032032E038F8023BC8
S315080138302268C3F308035360E28C92B2013A92B24A
S31508013840E284E38C9BB293B100963B460022802129
S315080138502046FFF77BFF0028E3D1002DE6D015F8B7
S31508013860012B23685A60E7E7A8460025E9E7009691
S315080138703B46002240212046FFF768FF18B920235E
S3150801388084F8413005E0202384F84130032000E024
S31508013890022002B0BDE8F0810120FAE72DE9F041E6
S315080138A082B01E4690F84230202B5AD104460D4666
S315080138B09046002959D00AB9012053E000234364F0
S315080138C0222280F842200363FEF78AFC0746A4F801
S315080138D02C80A4F82E80A368B3F5805F02D04FF040
S315080138E000081AE02369002B33D04FF0000814E0D2
S315080138F0202384F84230032034E023685B68C3F34D
S31508013900080328F8023B03E023685B682B7001353E
S31508013910E28D92B2013A92B2E285E38D9BB2DBB1B6
S3150801392000963B46002220212046FFF70FFF00287C
S31508013930DED1002DE1D0A368B3F5805FE4D013B9D9
S315080139402369002BE0D023685B6803F07F032B70A3
S31508013950DDE7A8460025E0E7202384F84230002069
S3150801396000E0022002B0BDE8F0810120FAE700007C
S3150801397010B50446226802F10C0353E8003F23F40C
S3150801398090730C3242E800310029F3D1226802F122
S31508013990140353E8003F23F00103143242E80031CF
S315080139A00029F3D1236B012B1CD023685B6913F023
S315080139B0400F2ED0226802F1140353E8003F23F08A
S315080139C04003143242E800310029F3D1E36BB3B165
S315080139D0154A1A65E06BFEF70AFD18B3E06B036D2D
S315080139E098471FE0226802F10C0353E8003F23F0D1
S315080139F010030C3242E800310029F3D1D5E7002340
S31508013A00E385202284F842202363636E2046984783
S31508013A1008E00023E385202284F842202363636EAD
S31508013A2020469847002010BD6734010810B582B0BA
S31508013A30044602681368D068516913F00F0F09D15B
S31508013A4013F0200F0CD010F0200F09D02046FFF7F5
S31508013A5051FD16E011F0010115D110F4907F12D134
S31508013A60216B012979D013F0800F03D010F0800F54
S31508013A7040F0218113F0400F03D010F0400F40F0C1
S31508013A801E8102B010BD13F0010F06D010F4807F1D
S31508013A9003D0626C42F00102626413F0040F04D091
S31508013AA019B1626C42F00202626413F0020F04D08B
S31508013AB019B1626C42F00402626413F0080F07D070
S31508013AC010F0200F00D119B1626C42F0080262644D
S31508013AD0626C002AD5D013F0200F02D010F0200F07
S31508013AE029D123685B6903F04003626C12F0080F61
S31508013AF000D163B32046FFF781FC23685B6913F0A5
S31508013B00400F20D0226802F1140353E8003F23F046
S31508013B104003143242E800310029F3D1E36B73B153
S31508013B20694A1A65E06BFEF762FC0028A9D0E06BCA
S31508013B30036D9847A5E72046FFF7DCFCD1E7A36D9F
S31508013B40204698479DE7A36D2046984799E7A36DB8
S31508013B50204698470023636493E713F0100F82D039
S31508013B6010F0100F3FF47FAF002301931368019300
S31508013B7053680193019B536913F0400F5FD0E26BC1
S31508013B8013685B689BB2002B4AD0A18D994247D92D
S31508013B90E385D369B3F5807F37D0226802F10C0338
S31508013BA053E8003F23F480730C3242E800310029C0
S31508013BB0F3D1226802F1140353E8003F23F001030D
S31508013BC0143242E800310029F3D1226802F11403C4
S31508013BD053E8003F23F04003143242E8003100293C
S31508013BE0F3D1202384F8423000232363226802F1AB
S31508013BF00C0353E8003F23F010030C3242E800316E
S31508013C000029F3D1E06BFEF7A9FB02236363E26E99
S31508013C10A18DE38D9BB2C91A89B22046904730E738
S31508013C20A18D99427FF42DAFD369B3F5807F7FF4D7
S31508013C3028AF02236363E36E2046984721E7A18DE7
S31508013C40E38D9BB2C91A89B2E38D9BB2002B3FF46F
S31508013C5018AF00293FF415AF226802F10C0353E8A7
S31508013C60003F23F490730C3242E800300028F3D168
S31508013C70226802F1140353E8003F23F001031432CA
S31508013C8042E800300028F3D1202384F8423000238B
S31508013C902363226802F10C0353E8003F23F0100363
S31508013CA00C3242E800300028F3D102236363E36E45
S31508013CB020469847E5E62046FFF7E0FBE1E6204681
S31508013CC0FFF70BFCDDE600BF59340108094B836495
S31508013CD0094BC364094B0365094B4365094B836566
S31508013CE0094BC365094B0366094B4366094BC36612
S31508013CF0704700BFEF330108ED330108F1330108BE
S31508013D00B9140108F3330108F5330108F73301083B
S31508013D10F9330108FB330108002800F0818010B54A
S31508013D20044683690BB303683E4A93420CD0A2F555
S31508013D304C42934208D002F55042934204D040F2D5
S31508013D4073113948FDF782FFA369FBB1B3F5807F8B
S31508013D501CD0B3F5007F19D0B3F5407F16D04FF4C8
S31508013D60BA713148FDF772FF10E003682D4A934294
S31508013D700CD0A2F54C42934208D002F55042934228
S31508013D8004D04FF4BC712848FDF760FFA36813B14E
S31508013D90B3F5805F2AD1E36913B1B3F5004F2BD18F
S31508013DA094F8413073B3242384F841302268D368E8
S31508013DB023F40053D3602046FFF70EFC22681369EB
S31508013DC023F4904313612268536923F02A0353614C
S31508013DD02268D36843F40053D3600020606420232B
S31508013DE084F8413084F84230606310BD4FF4BD71E8
S31508013DF00D48FDF72BFFCEE740F27B110A48FDF788
S31508013E0025FFCDE784F840302046FFF75FFF236F93
S31508013E101BB1236F20469847C5E7044B2367F8E78C
S31508013E20012070470010014008590108A11F010827
S31508013E3081628285C28500234364222380F8423049
S31508013E40036923B10268D36843F48073D3600268B7
S31508013E50536943F0010353610268D36843F02003B1
S31508013E60D3600020704708B590F84230202B08D15E
S31508013E7049B10AB9012008BD00230363FFF7D8FF3A
S31508013E80F9E70220F7E70120F5E700000CB430B5A1
S31508013E90184B0C1E1D689DB008DA8B232B604FF05A
S31508013EA0FF301DB0BDE8304002B070474FF40273D1
S31508013EB0ADF814304FF000031B9314BF04F1FF3320
S31508013EC02346049307934FF6FF7302900690ADF8C5
S31508013ED01630209A21AB02A92846019300F042FA2E
S31508013EE0431CBCBF8B232B60002CDAD0029B00221B
S31508013EF01A70D6E7400000200EB410B59DB01FAB6E
S31508013F00029006906FF000410A48079104910A4908
S31508013F1053F8042B0591002402A9006801931B9408
S31508013F2000F020FA029B1C701DB0BDE8104003B0DA
S31508013F30704700BF400000200802FFFF0EB470B5AD
S31508013F409DB021AC00254FF4017254F8046BADF80D
S31508013F5014201B9502900690FCF74CF90B4B039025
S31508013F6007900B480B934FF6FF73ADF816303246A0
S31508013F70234602A900680F951495019400F044FBA5
S31508013F801DB0BDE8704003B0704700BF953F0108FA
S31508013F90400000200020704710B5013902449042C4
S31508013FA001D1002005E0037811F8014FA34201D0A1
S31508013FB0181B10BD0130F2E702440346934200D1B3
S31508013FC0704703F8011BF9E710B56AB1013984187E
S31508013FD010F8012B11F8013F9A4203D1A04201D0F2
S31508013FE0002AF5D1D01A10BD1046FCE710B50139E3
S31508013FF0034632B111F8014F03F8014B013A002C7F
S31508014000F7D11A440021934200D110BD03F8011BD0
S31508014010F9E70A7870B56AB970BD9A4209D10C46B2
S31508014020054614F8013F002BF6D015F8016F9E429C
S31508014030F7D001300378002BEFD11846ECE70000E2
S31508014040014B1868704700BF4000002070B50D4B42
S315080140500D4D5B1B9C100026A64209D101F0F0F814
S315080140600A4D0B4B5B1B9C100026A64205D170BD61
S3150801407055F8043B98470136EEE755F8043B98474F
S315080140800136F2E7485C0108485C0108485C01080A
S315080140904C5C0108704770470A44914200F1FF33AE
S315080140A000D1704710B511F8014B03F8014F914241
S315080140B0F9D110BD38B50546002941D051F8043C5F
S315080140C00C1F002BB8BFE41800F0E0F81D4A13686E
S315080140D033B9636014602846BDE8384000F0DCB89F
S315080140E0A34208D9206821188B4201BF19685B6869
S315080140F009182160EDE71A465B680BB1A342FAD9A4
S3150801410011685018A0420BD1206801445018834207
S315080141101160E0D118685B68536008441060DAE7FB
S3150801412002D90C232B60D6E7206821188B4204BFDD
S3150801413019685B68636004BF091821605460CAE79F
S3150801414038BD00BF9415002070B50F4E0C46316876
S31508014150054611B900F042FF30602146284600F0B5
S315080141603DFF431C03D14FF0FF34204670BDC41CEC
S3150801417024F00304A042F8D0211A284600F02EFFA5
S315080141800130F2D1EFE700BF901500202DE9F84381
S31508014190CD1C25F0030508350C2D38BF0C25002D3F
S315080141A0064601DBA94204D90C2333600020BDE889
S315080141B0F883DFF8D48000F069F8D8F800301C4697
S315080141C044BB29463046FFF7BFFF431C044658D176
S315080141D0D8F800402746002F43D1002C4BD023683E
S315080141E03946304604EB030900F0F8FE814542D111
S315080141F021686D1A29463046FFF7A6FF01303AD0E5
S3150801420023682B442360D8F800305A6862BBC8F883
S3150801421000700FE02268521B20D40B2A17D96119A6
S31508014220A342256018BF5960636808BFC8F8001023
S3150801423062514B60304600F02FF804F10B00231D44
S3150801424020F00700C21A1CBF1B1AA350AFE7626809
S31508014250A3420CBFC8F800205A60EBE723466468FE
S31508014260AEE73C467F68B6E71A465B68A342FBD1D0
S3150801427000235360DEE70C233360304600F00CF868
S3150801428094E70560D6E700BF941500200148FFF7BB
S3150801429001BF00BF8C1500200148FFF7FCBE00BF17
S315080142A08C1500202DE9F0478E681F46BE428246CE
S315080142B00C469046334653D8B1F90C0010F4906F6A
S315080142C02BD065692368096905EB4505A3EB010947
S315080142D005EBD5757B1C6D104B44AB422A4684BF52
S315080142E01D462A46430527D511465046FFF74EFF78
S315080142F0064658B321694A46FFF7CEFEA38923F439
S31508014300906343F08003A381266165614E44A5EB62
S3150801431009052660A5603E463B461F4620683A4683
S31508014320414600F042FEA3689B1BA36023683B44F9
S3150801433023600020BDE8F087504600F05FFE064680
S315080143400028E1D121695046FFF7B4FE0C23CAF8CB
S315080143500030A38943F04003A3814FF0FF30E9E71A
S315080143603E46DBE72DE9F0471F468B891B069CB0C5
S3150801437006460D46144610D50B6973B94021FFF759
S3150801438005FF2860286130B90C2333604FF0FF30F0
S315080143901CB0BDE8F08740236B61002309932023F5
S315080143A08DF8293003973023654F8DF82A304FF061
S315080143B001082346994613F8012B0AB1252AF9D192
S315080143C0B9EB040A0BD05346224629463046FFF775
S315080143D069FF013000F0A480099A5244099299F8BC
S315080143E00030002B00F09C8000234FF0FF32CDE90E
S315080143F0052309F10109049307938DF853301A939C
S315080144004C464F4814F8011B0522FBF701FF049B94
S31508014410D0B9D80644BF20228DF85320190744BFC6
S315080144202B228DF8532099F800202A2A13D0079AAF
S315080144304C4600204FF00A0C214611F8013B303B4F
S31508014440092B49D968B913E0C01B08FA00F01843CB
S315080144500490A146D4E7039A111D12680391002A14
S3150801446001DB079204E0524243F0020307920493E8
S3150801447023782E2B0AD163782A2B32D1039B1A1D56
S315080144801B68039243EAE37302340593DFF8C0908D
S31508014490217803224846FBF7BBFE38B1049BA0EB03
S315080144A009004022824013430134049314F8011B86
S315080144B024488DF828100622FBF7AAFE002835D0D5
S315080144C0214818BB039B073323F0070308330393DB
S315080144D0099B034409936CE70CFB02320C46012045
S315080144E0AAE700230134059319464FF00A0C204622
S315080144F010F8012B303A092A03D9002BC6D00591A9
S31508014500C4E70CFB012104460123F0E703AB009342
S315080145102A460E4B04A93046AFF30080421CD7D178
S31508014520AB895B063FF532AF099831E703AB0093D8
S315080145302A46064B04A9304600F052FAEEE700BFB8
S31508014540F05A0108FA5A010800000000A5420108BC
S31508014550F65A010838B54B1C144603D14FF0FF35FE
S31508014560284638BD938923F020039381636B5268EB
S31508014570CDB28BB1A36B934208DD23685A1E226024
S3150801458003F8015C636801336360E9E7214600F0DB
S31508014590D2FC0028F1D0E1E72169236851B199429B
S315080145A008D213F8011CA94204D1013B0132236048
S315080145B06260D5E7C4E90F3204F144036363032358
S315080145C0A363234603F8465F23600123DCE710B59E
S315080145D00C46496B69B104F14403994201D0FFF7CE
S315080145E069FD236C63600020606313B1E36B23608C
S315080145F010BD2369236000236360A38943F0200368
S31508014600A3814FF0FF30F3E72DE9F04FADF5237D98
S3150801461041AC0D460021C4E9031101A96161AF4905
S31508014620C4F87C11DFF8C4B2AD49C4F88011074655
S31508014630E846009392F80090B9F1000F00F0608106
S315080146401BF8093013F0080302F101061BD06B6849
S31508014650002B10DD2B681A781BF80220120701D4EB
S315080146603246E7E72269013222616A680133013A73
S315080146706A602B60EBE7D4F88031294638469847BB
S315080146800028E7D0ECE7B9F1250F40F084802360D4
S31508014690A36053782A2B02BF1023961C23600A2293
S315080146A0B2461AF8011BA1F13003092B1DD98D4B0E
S315080146B003221846FBF7ACFD38B18A4B2268C01AAB
S315080146C00123834013432360564616F8013B782B92
S315080146D006D8572B10D8252B5DD057D8002B76D066
S315080146E00323A3610A23636089E0A36802FB03111C
S315080146F03039A1605646D3E7A3F15802202AEFD8EC
S3150801470001A151F822F000BFDD470108E146010881
S31508014710E146010839480108E1460108E146010870
S31508014720E1460108E1460108E1460108E1460108BA
S31508014730E14601084F480108354801089347010831
S315080147409347010893470108E1460108EF47010825
S31508014750E1460108E1460108E1460108E14601088A
S315080147605F480108F7470108D5470108E1460108EE
S31508014770E14601085B480108E14601083548010898
S31508014780E1460108E1460108DD470108453B022BE0
S31508014790A6D8052332E06B68002B0DDD2B681A7845
S315080147A04A4540F0AD8001336A682B602369013AB6
S315080147B001336A60236153E7D4F8803129463846C4
S315080147C098470028EAD0E068002840F091804FF029
S315080147D0FF3091E0226842F020022260226842F40A
S315080147E00072226010226E2B626006D801E0002357
S315080147F06360032302E0082363600423A3616B68F3
S31508014800002B3CDD2368590605D42B681A781BF85A
S31508014810022012073BD4A369022B4BDC43462A46E6
S315080148202146384600F002FA012869D002287FF4A9
S3150801483017AFC8E70A22D6E7314601A800F042FBBE
S31508014840236843F04003236006460123D6E723681D
S3150801485043F0400323600023D0E70223CEE7206814
S31508014860C3063FF5FDAED8F800302269191DC8F810
S3150801487000101B68C0074CBF1A801A60F0E6D4F80E
S3150801488080312946384698470028BBD09BE72269DC
S31508014890013222616A68013A002A6A6002DD01333F
S315080148A02B60B2E7D4F88031294638469847002864
S315080148B0ABD088E7042B06DC43462A462146384610
S315080148C000F00EFAB0E7084B002B3FF4C9AE434699
S315080148D02A4621463846AFF30080A5E75545010823
S315080148E0CF450108F65A0108000000003F5B0108A0
S315080148F0AB895B063FF56BAF0DF5237DBDE8F08F00
S31508014900E068F9E72DE9F047164698468A680B6983
S31508014910DDF820909342B8BF1346336091F84320DF
S3150801492007460C460AB1013333602368990642BF2C
S31508014930336802333360256815F0060506D104F19C
S31508014940190AE36832689B1AAB4226DC94F84330AD
S315080149502268003B18BF012392062BD404F14302B7
S3150801496041463846C84701301ED02368226903F0FC
S315080149700603042B02BFE5683368ED1AA3680CBF6A
S3150801498025EAE57500259342C4BF9B1AED18002652
S315080149901A34B5421AD1002008E00123524641468D
S315080149A03846C847013003D14FF0FF30BDE8F087DC
S315080149B00135C6E7E1185A1C302081F84300224424
S315080149C094F8451082F843100233C7E701232246BB
S315080149D041463846C8470130E6D00136D9E70000D6
S315080149E02DE9F0430D7E85B0782D90460C9E07463D
S315080149F00C46994601F1430207D8622D0AD8002DC3
S31508014A0000F0D780582D00F0BC8004F1420684F8E6
S31508014A1042503BE0A5F16303152BF6D801A151F8E5
S31508014A2023F000BF7D4A0108914A01080B4A010893
S31508014A300B4A01080B4A01080B4A0108914A010869
S31508014A400B4A01080B4A01080B4A01080B4A0108DF
S31508014A50994B0108BB4A01084B4B01080B4A01084F
S31508014A600B4A0108BB4B01080B4A0108BB4A01085E
S31508014A700B4A01080B4A0108534B010833681A1DF2
S31508014A801B68326004F1420684F842300123A1E032
S31508014A9033682068191D3160060601D51D6803E0D3
S31508014AA04506FBD5B3F90050002D03DA2D236D42D7
S31508014AB084F843305B480A2311E021683368080605
S31508014AC053F8045B02D4490648BFADB23360237E6E
S31508014AD054486F2B5CD10823002184F8431066687B
S31508014AE0A660002E05DB21682E4321F00401216012
S31508014AF050D01646B5FBF3F103FB115C10F80CC058
S31508014B0006F801CDAC4663450D46F3D9082B0BD102
S31508014B102368DB0708D5236961689942DEBF30231C
S31508014B2006F8013C06F1FF36921B2261CDF800908A
S31508014B30434603AA21463846FFF7E4FE01304ED123
S31508014B404FF0FF3005B0BDE8F083236843F020033A
S31508014B5023603548782584F845502368316813F071
S31508014B60800F51F8045B03D113F0400F18BFADB2A3
S31508014B703160D90744BF43F0200323601DB11023D8
S31508014B80AAE72848E7E7236823F020032360F6E726
S31508014B900A23A1E71646B9E7336825686169181D2E
S31508014BA030602E061B6801D5196002E06806FBD540
S31508014BB01980002323611646B8E733681A1D326047
S31508014BC01E68626800213046FBF722FB08B1801B8C
S31508014BD0606063682361002384F84330A6E723698C
S31508014BE0324641463846C8470130A9D023689B0753
S31508014BF013D4E068039B9842B8BF1846A2E701237D
S31508014C00324641463846C847013099D00135E368EE
S31508014C1003995B1AAB42F2DCEBE7002504F11906AE
S31508014C20F5E700BF015B0108125B01082DE9F843AE
S31508014C3015468A6880460C4632B98A69002A14BF25
S31508014C404FF0FF3201228A602268DFF89090D10680
S31508014C505FBF1A68111D196016680027A06988B117
S31508014C60012807D12B681A7863699B5C53B9002F11
S31508014C7032D023E0022821D12B681B7819F803309A
S31508014C801B071BD42368DA065EBF2B681B7806F858
S31508014C90013B6B68013B6B602B6801332B60A36892
S31508014CA0013B0137A3604BB16B68002BD6DCD4F806
S31508014CB080312946404698470028CFD0236813F00B
S31508014CC0100305D1E2680132E260A26902B13370CC
S31508014CD023693B4423610020BDE8F8833F5B010853
S31508014CE02DE9F04F9846734B0C468246164693E8D3
S31508014CF0070087B003AB83E807006F4BA1696F4ACA
S31508014D00032908BF1A46A36801925A1EB2F5AE7F57
S31508014D1084BF6FF4AE7503EB0509274684BF40F2DD
S31508014D205D13A36057F81C3B43F4506398BF4FF0DB
S31508014D30000923603D464FF0000B316803AB097843
S31508014D4053F82B000222FBF763FA28B3BBF1010FD4
S31508014D5058D162682AB92268082142F40072616052
S31508014D602260226822F4A0622260A268511EA16014
S31508014D7092B13268511C3160127805F8012B7268BC
S31508014D80013A002A726007DCD4F880213146504680
S31508014D909047002840F083800BF1010BBBF1030F0C
S31508014DA0CBD1616809B90A216160454B6069591A15
S31508014DB000F088F84FF0000BA3682268002B3DD05D
S31508014DC03168606991F800C010F80C00002835D0E8
S31508014DD0BCF1300F24D1100522D50BF1010BB9F125
S31508014DE0000F03D0013309F1FF39A3607368013B52
S31508014DF0002B73601BDD336801333360A368013B05
S31508014E00A360D9E7BBF1020FAFD1226802F4C061F2
S31508014E10B1F5007FC5D11021616042F48072A3E724
S31508014E2022F4106222600B7805F8013BDEE7D4F81C
S31508014E3080313146504698470028DFD02368DB0584
S31508014E400DD5BD4209D915F8011CD4F87C31324675
S31508014E505046984705F1FF394D46BD4227D022688D
S31508014E6012F0100212D12A706368019E3946504623
S31508014E70B047D8F8003021681A1DC8F800208E06F8
S31508014E801B680FD51860E3680133E3602369ED1BDE
S31508014E905D442B442361002007B0BDE8F08F4FF035
S31508014EA0000BCBE7CA074CBF18801860EBE7012057
S31508014EB0F2E700BF585201084D5101082D52010869
S31508014EC0335B010870B50B7804465E2B0BBF4B7834
S31508014ED04A1C8A1C002108BF0121013804F1FF057B
S31508014EE000F8011FA842FBD10BB9501E70BD81F015
S31508014EF00101E1541046024612F8015B2D2D05D039
S31508014F005D2D16D0002DF1D02B46F2E746785D2EA1
S31508014F10FAD0B342F8DC02301A4601329642A1545D
S31508014F20FBDCF21A013AB342A8BF0022013313444B
S31508014F30E1E71046DAE72DE9F0410C46496B04F141
S31508014F40440399421DD14FF48061FFF71FF918B93F
S31508014F504FF0FF30BDE8F0814FF48063A36394F806
S31508014F604630606380F8FF3394F8453080F8FE33A5
S31508014F7094F8443080F8FD3300F2FD3020600020BB
S31508014F80E8E7A66B77003A4600F038F805460028A8
S31508014F90DED000EB0608014632464046FFF77CF8AC
S31508014FA0C4E90D57C4F80080E9E7884210B501EB5A
S31508014FB0020402D98442234607D8431EA14207D0D8
S31508014FC011F8012B03F8012FF8E70244824200D1B8
S31508014FD010BD13F8011D02F8011DF7E738B5064D96
S31508014FE00023044608462B60FDF756F8431C02D1F8
S31508014FF02B6803B1236038BD881500202DE9F041DF
S31508015000074614460D4621B9BDE8F0411146FFF79A
S31508015010BDB82AB9FFF74EF825462846BDE8F081FE
S3150801502000F006F98442064602D8B4EB500FF4D8CC
S3150801503021463846FFF7AAF8804608B94546ECE7FF
S31508015040B4422246294628BF3246FFF725F82946A3
S315080150503846FFF72FF8F1E7242B2DE9F047864666
S31508015060904601D8012B06D1FEF7EAFF1623036005
S315080150700020BDE8F08734480D462A4615F8014B4D
S31508015080065D16F00806F8D12D2C10D12C780126CC
S31508015090951C33F0100215D1302C0DD12A7802F067
S315080150A0DF02582A08D16C78023510230AE02B2C26
S315080150B004BF2C78951CECE7002BF6D1302C14BFD5
S315080150C00A23082306F1004C0CF1FF3C0022BCFB25
S315080150D0F3F9104603FB19CAA4F13007092F0FD8B3
S315080150E03C46A3421BDD571C07D0814514D301D189
S315080150F0A24511DB00FB0340012215F8014BEBE742
S31508015100A4F14107192F01D8373CEAE7A4F1610751
S31508015110192F04D8573CE4E74FF0FF32EDE7531C4B
S3150801512008D12223CEF800306046B8F1000FA0D08E
S31508015130691E06E006B14042B8F1000F99D0002A6F
S31508015140F6D1C8F8001094E73F5B0108FFF784BF62
S315080151502DE9F043344E86460D46284615F8014B8F
S31508015160375D17F00807F8D12D2C10D12C780127B7
S31508015170851C33F0100015D1302C0DD1287800F09C
S31508015180DF00582808D16C78023510230AE02B2C49
S3150801519004BF2C78851CECE7002BF6D1302C14BF04
S315080151A00A2308234FF0FF380026B8FBF3F803FB60
S315080151B008F96FEA09093046A4F1300CBCF1090F68
S315080151C010D86446A3421EDDB6F1FF3F07D08045DD
S315080151D016D301D1A14513DB00FB0340012615F8BF
S315080151E0014BE9E7A4F1410CBCF1190F01D8373C91
S315080151F0E8E7A4F1610CBCF1190F04D8573CE1E7C3
S315080152004FF0FF36EBE7731C06D12223CEF80030A8
S31508015210304632B9BDE8F08307B14042002AF9D0D9
S3150801522006B1691E1160F5E73F5B0108FFF790BFFC
S3150801523051F8043C181F002BBCBF0B58C018704707
S31508015240F8B500BFF8BC08BC9E467047F8B500BF64
S31508015250F8BC08BC9E467047355B0108385B0108F7
S315080152603B5B010825732073656E6420000000000E
S315080152702573207265637620000000004F4B0000FD
S315080152802573202D3E20272573270D0A00000000CF
S315080152907265616479000000556E6B6E6F776E00FA
S315080152A0426F6F746C6F61646572204572726F72BA
S315080152B0212025730D0A000025732D3E25730D0A3D
S315080152C00000000041542B424C45414444523F00E2
S315080152D030303A30303A30303A30303A30303A308D
S315080152E0300000002B424C45414444523A0000002C
S315080152F0302E302E300000000D0A0000424C2044AA
S31508015300415441204552524F52000000415050200D
S3150801531044415441204552524F520000466C617334
S31508015320682070726F6772616D206661696C656469
S3150801533000000000424C2044415441204F4B415942
S31508015340000000004150502044415441204F4B4138
S3150801535059000000424C20444154412000000000FD
S315080153602575202575000000556E6578706563748E
S315080153706564207061636B6574206E756D62657214
S3150801538000000000415050204441544120000000D3
S315080153902B424C45434F4E4E0000000041542B42D0
S315080153A04C45434F4E4E3A302C25730041542B42FF
S315080153B04C45434F4E4E206661696C65640000009A
S315080153C041542B424C455350504346473D312C31AD
S315080153D02C322C312C312C300000000041542B4248
S315080153E04C45535050434647206661696C656400D5
S315080153F041542B424C4553505000000041542B4216
S315080154004C45535050206661696C65640000000084
S31508015410554E4B4E4F574E0057534D20424C204F39
S315080154204B00000057534D20424C2000253135735F
S3150801543020257500424C20444C204552524F5200BB
S315080154404E657720626F6F746C6F61646572207444
S315080154506F6F206C61726765000000004661696CB8
S31508015460656420746F206572617365207365637462
S315080154706F72203600000000424C20444C205245F1
S315080154804144590057534D20415050204F4B00007D
S3150801549057534D20415050200000000041505020E4
S315080154A0444C204552524F52000000004E65772069
S315080154B06170706C69636174696F6E20746F6F20B7
S315080154C06C6172676500000041505020444C2052BF
S315080154D0454144590000000057534D2049442000D6
S315080154E025750000257320626567696E0D0A00003F
