S02B00002E2F77656C6C2D6D6F6E69746F722D322D626F6F746C6F616465725F76616C6964617465642E7372B7
S3150801000000800120BD260108B9250108C12501087E
S31508010010C9250108D1250108D925010800000000D4
S31508010020000000000000000000000000E1250108B2
S31508010030EF25010800000000FD2501080B2601082F
S315080100400D2701080D2701080D2701080D270108AD
S315080100500D2701080D2701080D2701080D2701089D
S315080100600D2701080D2701080D2701080D2701088D
S315080100700D2701080D2701080D2701080D2701087D
S315080100800D2701080D2701080D27010800000000AA
S315080100900000000000000000000000000D27010814
S315080100A00D2701080D2701080D2701080D2701084D
S315080100B00D2701080D2701080D2701080D2701083D
S315080100C00D2701080D2701080D2701080D2701082D
S315080100D00D2701080D27010819260108000000004F
S315080100E00D2701080D2701080D270108000000004A
S315080100F00000000000000000000000000D270108B4
S31508010100000000000D2701080D2701080D27010829
S3150801011000000000000000000000000000000000D0
S315080101200D2701080D2701080D2701080D270108CC
S315080101300D27010800000000000000000000000073
S315080101400000000000000000000000000D27010863
S315080101500D2701080D2701080D2701080D2701089C
S315080101600D2701080D270108000000000000000006
S315080101700000000000000000000000000000000070
S31508010180000000000D270108000000000000000023
S315080101900D27010800000000000000000000000013
S315080101A010B5054C237833B9044B13B10448AFF3A2
S315080101B000800123237010BD7C0000200000000090
S315080101C0B06D010808B5034B1BB103490348AFF3EA
S315080101D0008008BD0000000080000020B06D010805
S315080101E0034613F8012B002AFBD1181A0138704768
S315080101F001F0FF01102A2BDB10F0070F08D010F8C9
S31508010200013B013A8B422DD010F0070F42B3F6D1CC
S31508010210F0B441EA012141EA014122F007047FF0E5
S3150801022000070023F0E80256083C85EA010586EA3C
S31508010230010685FA47F5A3FA87F586FA47F6A5FA78
S3150801024087F68EB9EED1F0BC01F0FF0102F0070284
S3150801025032B110F8013B013A83EA010313B1F8D12F
S315080102600020704701387047002D06BF3546033810
S31508010270073815F0010F07D1013015F4807F02BF49
S31508010280013015F4C03F0130F0BC0138704700BF9A
S3150801029053B94AB9002908BF00281CBF4FF0FF31DE
S315080102A04FF0FF3000F088B9ADF1080C6DE904CEC6
S315080102B000F006F8DDF804E0DDE9022304B0704732
S315080102C02DE9F047089D8E4604468846002B4AD1FB
S315080102D08A42174662D9B2FA82F64EB1C6F12003AE
S315080102E001FA06F820FA03F3B74043EA0808B440CE
S315080102F04FEA174E1FFA87FCB8FBFEF1230C0EFBDB
S31508010300118843EA084301FB0CF29A4209D9FB1802
S3150801031001F1FF3080F0EA809A4240F2E780023923
S315080103203B449A1AA3B2B2FBFEF00EFB102243EA33
S31508010330024300FB0CFC9C4509D9FB1800F1FF326E
S3150801034080F0D6809C4540F2D3803B44023840EA8F
S315080103500140A3EB0C0300211DB1F3400022C5E9BE
S315080103600032BDE8F0878B4205D90DB1C5E9000118
S3150801037000210846F5E7B3FA83F1002946D173450A
S3150801038002D3824200F20581841A6EEB0302012030
S315080103909046002DE5D0C5E90048E2E7002A00F0BD
S315080103A09080B2FA82F6002E40F0A4808A1A030CD5
S315080103B04FEA174E80B2BCB20121B2FBFEFC0EFB1E
S315080103C01C2243EA024304FB0CF29A4207D9FB18A2
S315080103D00CF1FF3802D29A4200F2E080C4469B1A19
S315080103E0B3FBFEF20EFB123340EA034302FB04F4AD
S315080103F09C4207D9FB1802F1FF3002D29C4200F257
S31508010400CA8002461B1B42EA0C40A5E7C1F1200639
S315080104108B4022FA06F71F430EFA01F420FA06F377
S315080104202EFA06FE4FEA1749234300FA01F81FFA86
S3150801043087FCBEFBF9F01C0C09FB10EE44EA0E44DE
S3150801044000FB0CFEA64502FA01F209D93C1900F196
S31508010450FF3A80F09C80A64540F2998002383C44D8
S31508010460A4EB0E041FFA83FEB4FBF9F309FB13444C
S315080104704EEA044403FB0CFCA44508D93C1903F1D4
S31508010480FF3E80F08280A4457FD9023B3C4443EA83
S315080104900040A4EB0C04A0FB02EC64457346E1465C
S315080104A062D35FD05DB1B8EB030264EB090404FAC9
S315080104B006F622FA01F31E43CC40C5E90064002181
S315080104C04FE7B1FBF2FC010C41EA0E4180B240EA6A
S315080104D001423B4638463C46B846BE462026B1FB55
S315080104E0F7F1A2EB080241EA0C4166E7014618E773
S315080104F010462CE7C6F120022EFA02F3B740B140A6
S3150801050020FA02F24FEA174E0A43B3FBFEF8BCB2D1
S315080105100EFB1833110C41EA034108FB04F9B040FC
S3150801052089454FEA104380B23ED9791808F1FF3C54
S3150801053001D289451FD8A1EB0901B1FBFEF909FBD7
S3150801054004F80EFB191192B242EA0142424529D238
S31508010550BA1809F1FF31C4D24245C2D2A9F1020142
S315080105603A44BEE7F0459DD2BEEB02036CEB070C9D
S315080105700138E14696E7A7EB09094944A8F1020CB7
S31508010580B1FBFEF909FB04F8DBE773467FE7504642
S3150801059066E70846FDE63B44023A33E7ACF1020C4E
S315080105A03B441CE749469CE7A1EB0901C446B1FB5C
S315080105B0FEF909FB04F8C4E7704700BF90B5CBB054
S315080105C000AF07F59474A4F58E74206007F594704E
S315080105D0A0F590700160114607F59472A2F5947220
S315080105E0136007F59473A3F591730A461A800023DD
S315080105F0A7F8263107F59473A3F58E731B68002BAC
S3150801060001D10123FDE007F59473A3F58E731868EC
S31508010610FFF7E6FD0346A7F82431B7F82431FA2B8C
S3150801062001D90123EDE0B7F8242107F59473A3F561
S315080106308E7307F11800196805F0F2FAB7F8243134
S315080106405A1CA7F824211A4607F59473A3F588734B
S315080106500D219954B7F824315A1CA7F824211A46B2
S3150801066007F59473A3F588730A2199544FF4807298
S315080106700021664805F064FA654B00221A8007F5E1
S315080106809473A3F59473B7F8242107F118011B682D
S31508010690604803F0A5FF034687F8233197F823310D
S315080106A0002B01D00123ACE002F098F8C7F81C0131
S315080106B00023A7F8263130E007F117016423012248
S315080106C0544804F018F8034687F8233197F823317C
S315080106D0002B22D1B7F82631FE2B2CD8B7F82631B4
S315080106E05A1CA7F826211A4607F59473A3F2111383
S315080106F01978464B9954B7F82631012B0DD9B7F815
S315080107002631023B414AD35C0D2B06D1B7F8263177
S31508010710013B3E4AD35C0A2B0FD002F05FF8024632
S31508010720D7F81C31D31A07F59472A2F59472126898
S315080107309A42C1D802E000BF00E000BFB7F82631EF
S31508010740324A0021D154324AB7F82631138007F5C7
S315080107509473A3F590731B68002B38D007F594732F
S31508010760A3F591731B88002B31D0294B1B889BB2AB
S31508010770002B2CD0264B1B889BB21A4607F594737F
S31508010780A3F591731B88013B9A4207DB07F594731E
S31508010790A3F591731B88013B9BB202E01C4B1B8896
S315080107A09BB2A7F81A31B7F81A2107F59473A3F57E
S315080107B090731649186805F033FAB7F81A3107F530
S315080107C09472A2F590721268134400221A701249A3
S315080107D00E4805F0E2F90346002B01D0002310E08C
S315080107E00E490A4805F0D9F90346002B01D0012321
S315080107F007E0074B1B889BB2002B01D0002300E0C2
S315080108000223184607F59677BD4690BD9800002045
S3150801081098010020B8130020C86D0108CC6D0108A5
S3150801082080B400AFBFF34F8F00BF064BDB6803F4FC
S31508010830E0620449044B1343CB60BFF34F8F00BFFB
S3150801084000BFFDE700ED00E00400FA0580B5A4B09D
S3150801085000AF78607B68002B01D07B6800E00D4B08
S3150801086007F10C000C4A802105F0F6F80346C7F893
S315080108708C30D7F88C309AB207F10C014FF47A73A1
S31508010880064803F0ADFE642001F0B4FF72B600BF5E
S31508010890FFF7C6FF346E01083C6E0108B813002045
S315080108A080B500AF00224FF40051044802F0F2FF70
S315080108B0642001F09FFF00BF80BD00BF0004024015
S315080108C080B500AF00224FF48041084802F0E2FFEC
S315080108D0642001F08FFF01224FF48041034802F0A2
S315080108E0D9FF642001F086FF00BF80BD00040240E5
S315080108F080B58EB000AF786001F070FF38630023D1
S31508010900FB8625E007F10F0132230122174803F080
S31508010910F2FE0346002B1BD1FB8E1E2B18D8FB8E2D
S315080109205A1CFA86FA7B38333B4403F8282CFB8E8B
S3150801093038333B44002203F8282C07F110030C49ED
S31508010940184605F02AF90346002B01D0012308E0D1
S3150801095001F044FF02463B6BD31A7A689A42D1D812
S31508010960002318463837BD4680BD00BFB81300209E
S31508010970546E010880B485B000AF78603960154BB4
S31508010980BB603B68082B1ED90023FB600BE0FB68A4
S315080109901833BA681A447968FB680B4412781A70D6
S315080109A0FB680133FB60FB68072B06D8FB68183325
S315080109B0BA6813441B78002BE9D17A68FB6813449B
S315080109C000221A7000E000BF1437BD465DF8047BAB
S315080109D0704700BF7875010880B584B000AF7860AC
S315080109E039607B68FB600EE0FB68BB6008220C4936
S315080109F0B86805F095F80346002B01D1BB680BE0F2
S31508010A00FB680833FB60FB6803F1580279683B68A9
S31508010A100B449A42E8D9002318461037BD4680BDD3
S31508010A205072010880B584B000AF786039604FF420
S31508010A3000311B48FFF7D0FFB860BB68002B1ED0FA
S31508010A400023FB600BE0FB681833BA681A4479681F
S31508010A50FB680B4412781A70FB680133FB60FB686C
S31508010A60072B06D8FB681833BA6813441B78002B82
S31508010A70E9D17A68FB68134400221A700CE03B68D6
S31508010A80013B1A460749786805F074F83B68013B4B
S31508010A907A68134400221A7000BF1037BD4680BD1C
S31508010AA0000006085C6E010880B485B000AF0346F5
S31508010AB0FB710F4B1B88B3F5805F12D20D4B1A8859
S31508010AC00B4B1B8813449BB2C3F30B03FB81FB89B6
S31508010AD00949FA79CA54064B1B8801339AB2044B61
S31508010AE01A8000BF1437BD465DF8047B704700BF06
S31508010AF09E1100209C1100209C01002080B483B027
S31508010B0000AF37E0214B1B881A46214B9B5CFB71D2
S31508010B101E4B1B8801335A42C3F30B03C2F30B0264
S31508010B2058BF53429AB2194B1A801A4B1B88013B7C
S31508010B309AB2184B1A80FB790A2B0AD1164B1B88D5
S31508010B401A46164B00219954134B00221A80012389
S31508010B5015E0FB790D2B0DD00F4B1B887E2B09D881
S31508010B600D4B1B885A1C91B20B4A118019460B4A28
S31508010B70FB795354074B1B88002BC3D10023184616
S31508010B800C37BD465DF8047B704700BF9C110020F9
S31508010B909C0100209E11002020120020A011002097
S31508010BA080B584B000AF78607868FFF719FBF86004
S31508010BB0FB689AB24FF4FA637968074803F010FDA7
S31508010BC04FF4FA7302220549034803F009FD00BFF1
S31508010BD01037BD4680BD00BFB8130020646E0108FA
S31508010BE080B582B000AF7860114B1B78002B03D01B
S31508010BF0786800F021F816E00E4B1B780B2B03D111
S31508010C00786800F095F80EE00A4B1B78072B03D19C
S31508010C10786800F011F806E0064B1B780A2B02D11A
S31508010C20786800F085F8012318460837BD4680BD67
S31508010C302E1200209A01002080B588B000AF786096
S31508010C402F4B1B78072B57D109222E49786804F0B8
S31508010C507FFF0346002B03D1294B09221A704BE06B
S31508010C6007222949786804F073FF0346002B43D10C
S31508010C700023BB6107F1080300221A605A609A60D3
S31508010C80DA607B68D81D07F1180307F108021F49C6
S31508010C9004F018FFF861FB69012B2DDDBB69002BF8
S31508010CA02AD0BB69B3F5003F05D91948FFF778FF84
S31508010CB01848FFF7CBFD062000F094FD034683F0A4
S31508010CC00103DBB2002B05D01148FFF769FF124873
S31508010CD0FFF7BCFD1148FFF763FFBB69104A1360B4
S31508010CE0104B00221A60104B00221A800F4B01226A
S31508010CF01A70034B08221A702037BD4680BD00BF03
S31508010D009A010020686E0108746E01087C6E01085C
S31508010D10846E0108906E0108AC6E0108C86E010860
S31508010D2024120020281200202C1200202E12002046
S31508010D3080B588B000AF7860304B1B780A2B59D143
S31508010D400A222F49786804F003FF0346002B04D1D1
S31508010D50642001F04FFDFFF763FD082229497868F1
S31508010D6004F0F6FE0346002B44D10023BB6107F1CC
S31508010D70080300221A605A609A60DA607B6803F1F8
S31508010D80080007F1180307F108021F4904F09AFE43
S31508010D90F861FB69012B2DDDBB69002B2AD0BB69E4
S31508010DA0B3F5003F05D91948FFF7FAFE1848FFF7CA
S31508010DB04DFD062000F016FD034683F00103DBB264
S31508010DC0002B05D01148FFF7EBFE1248FFF73EFD51
S31508010DD01148FFF7E5FEBB69104A1360104B002264
S31508010DE01A60104B00221A800F4B00221A70034B0F
S31508010DF00B221A702037BD4680BD00BF9A0100201C
S31508010E00D46E0108E06E01087C6E0108EC6E0108DB
S31508010E10FC6E0108AC6E0108186F01082412002047
S31508010E20281200202C1200202E12002080B500AFB7
S31508010E30164B1B88002B27D0154B1B68134A1288A3
S31508010E401449184600F071FD034683F00103DBB22D
S31508010E50002B0DD0104B1B78002B03D00F48FFF742
S31508010E609FFE02E00E48FFF79BFE0E48FFF7EEFCD9
S31508010E70064B1B881A46064B1B681344044A136023
S31508010E80024B00221A8000E000BF80BD3813002003
S31508010E9028120020381200202E120020286F01087F
S31508010EA0386F0108486F010880B582B000AF374B2B
S31508010EB01B68002B63D057E0354B1B881A46354B08
S31508010EC09B5CFB71324B1B8801335A42C3F30B03FC
S31508010ED0C2F30B0258BF53429AB22D4B1A802E4BBE
S31508010EE01B88013B9AB22C4B1A802C4B1B885A1C27
S31508010EF091B22A4A11801946294AFB795354294B3A
S31508010F001B680133274A1360244B1B88FF2B01D921
S31508010F10FFF78CFF234B1A681C4B1B689A4223D395
S31508010F20FFF784FF204B1B78002B03D01F48FFF7E0
S31508010F3037FE02E01E48FFF733FE1E4B1B880133BE
S31508010F409AB21C4B1A80114B00221A60154B0022CB
S31508010F501A60194B1A68194B1B689A4211D36420F7
S31508010F6001F048FCFFF75CFC0B4B1B88002B09D0F2
S31508010F700C4B1A68054B1B689A429DD302E000BFC9
S31508010F8000E000BF0837BD4680BD00BF3012002013
S31508010F909C1100209C0100209E110020381300207E
S31508010FA038120020341200202E120020606F01082A
S31508010FB0706F01082C12002028120020241200202C
S31508010FC080B586B000AF786008222949786804F0B0
S31508010FD0BFFD0346002B20D17B6803F1080007F10A
S31508010FE0100307F11402234904F06CFD0346022B92
S31508010FF03BD1214B1B881A467B699A4206D01F486A
S31508011000FFF7CEFD1E48FFF721FC2EE03B691D4A7E
S3150801101013601D4B00221A6027E009221B497868D4
S3150801102004F096FD0346002B1FD17B6803F10900E6
S3150801103007F1080307F10C020E4904F043FD0346C4
S31508011040022B12D10C4B1B881A46FB689A4206D012
S315080110500F48FFF7A5FD0A48FFF7F8FB05E0BB684F
S31508011060084A1360084B00221A601837BD4680BD2E
S31508011070806F01088C6F01082C120020286F010867
S31508011080946F01083012002034120020B06F010855
S31508011090386F010880B582B000AFFFF705FF20E081
S315080110A0154B7B60154B1B78082B03D0134B1B780C
S315080110B00B2B13D108221249786804F049FD03461F
S315080110C0002B07D009220F49786804F041FD034631
S315080110D0002B03D17868FFF773FF08E07868FFF7FC
S315080110E07FFDFFF70BFD0346002BD9D100BF00BFDB
S315080110F00837BD4680BD00BFA01100209A01002017
S31508011100806F0108B06F010880B592B000AF3B1D32
S3150801111000221A605A609A60DA601A617A4B0022D4
S315080111201A807A4B00221A80794B00221A80794B51
S3150801113000221A60784B00221A60784B00221A7036
S3150801114001237B600123BB600023FB6003233B6112
S315080111503B1D1946724802F00BF90022012170481D
S3150801116002F098FB0A2001F045FB0223BB60072326
S315080111707B613B1D19466A4802F0FAF8FFF790FBB6
S31508011180FFF79EFBC82001F035FB664B1B68DA6842
S31508011190644B1B6822F40052DA60624B1B681433F5
S315080111A03B633B6B53E8003FFB62FB6A23F4007326
S315080111B07B645C4B1B6814337A6CFA63BB63B96B4B
S315080111C0FA6B41E800237B637B6B002BE5D1554B1A
S315080111D09B6923F40073534A9361524B1B68DA687F
S315080111E0504B1B6842F40052DA6040F6B830FFF7FC
S315080111F07FFB034683F00103DBB2002B02D04A488A
S31508011200FFF724FB41F28833002200214748FFF704
S31508011210D5F90346002B02D04548FFF717FB4FF4D3
S31508011220FA7001F0E7FA4FF4FA6300220021414807
S31508011230FFF7C4F90346002B02D03F48FFF706FB28
S31508011240384B1B68DA68374B1B6822F40052DA60A0
S31508011250344B1B681433FB61FB6953E8003FBB61E0
S31508011260BB6943F400733B642E4B1B6814333A6C19
S31508011270BA627B62796ABA6A41E800233B623B6AD1
S31508011280002BE5D1274B9B6943F40073254A9361EB
S31508011290244B1B68DA68234B1B6842F40052DA6058
S315080112A04FF4FA63002200212448FFF787F9034621
S315080112B0002B02D02248FFF7C9FA4FF4FA6300223D
S315080112C000212048FFF77AF90346002B02D01E4871
S315080112D0FFF7BCFA4FF4FA63002200211B48FFF717
S315080112E06DF90346002B02D01948FFF7AFFA0B4BED
S315080112F005221A70012217490A4803F093FA00BF1A
S315080113004837BD4680BD00BF9C1100209E110020B4
S315080113102012002030120020341200209A010020E9
S3150801132000000240B8130020BC6F0108D46F010801
S31508011330E06F0108F46F01081070010824700108B4
S315080113403470010848700108687001087C7001084A
S315080113508C7001082F12002080B582B000AF78602A
S315080113607B681B68084A934209D1084B1B781846C3
S31508011370FFF79AFB01220549054803F053FA00BF16
S315080113800837BD4680BD00BF004400402F1200202B
S31508011390B813002080B598B000AF364B1B78052BE3
S315080113A030D1354B1B68002B04D101F017FA0346DF
S315080113B0314A136001F012FA02462F4B1B68D31A01
S315080113C042F2107293421AD92C4803F051FA4FF49B
S315080113D0FA63002200212A48FFF7F0F80346002B9A
S315080113E002D02848FFF732FA01222749234803F099
S315080113F019FA204B06221A701F4B00221A60FFF7B2
S3150801140049FE33E01B4B1B78062B14D107F1500319
S3150801141010211846FFF7AEFA07F1500338461B4A62
S31508011420402104F019FB3B461846FFF7B9FB114B5F
S3150801143007221A701AE00F4B1B78092B14D107F1F2
S31508011440400310211846FFF7EDFA07F14003384625
S315080114500F4A402104F000FB3B461846FFF7A0FB64
S31508011460044B0A221A7001E0FFF714FE6037BD46E5
S3150801147080BD00BF9A0100203C130020B81300204C
S31508011480A4700108B07001082F120020C470010869
S31508011490D070010880B400AFBFF34F8F00BF064B71
S315080114A0DB6803F4E0620449044B1343CB60BFF3E2
S315080114B04F8F00BF00BFFDE700ED00E00400FA050D
S315080114C080B582B000AF786008220D49786804F0CB
S315080114D027FB0346002B0BD17B68083308220949F1
S315080114E0184604F01DFB0346002B01D1012300E039
S315080114F0002303F00103DBB218460837BD4680BD59
S31508011500587201086072010880B483B000AF786030
S315080115107B6824331B781A467B6825331B781B02A4
S315080115201A437B6826331B781B041A437B682733C7
S315080115301B781B06134318460C37BD465DF8047B1A
S315080115407047000080B582B000AF78607B682833A9
S3150801155008220749184604F0E3FA0346002B0CBF94
S3150801156001230023DBB218460837BD4680BD00BFFC
S315080115706872010880B582B000AF78607B6828334D
S3150801158008220D49184604F0CBFA0346002B0BD165
S315080115907B68303308220949184604F0C1FA034624
S315080115A0002B01D1012300E0002303F00103DBB284
S315080115B018460837BD4680BD707201087872010861
S315080115C080B5AAB000AFF860B9607A60BB68303BF5
S315080115D0C7F8A43007F11003184600F07DFDF96835
S315080115E007F11003D7F8A420184600F0B1FD07F15A
S315080115F0100308221149184600F0AAFD07F1100345
S3150801160008220F49184600F0A3FD07F1840207F1E5
S3150801161010031146184600F0D3FD07F18403202272
S315080116207968184604F07CFA0346002B0CBF01239F
S315080116300023DBB21846A837BD4680BD687201088B
S315080116407872010880B58EB000AFF860B9607A602B
S31508011650BB68203B7B63FB6807F11402796B18466C
S3150801166000F0E2FE07F1140320227968184604F017
S3150801167057FA0346002B0CBF01230023DBB2184699
S315080116803837BD4680BD80B584B000AF7860396013
S315080116907B68FB600CE0FB68BB60B868FFF710FF6E
S315080116A00346002B01D0BB680BE0FB680833FB60DF
S315080116B0FB6803F1580279683B680B449A42EAD9F8
S315080116C0002318461037BD4680BD80B586B000AFE9
S315080116D078607B681B687B617B6804331B683B61A8
S315080116E072B600BF7B69FB60FB6883F3088800BF9D
S315080116F03B69984700BF1837BD4680BD80B588B09D
S3150801170000AF364BFB61364BBB614FF400337B614F
S315080117107969F869FFF7B7FF38613B69002B25D06E
S315080117203869FFF7F1FEF860FB68572B1ED9FA688E
S315080117307B699A421AD8FA69FB681344A3F15802DD
S315080117403B699A4212D13869FFF7FCFE0346002B22
S315080117500CD03B693833BB60BA68F968F869FFF79A
S315080117602FFF0346002B01D0FFF794FE7969B8696C
S31508011770FFF789FF38613B69002B29D03869FFF7E4
S31508011780C3FEF860FB68572B22D9FA687B699A422F
S315080117901ED8BA69FB681344A3F158023B699A42F9
S315080117A016D13869FFF7E6FE0346002B10D03B69D0
S315080117B03833BB60BA68F968B869FFF743FF03466F
S315080117C0002B05D0BB697B607868FFF77EFF01E0D7
S315080117D0FFF79AFC2037BD4680BD00BF000004080C
S315080117E00000060880B588B000AF78600023BB60AA
S315080117F07B68072B01D900231BE001F055FA00236A
S31508011800FB600223FB617B687B610123BB6107F1F6
S31508011810080207F10C031146184601F023FC03469A
S31508011820002B03D001F062FA002302E001F05EFA10
S31508011830012318462037BD4680BD2DE9B0438CB03B
S3150801184000AFF860B9607A60FB68BB62BB687B620F
S315080118507B689B083B627B6803F00303FB61FB68BB
S3150801186003F00303002B01D0002359E001F01CFA11
S315080118700023FB621AE0FB6A9B007A6A13441B6821
S3150801188000229846914642464B46B96A022001F023
S31508011890A7F90346002B03D001F028FA00233FE0FD
S315080118A0BB6A0433BB62FB6A0133FB62FA6A3B6AB1
S315080118B09A42E0D3FB69002B2FD000233B6107F145
S315080118C01003BB613B6A9B00BA6813447B61BB6A20
S315080118D01B683B610023FB620AE07A69FB6A1A44CA
S315080118E0B969FB6A0B4412781A70FB6A0133FB6209
S315080118F0FA6AFB699A42F0D33B6900221C461546EF
S3150801190022462B46B96A022001F06AF90346002BE2
S3150801191003D001F0EBF9002302E001F0E7F9012316
S3150801192018463037BD46BDE8B08380B586B000AFEE
S31508011930F860B9607A60FB6803F1006303F58023F8
S315080119407B617B6903F00303002B01D000230DE0C3
S31508011950FA687B681344B3F5003F01D9002305E013
S315080119607A68B9687869FFF768FF03461846183731
S31508011970BD4680BD80B500AF00F0CAFE00F010F884
S3150801198000F0CCF800F0A0F800F074F8FFF7B6FE06
S31508011990FFF700FD0A2000F02DFF00BFF8E7000061
S315080119A080B594B000AF07F1200330220021184614
S315080119B004F0C6F807F10C0300221A605A609A600F
S315080119C0DA601A610023BB60284B1B6C274A43F077
S315080119D080531364254B1B6C03F08053BB60BB68B3
S315080119E000237B60224B1B6823F44043204A43F4BF
S315080119F0004313601E4B1B6803F440437B607B68FE
S31508011A0001233B624FF480337B620223BB634FF4AD
S31508011A108003FB630C233B6448237B640223BB647A
S31508011A200423FB6407F12003184601F05FFF034610
S31508011A30002B01D000F034F90F23FB6002233B6130
S31508011A4000237B614FF48053BB610023FB6107F1DF
S31508011A500C030221184602F075FA0346002B01D041
S31508011A6000F01EF900BF5037BD4680BD0038024060
S31508011A700070004080B500AF114B124A1A60104B36
S31508011A804FF4E1325A600E4B00229A600C4B002249
S31508011A90DA600B4B00221A61094B0C225A61084B7A
S31508011AA04FF440729A61064B0022DA61044802F04B
S31508011AB0D1FC0346002B01D000F0F2F800BF80BD2F
S31508011AC0401300200010014080B500AF114B124AA7
S31508011AD01A60104B4FF4E1325A600E4B00229A609D
S31508011AE00C4B0022DA600B4B00221A61094B0C22BF
S31508011AF05A61084B4FF440729A61064B0022DA612B
S31508011B00044802F0A7FC0346002B01D000F0C8F8F0
S31508011B1000BF80BDB81300200044004080B58AB0DC
S31508011B2000AF07F1140300221A605A609A60DA605E
S31508011B301A6100233B61554B1B6B544A43F004035E
S31508011B401363524B1B6B03F004033B613B69002390
S31508011B50FB604E4B1B6B4D4A43F0800313634B4BA3
S31508011B601B6B03F08003FB60FB680023BB60474BDC
S31508011B701B6B464A43F001031363444B1B6B03F08B
S31508011B800103BB60BB6800237B60404B1B6B3F4A6C
S31508011B9043F0020313633D4B1B6B03F002037B60A7
S31508011BA07B6800233B60394B1B6B384A43F00803BB
S31508011BB01363364B1B6B03F008033B603B6800223B
S31508011BC04FF40051324801F065FE01224FF480417D
S31508011BD02F4801F05FFE00224FF480512D4801F095
S31508011BE059FE42F6FF737B610323BB610023FB6148
S31508011BF007F114031946274801F0BAFB48F2F01316
S31508011C007B610323BB610023FB6107F114031946BA
S31508011C10214801F0ADFB49F2FF737B610323BB61E8
S31508011C200023FB6107F114031946194801F0A0FBCB
S31508011C304FF4C0437B610123BB610023FB61002391
S31508011C403B6207F114031946114801F091FB4FF461
S31508011C5080537B610123BB610023FB6100233B6247
S31508011C6007F1140319460B4801F082FB04237B6133
S31508011C700323BB610023FB6107F1140319460748D7
S31508011C8001F076FB00BF2837BD4680BD003802400B
S31508011C90000402400008024000000240000C024015
S31508011CA080B400AF72B600BF00BFFDE780B483B051
S31508011CB000AF7860396000BF0C37BD465DF8047B1C
S31508011CC07047000080B4CFB000AF07F59C73A3F549
S31508011CD09A73186007F59C73A3F59C731960002322
S31508011CE0C7F814310023C7F810313FE007F59C7394
S31508011CF0A3F59C731A68D7F8103113441B781A0692
S31508011D00D7F81031013307F59C71A1F59C71096863
S31508011D100B441B781B041A43D7F81031023307F515
S31508011D209C71A1F59C7109680B441B781B0213432E
S31508011D30D7F81021033207F59C71A1F59C71096842
S31508011D400A4412781343194607F59C73A3F5987349
S31508011D50D7F8142143F82210D7F814310133C7F8FC
S31508011D601431D7F810310433C7F81031D7F81431C4
S31508011D700F2BBBD969E0D7F814319A1E07F59C7366
S31508011D80A3F5987353F822304FEA7342D7F8143102
S31508011D90991E07F59C73A3F5987353F821304FEAFA
S31508011DA0F3435A40D7F81431991E07F59C73A3F5E6
S31508011DB0987353F821309B0A5A40D7F81431D91F22
S31508011DC007F59C73A3F5987353F821301A44D7F88D
S31508011DD01431A3F10F0107F59C73A3F5987353F812
S31508011DE021304FEAF311D7F81431A3F10F0007F5A3
S31508011DF09C73A3F5987353F820304FEAB3435940BF
S31508011E00D7F81431A3F10F0007F59C73A3F598735E
S31508011E1053F82030DB084B401A44D7F81431A3F1A4
S31508011E20100107F59C73A3F5987353F82130D1185F
S31508011E3007F59C73A3F59873D7F8142143F8221074
S31508011E40D7F814310133C7F81431D7F814313F2BB9
S31508011E5091D907F59C73A3F59A731B681B6DC7F88F
S31508011E60343107F59C73A3F59A731B685B6DC7F844
S31508011E70303107F59C73A3F59A731B689B6DC7F8F8
S31508011E802C3107F59C73A3F59A731B68DB6DC7F8AC
S31508011E90283107F59C73A3F59A731B681B6EC7F85F
S31508011EA0243107F59C73A3F59A731B685B6EC7F813
S31508011EB0203107F59C73A3F59A731B689B6EC7F8C7
S31508011EC01C3107F59C73A3F59A731B68DB6EC7F87B
S31508011ED018310023C7F8143178E0D7F824314FEACE
S31508011EE0B312D7F824314FEAF3235A40D7F82431ED
S31508011EF04FEA73635A40D7F818311A44D7F82411B0
S31508011F00D7F820311940D7F82431D843D7F81C31EE
S31508011F1003404B401A446F49D7F8143151F823301E
S31508011F201A4407F59C73A3F59873D7F8141153F857
S31508011F3021301344C7F80C31D7F834314FEAB302CC
S31508011F40D7F834314FEA73335A40D7F834314FEA68
S31508011F50B3535A40D7F83011D7F82C315940D7F82E
S31508011F6034311940D7F83001D7F82C3103404B40AA
S31508011F701344C7F80831D7F81C31C7F81831D7F810
S31508011F802031C7F81C31D7F82431C7F82031D7F8E2
S31508011F902821D7F80C311344C7F82431D7F82C3146
S31508011FA0C7F82831D7F83031C7F82C31D7F834318A
S31508011FB0C7F83031D7F80C21D7F808311344C7F8D8
S31508011FC03431D7F814310133C7F81431D7F814313D
S31508011FD03F2B82D907F59C73A3F59A731B681A6D73
S31508011FE0D7F834311A4407F59C73A3F59A731B681D
S31508011FF01A6507F59C73A3F59A731B685A6DD7F88A
S3150801200030311A4407F59C73A3F59A731B685A6510
S3150801201007F59C73A3F59A731B689A6DD7F82C314B
S315080120201A4407F59C73A3F59A731B689A6507F515
S315080120309C73A3F59A731B68DA6DD7F828311A448D
S3150801204007F59C73A3F59A731B68DA6507F59C7304
S31508012050A3F59A731B681A6ED7F824311A4407F543
S315080120609C73A3F59A731B681A6607F59C73A3F507
S315080120709A731B685A6ED7F820311A4407F59C7370
S31508012080A3F59A731B685A6607F59C73A3F59A73A9
S315080120901B689A6ED7F81C311A4407F59C73A3F589
S315080120A09A731B689A6607F59C73A3F59A731B685E
S315080120B0DA6ED7F818311A4407F59C73A3F59A73A3
S315080120C01B68DA6600BF07F59E77BD465DF8047B97
S315080120D0704700BF8072010880B483B000AF786092
S315080120E07B6800221A6479684FF000024FF00003FA
S315080120F0C1E912237B680E4A1A657B680D4A5A653F
S315080121007B680D4A9A657B680C4ADA657B680C4AD6
S315080121101A667B680B4A5A667B680B4A9A667B681D
S315080121200A4ADA6600BF0C37BD465DF8047B70477C
S3150801213067E6096A85AE67BB72F36E3C3AF54FA549
S315080121407F520E518C68059BABD9831F19CDE05B75
S31508012150B0B586B000AFF860B9607A6000237B61DC
S3150801216025E0BA687B691A44FB681B6C1178FA6822
S31508012170D154FB681B6C5A1CFB681A64FB681B6C00
S31508012180402B11D1FB681946F868FFF79BFDFB68E0
S31508012190D3E9122312F5007443F10005FB68C3E97C
S315080121A01245FB6800221A647B6901337B617A69EF
S315080121B07B689A42D5D300BF00BF1837BD46B0BD6C
S315080121C02DE9B04384B000AF786039607B681B6C39
S315080121D0FB607B681B6C372B10D8FB685A1CFA60AE
S315080121E07A688021D15405E0FB685A1CFA607A683E
S315080121F00021D154FB68372BF6D91AE0FB685A1C23
S31508012200FA607A688021D15405E0FB685A1CFA60A5
S315080122107A680021D154FB683F2BF6D97B681946A9
S315080122207868FFF74FFD7B6838220021184603F0CE
S3150801223087FC7B68D3E912237968096CC9000020F9
S315080122400C46054612EB040843EB05097B68C3E90E
S3150801225012897B68D3E91223D2B27B6883F83F20BF
S315080122607B68D3E912014FF000024FF00003020A1E
S3150801227042EA01620B0AD2B27B6883F83E207B6888
S31508012280D3E912014FF000024FF00003020C42EAB3
S3150801229001420B0CD2B27B6883F83D207B68D3E9F7
S315080122A012014FF000024FF00003020E42EA01222A
S315080122B00B0ED2B27B6883F83C207B68D3E9120106
S315080122C04FF000024FF000030A000023D2B27B68E8
S315080122D083F83B207B68D3E912014FF000024FF0E7
S315080122E000030A0A0023D2B27B6883F83A207B6886
S315080122F0D3E912014FF000024FF000030A0C002344
S31508012300D2B27B6883F839207B68D3E912014FF092
S3150801231000024FF000030A0E0023D2B27B6883F84D
S3150801232038207B6819467868FFF7CCFC0023FB60E8
S3150801233071E07B681A6DFB68C3F10303DB0022FABF
S3150801234003F13A68FB681344CAB21A707B685A6D7E
S31508012350FB68C3F10303DB0022FA03F1FB680433CC
S315080123603A681344CAB21A707B689A6DFB68C3F15E
S315080123700303DB0022FA03F1FB6808333A681344C6
S31508012380CAB21A707B68DA6DFB68C3F10303DB0016
S3150801239022FA03F1FB680C333A681344CAB21A707D
S315080123A07B681A6EFB68C3F10303DB0022FA03F1AB
S315080123B0FB6810333A681344CAB21A707B685A6EBE
S315080123C0FB68C3F10303DB0022FA03F1FB6814334C
S315080123D03A681344CAB21A707B689A6EFB68C3F1ED
S315080123E00303DB0022FA03F1FB6818333A68134446
S315080123F0CAB21A707B68DA6EFB68C3F10303DB00A5
S3150801240022FA03F1FB681C333A681344CAB21A70FC
S31508012410FB680133FB60FB68032B8AD900BF00BF49
S315080124201037BD46BDE8B08380B5A0B000AFF860EF
S31508012430B9607A6007F110031846FFF74DFE07F1F8
S315080124401003BA68F9681846FFF782FE07F1100308
S3150801245079681846FFF7B4FE00BF8037BD4680BDD0
S3150801246080B483B000AF00237B60104B5B6C0F4ACE
S3150801247043F4804353640D4B5B6C03F480437B60E8
S315080124807B6800233B60094B1B6C084A43F0805369
S315080124901364064B1B6C03F080533B603B6800BF1B
S315080124A00C37BD465DF8047B704700BF0038024013
S315080124B080B58CB000AF786007F11C0300221A6062
S315080124C05A609A60DA601A617B681B68364A9342D9
S315080124D02DD10023BB61354B5B6C344A43F01003A5
S315080124E05364324B5B6C03F01003BB61BB69002379
S315080124F07B612E4B1B6B2D4A43F0010313632B4B58
S315080125001B6B03F001037B617B694FF4F053FB619D
S3150801251002233B6200237B620323BB620723FB6220
S3150801252007F11C031946224800F022FF38E07B68B0
S315080125301B68204A934233D100233B611B4B1B6C1A
S315080125401A4A43F400331364184B1B6C03F4003323
S315080125503B613B690023FB60144B1B6B134A43F039
S3150801256001031363114B1B6B03F00103FB60FB684B
S315080125700F23FB6102233B6200237B620323BB62B9
S315080125800723FB6207F11C031946094800F0F0FE10
S3150801259000220021262000F041FA262000F06AFADE
S315080125A000BF3037BD4680BD0010014000380240EB
S315080125B0000002400044004080B400AF00BFFDE7C0
S315080125C080B400AF00BFFDE780B400AF00BFFDE7F0
S315080125D080B400AF00BFFDE780B400AF00BFFDE7E0
S315080125E080B400AF00BFBD465DF8047B704780B478
S315080125F000AF00BFBD465DF8047B704780B400AFED
S3150801260000BFBD465DF8047B704780B500AF00F09A
S31508012610D1F800BF80BD000080B500AF024802F0C6
S31508012620DBF900BF80BD00BFB813002080B586B0B6
S3150801263000AF7860144A154BD31A7B617B693B61FD
S31508012640134B1B68002B02D1114B124A1A60104B0F
S315080126501A687B6813443A699A4207D203F0B4FAB6
S3150801266003460C221A604FF0FF3309E0084B1B683A
S31508012670FB60074B1A687B681344054A1360FB68BD
S3150801268018461837BD4680BD0080012000040000A9
S31508012690301400208015002080B400AF064BD3F813
S315080126A08830054A43F47003C2F8883000BFBD4636
S315080126B05DF8047B704700BF00ED00E0DFF834D019
S315080126C0FFF7EAFF0C480D490D4A002302E0D458EA
S315080126D0C4500433C4188C42F9D30A4A0A4C00235D
S315080126E001E013600432A242FBD303F073FAFFF749
S315080126F041F9704700800120000000207C0000207D
S31508012700F87401087C00002080150020FEE700000F
S3150801271080B500AF0E4B1B680D4A43F40073136076
S315080127200B4B1B680A4A43F480631360084B1B680A
S31508012730074A43F480731360032000F04FF90F2012
S3150801274000F008F8FFF78CFE0023184680BD00BF8D
S31508012750003C024080B582B000AF7860124B1A681F
S31508012760124B1B7819464FF47A73B3FBF1F3B2FB9C
S31508012770F3F3184600F096F90346002B01D001231E
S315080127800EE07B680F2B0AD8002279684FF0FF30DC
S3150801279000F044F9064A7B681360002300E0012330
S315080127A018460837BD4680BD0000002008000020F5
S315080127B00400002080B400AF064B1B781A46064B6E
S315080127C01B681344044A136000BFBD465DF8047BC9
S315080127D0704700BF080000203414002080B400AF01
S315080127E0034B1B681846BD465DF8047B704700BF5E
S315080127F03414002080B584B000AF7860FFF7EEFF8F
S31508012800B8607B68FB60FB68B3F1FF3F05D00A4BF4
S315080128101B781A46FB681344FB6000BFFFF7DEFF0F
S315080128200246BB68D31AFA689A42F7D800BF00BFB6
S315080128301037BD4680BD00BF0800002080B485B0B2
S3150801284000AF78607B6803F00703FB600C4BDB681D
S31508012850BB60BA684FF6FF031340BB60FB681A02F8
S31508012860BB68134343F0BF6343F40033BB60044AB8
S31508012870BB68D36000BF1437BD465DF8047B70475B
S3150801288000ED00E080B400AF044BDB681B0A03F0DF
S3150801289007031846BD465DF8047B704700ED00E066
S315080128A080B483B000AF0346FB7197F90730002B5C
S315080128B00BDBFB7903F01F02074997F907305B0920
S315080128C0012000FA02F241F8232000BF0C37BD4669
S315080128D05DF8047B704700BF00E100E080B483B077
S315080128E000AF03463960FB7197F90730002B0ADB05
S315080128F03B68DAB20C4997F907301201D2B20B4498
S3150801290083F800230AE03B68DAB20849FB7903F049
S315080129100F03043B1201D2B20B441A7600BF0C37DF
S31508012920BD465DF8047B704700E100E000ED00E07C
S3150801293080B489B000AFF860B9607A60FB6803F0CB
S315080129400703FB61FB69C3F10703042B28BF0423B3
S31508012950BB61FB690433062B02D9FB69033B00E023
S3150801296000237B614FF0FF32BB6902FA03F3DA43B6
S31508012970BB681A407B699A404FF0FF317B6901FABF
S3150801298003F3D9437B680B40134318462437BD46E6
S315080129905DF8047B7047000080B582B000AF7860AF
S315080129A07B68013BB3F1807F01D301230FE00A4A1B
S315080129B07B68013B53600F214FF0FF30FFF78EFF15
S315080129C0054B00229A60044B07221A600023184619
S315080129D00837BD4680BD00BF10E000E080B582B073
S315080129E000AF78607B68072B0FD07B68062B0CD06D
S315080129F07B68052B09D07B68042B06D07B68032BE3
S31508012A0003D090210448FFF751F97868FFF716FFBC
S31508012A1000BF0837BD4680BDDC70010880B586B0A9
S31508012A2000AF0346B9607A60FB7300237B617B685C
S31508012A300F2B03D9A8210E48FFF738F9BB680F2BCE
S31508012A4003D9A9210A48FFF731F9FFF71BFF786176
S31508012A507A68B9687869FFF76BFF024697F90F300C
S31508012A6011461846FFF73AFF00BF1837BD4680BD25
S31508012A70DC70010880B582B000AF0346FB7197F997
S31508012A800730002B03DABC210548FFF70FF997F940
S31508012A9007301846FFF704FF00BF0837BD4680BD5B
S31508012AA0DC70010880B582B000AF78607868FFF7FE
S31508012AB073FF034618460837BD4680BD80B584B006
S31508012AC000AF78607B689B6DFB60FFF787FEB86097
S31508012AD07B6893F83530DBB2022B08D07B688022FD
S31508012AE05A657B68002283F83420012352E07B680B
S31508012AF01B681A687B681B6822F016021A607B68D5
S31508012B001B685A697B681B6822F080025A617B68D8
S31508012B101B6C002B03D17B689B6C002B07D07B6851
S31508012B201B681A687B681B6822F008021A607B68B2
S31508012B301B681A687B681B6822F001021A6013E099
S31508012B40FFF74CFE0246BB68D31A052B0CD97B68E6
S31508012B5020225A657B68032283F835207B68002288
S31508012B6083F83420032315E07B681B681B6803F090
S31508012B700103002BE4D17B68DB6D3F229A40FB6899
S31508012B809A607B68012283F835207B68002283F8E6
S31508012B903420002318461037BD4680BD80B483B063
S31508012BA000AF78607B6893F83530DBB2022B04D02E
S31508012BB07B6880225A6501230CE07B68052283F82D
S31508012BC035207B681B681A687B681B6822F001023E
S31508012BD01A60002318460C37BD465DF8047B70471A
S31508012BE080B586B000AFF860B960C7E900232B4B02
S31508012BF01B7E012B01D102234BE0284B01221A76B9
S31508012C00FB68002B0CD0FB68012B09D0FB68022B53
S31508012C1006D0FB68032B03D0A9212148FFF746F804
S31508012C204CF2503000F072F80346FB75FB7D002B21
S31508012C302BD1FB68002B05D13B781946B86800F003
S31508012C406FF916E0FB68012B05D13B881946B86870
S31508012C5000F028F90DE0FB68022B05D13B681946FF
S31508012C60B86800F0E1F804E0D7E90023B86800F095
S31508012C708DF84CF2503000F049F80346FB75094BC4
S31508012C801B69084A23F001031361044B00221A76D3
S31508012C90FB7D18461837BD4680BD00BF0C000020D5
S31508012CA018710108003C024080B483B000AF0023CC
S31508012CB0FB710B4B1B69002B0BDA094B094A5A604E
S31508012CC0074B094A5A60064B1B69002B01DA012397
S31508012CD0FB71FB7918460C37BD465DF8047B7047D6
S31508012CE0003C024023016745AB89EFCD80B400AFB4
S31508012CF0054B1B69044A43F0004313610023184638
S31508012D00BD465DF8047B7047003C024080B584B03F
S31508012D1000AF78600023FB601A4B0022DA61FFF7E7
S31508012D205DFDF86010E07B68B3F1FF3F0CD07B686E
S31508012D30002B07D0FFF752FD0246FB68D31A7A68C3
S31508012D409A4201D2032319E00F4BDB6803F480335F
S31508012D50002BE8D10C4BDB6803F00103002B02D0F2
S31508012D60094B0122DA60084BDB6803F4F973002B7F
S31508012D7003D000F011F9012300E0002318461037AB
S31508012D80BD4680BD0C000020003C024080B584B0E1
S31508012D9000AFF860C7E90023FB68B3F1006F03D3FE
S31508012DA0FB681C4A93420CD9FB681B4A934203D918
S31508012DB0FB681A4A934204D940F266211848FEF77D
S31508012DC075FF184B1B69174A23F440731361154B9A
S31508012DD01B69144A43F440731361124B1B69114A68
S31508012DE043F001031361FB683A681A60BFF36F8FFA
S31508012DF000BFD7E900014FF000024FF000030A00B7
S31508012E000023F968043113460B6000BF1037BD462D
S31508012E1080BD00BFFFFF0708FF77FF1F0F7AFF1F5F
S31508012E2018710108003C024080B582B000AF786095
S31508012E3039607B68B3F1006F03D37B68144A934208
S31508012E400CD97B68134A934203D97B68124A934289
S31508012E5004D94FF422711148FEF728FF104B1B695C
S31508012E600F4A23F4407313610D4B1B690C4A43F453
S31508012E70007313610A4B1B69094A43F00103136185
S31508012E807B683A681A6000BF0837BD4680BD00BF37
S31508012E90FFFF0708FF77FF1F0F7AFF1F1871010849
S31508012EA0003C024080B582B000AF78600B467B805B
S31508012EB07B68B3F1006F03D37B68144A93420CD93C
S31508012EC07B68134A934203D97B68124A934204D911
S31508012ED040F2A1211048FEF7E9FE104B1B690F4A83
S31508012EE023F4407313610D4B1B690C4A43F4807339
S31508012EF013610A4B1B69094A43F0010313617B6895
S31508012F007A881A8000BF0837BD4680BDFFFF0708CB
S31508012F10FF77FF1F0F7AFF1F18710108003C024057
S31508012F2080B582B000AF78600B46FB707B68B3F161
S31508012F30006F03D37B68134A93420CD97B68124A04
S31508012F40934203D97B68114A934204D940F2BA21C4
S31508012F500F48FEF7ABFE0F4B1B690E4A23F440736D
S31508012F6013610C4B0B4A1B6913610A4B1B69094A0E
S31508012F7043F0010313617B68FA781A7000BF0837BA
S31508012F80BD4680BDFFFF0708FF77FF1F0F7AFF1FAA
S31508012F9018710108003C024080B400AF2F4BDB6872
S31508012FA003F01003002B08D02D4BDB6943F0100307
S31508012FB02B4AD361294B1022DA60284BDB6803F0D0
S31508012FC02003002B08D0264BDB6943F00803244A6B
S31508012FD0D361224B2022DA60204BDB6803F04003E1
S31508012FE0002B08D01E4BDB6943F004031C4AD3614E
S31508012FF01A4B4022DA60194BDB6803F08003002B79
S3150801300008D0174BDB6943F00203154AD361134B0A
S315080130108022DA60114BDB6803F48073002B09D038
S315080130200F4BDB6943F001030D4AD3610B4B4FF498
S315080130308072DA60094BDB6803F00203002B08D0C3
S31508013040074BDB6943F02003054AD361034B022290
S31508013050DA6000BFBD465DF8047B7047003C02405C
S315080130600C00002080B584B000AF78603960002379
S31508013070BB60404B1B7E012B01D1022376E03D4B01
S3150801308001221A767B681B68002B07D07B681B68B0
S31508013090012B03D0A9213848FEF708FE4CF250301F
S315080130A0FFF734FE0346FB73FB7B002B5AD13B68C3
S315080130B04FF0FF321A607B681B68012B15D17B68BC
S315080130C01B69DAB27B685B681946104600F058F846
S315080130D04CF25030FFF71AFE0346FB73274B1B6968
S315080130E0264A23F0040313613AE07B68DA687B68B1
S315080130F09B681344002B06D07B68DA687B689B685B
S315080131001344082B03D9C1211B48FEF7CFFD7B6861
S315080131109B68BB601CE07B681B69DBB21946B86813
S3150801312000F06AF84CF25030FFF7F0FD0346FB73E6
S31508013130124B1B69114A23F0FA031361FB7B002B1F
S3150801314003D03B68BA681A600AE0BB680133BB6002
S315080131507B68DA687B689B681344BA689A42DAD353
S3150801316000F0C0F8034B00221A76FB7B184610378D
S31508013170BD4680BD0C00002054710108003C024088
S3150801318080B582B000AF03463960FB71FB79002B2D
S315080131900DD0FB79012B0AD0FB79022B07D0FB79DD
S315080131A0032B04D040F2B7311148FEF77FFD3B6887
S315080131B0012B04D04FF46E710D48FEF777FD0D4BC8
S315080131C01B690C4A23F4407313610A4B1B69094AAC
S315080131D043F004031361074B1A69FB791B02134376
S315080131E0044A43F48033136100BF0837BD4680BDE6
S315080131F054710108003C024080B584B000AF786084
S315080132000B46FB700023FB607B68002B19D07B689B
S31508013210012B16D07B68022B13D07B68032B10D0A9
S315080132207B68042B0DD07B68052B0AD07B68062B9F
S3150801323007D07B68072B04D040F2D6312748FEF722
S3150801324035FDFB78002B0DD0FB78012B0AD0FB78D6
S31508013250022B07D0FB78032B04D040F2D7311F4845
S31508013260FEF724FDFB78002B02D10023FB6010E05A
S31508013270FB78012B03D14FF48073FB6009E0FB78DF
S31508013280022B03D14FF40073FB6002E04FF4407345
S31508013290FB60134B1B69124A23F440731361104BED
S315080132A01A690F49FB6813430B610D4B1B690C4ADD
S315080132B023F0F80313610A4B1A697B68DB00134391
S315080132C0074A43F002031361054B1B69044A43F499
S315080132D08033136100BF1037BD4680BD54710108A4
S315080132E0003C024080B400AF204B1B6803F4007316
S315080132F0002B17D01D4B1B681C4A23F4007313605F
S315080133001A4B1B68194A43F400631360174B1B6871
S31508013310164A23F400631360144B1B68134A43F4DB
S3150801332000731360114B1B6803F48063002B17D0DD
S315080133300E4B1B680D4A23F4806313600B4B1B6805
S315080133400A4A43F480531360084B1B68074A23F45F
S3150801335080531360054B1B68044A43F4806313606A
S3150801336000BFBD465DF8047B704700BF003C0240C4
S3150801337080B588B000AF7860396000237B6100238F
S315080133803B610023BB617B68324A934217D07B6855
S31508013390314A934213D07B68304A93420FD07B68F7
S315080133A02F4A93420BD07B682E4A934207D07B68FB
S315080133B02D4A934203D0AC212C48FEF777FC3B6893
S315080133C01B689BB2002B04D03B681B68B3F5803F92
S315080133D003D3AD212548FEF769FC3B685B68002BE2
S315080133E035D03B685B68012B31D03B685B68112B94
S315080133F02DD03B685B68022B29D03B685B68122B92
S3150801340025D03B685B68B3F5881F20D03B685B68AD
S31508013410B3F5041F1BD03B685B68B3F5441F16D090
S315080134203B685B68B3F5901F11D03B685B68B3F5E1
S31508013430081F0CD03B685B68B3F5481F07D03B688B
S315080134405B68032B03D0AE210848FEF72FFC002347
S31508013450FB6105E200000240000402400008024048
S31508013460000C024000100240001C02409471010841
S315080134700122FB6902FA03F37B613B681B687A69DF
S3150801348013403B613A697B699A4240F0E6813B68A1
S315080134905B6803F00303012B05D03B685B6803F007
S315080134A00303022B44D13B68DB68002B0FD03B6832
S315080134B0DB68012B0BD03B68DB68022B07D03B6826
S315080134C0DB68032B03D0C0219448FEF7EFFB7B682A
S315080134D09B68BB61FB695B00032202FA03F3DB43CA
S315080134E0BA691340BB613B68DA68FB695B0002FA9B
S315080134F003F3BA691343BB617B68BA699A607B684F
S315080135005B68BB610122FB6902FA03F3DB43BA6913
S315080135101340BB613B685B681B0903F00102FB6949
S3150801352002FA03F3BA691343BB617B68BA695A6045
S315080135303B685B6803F00303032B27D03B689B6852
S31508013540002B0BD03B689B68012B07D03B689B6817
S31508013550022B03D0D1217148FEF7A8FB7B68DB68F3
S31508013560BB61FB695B00032202FA03F3DB43BA6919
S315080135701340BB613B689A68FB695B0002FA03F377
S31508013580BA691343BB617B68BA69DA603B685B68F1
S3150801359003F00303022B40F098803B681B69002B5C
S315080135A06FD03B681B690C2B6BD03B681B69002BE2
S315080135B067D03B681B69002B63D03B681B69002BEE
S315080135C05FD03B681B69002B5BD03B681B69012BED
S315080135D057D03B681B69012B53D03B681B69022BEB
S315080135E04FD03B681B69022B4BD03B681B69022BEA
S315080135F047D03B681B69032B43D03B681B69032BE8
S315080136003FD03B681B69032B3BD03B681B69042BE6
S3150801361037D03B681B69042B33D03B681B69042BE5
S315080136202FD03B681B69052B2BD03B681B69052BE3
S3150801363027D03B681B69052B23D03B681B69062BE2
S315080136401FD03B681B69072B1BD03B681B69072BDF
S3150801365017D03B681B69082B13D03B681B69092BDC
S315080136600FD03B681B69092B0BD03B681B690A2BDA
S3150801367007D03B681B690F2B03D0DE212748FEF7CD
S3150801368015FBFB69DA087B68083253F82230BB61FF
S31508013690FB6903F007039B000F2202FA03F3DB43DE
S315080136A0BA691340BB613B681A69FB6903F00703F2
S315080136B09B0002FA03F3BA691343BB61FB69DA0893
S315080136C07B680832B96943F822107B681B68BB61BD
S315080136D0FB695B00032202FA03F3DB43BA69134071
S315080136E0BB613B685B6803F00302FB695B0002FA96
S315080136F003F3BA691343BB617B68BA691A603B680D
S315080137005B6803F44033002B00F0A7800023FB60BD
S31508013710034B5B6C024A43F4804303E0947101084E
S31508013720003802405364534B5B6C03F48043FB60DF
S31508013730FB68514AFB699B08023352F82330BB6187
S31508013740FB6903F003039B000F2202FA03F3DB4331
S31508013750BA691340BB617B68484A934219D07B68B2
S31508013760474A934213D07B68464A93420DD07B68F9
S31508013770454A934207D07B68444A934201D10423C0
S3150801378008E0072306E0032304E0022302E00123FD
S3150801379000E00023FA6902F0030292009340BA6935
S315080137A01343BB613449FB699B080233BA6941F883
S315080137B02320374B9B68BB613B69DB43BA691340DE
S315080137C0BB613B685B6803F48013002B03D0BA69BD
S315080137D03B691343BB612E4ABB6993602C4BDB687B
S315080137E0BB613B69DB43BA691340BB613B685B68F4
S315080137F003F40013002B03D0BA693B691343BB6179
S31508013800234ABB69D360224B5B68BB613B69DB43D7
S31508013810BA691340BB613B685B6803F40033002B4C
S3150801382003D0BA693B691343BB61194ABB69536043
S31508013830174B1B68BB613B69DB43BA691340BB6124
S315080138403B685B6803F48033002B03D0BA693B6994
S315080138501343BB610E4ABB691360FB690133FB6104
S31508013860FB690F2B7FF604AE00BF00BF2037BD46AC
S3150801387080BD00BF00380240003801400000024008
S315080138800004024000080240000C024000100240F9
S31508013890003C014080B582B000AF78600B467B8062
S315080138A013467B707B88002B04D140F29D110E488C
S315080138B0FEF7FCF97B78002B07D07B78012B04D027
S315080138C04FF4CF710848FEF7F1F97B78002B03D046
S315080138D07A887B689A6103E07B881A047B689A6117
S315080138E000BF0837BD4680BD9471010880B586B012
S315080138F000AF78607B68002B01D1012318E37B6850
S315080139001B680F2B03D9E6219748FEF7CFF97B6889
S315080139101B6803F00103002B00F088807B685B6855
S31508013920002B0DD07B685B68B3F5803F08D07B68B8
S315080139305B68B3F5A02F03D0EB218B48FEF7B6F9E8
S315080139408A4B9B6803F00C03042B0CD0874B9B68AE
S3150801395003F00C03082B12D1844B5B6803F4800334
S31508013960B3F5800F0BD1814B1B6803F40033002B91
S315080139705BD07B685B68002B57D10123D8E27B6853
S315080139805B68B3F5803F06D1784B1B68774A43F4E9
S31508013990803313601DE07B685B68B3F5A02F0CD1FB
S315080139A0724B1B68714A43F4802313606F4B1B6883
S315080139B06E4A43F4803313600BE06C4B1B686B4A09
S315080139C023F480331360694B1B68684A23F4802308
S315080139D013607B685B68002B13D0FEF7FFFE386126
S315080139E008E0FEF7FBFE02463B69D31A642B01D9B0
S315080139F003239DE25D4B1B6803F40033002BF0D0D3
S31508013A0014E0FEF7EBFE386108E0FEF7E7FE024632
S31508013A103B69D31A642B01D9032389E2534B1B68EB
S31508013A2003F40033002BF0D100E000BF7B681B686C
S31508013A3003F00203002B79D07B68DB68002B08D0E2
S31508013A407B68DB68012B04D040F21D114648FEF75E
S31508013A502DF97B681B691F2B04D94FF48F714248D6
S31508013A60FEF724F9414B9B6803F00C03002B0BD09E
S31508013A703E4B9B6803F00C03082B1CD13B4B5B6840
S31508013A8003F48003002B16D1384B1B6803F002039D
S31508013A90002B05D07B68DB68012B01D0012347E2A7
S31508013AA0324B1B6823F0F8027B681B69DB002F4940
S31508013AB013430B603AE07B68DB68002B20D02C4B64
S31508013AC001221A60FEF78AFE386108E0FEF786FED3
S31508013AD002463B69D31A022B01D9032328E2234B59
S31508013AE01B6803F00203002BF0D0204B1B6823F060
S31508013AF0F8027B681B69DB001C4913430B6015E060
S31508013B001B4B00221A60FEF769FE386108E0FEF7D2
S31508013B1065FE02463B69D31A022B01D9032307E244
S31508013B20124B1B6803F00203002BF0D17B681B685C
S31508013B3003F00803002B45D07B685B69002B08D08E
S31508013B407B685B69012B04D04FF4AF710648FEF719
S31508013B50ADF87B685B69002B1ED0064B01221A6003
S31508013B60FEF73CFE386110E0D071010800380240CA
S31508013B7000004742800E4742FEF730FE02463B6987
S31508013B80D31A022B01D90323D2E15E4B5B6F03F0F3
S31508013B900203002BF0D015E05B4B00221A60FEF7FA
S31508013BA01DFE386108E0FEF719FE02463B69D31A85
S31508013BB0022B01D90323BBE1524B5B6F03F00203CE
S31508013BC0002BF0D17B681B6803F00403002B00F07F
S31508013BD0B0800023FB757B689B68002B0CD07B6843
S31508013BE09B68012B08D07B689B68052B04D04FF492
S31508013BF0C5714648FEF75AF8424B1B6C03F08053D1
S31508013C00002B0FD10023BB603E4B1B6C3D4A43F092
S31508013C10805313643B4B1B6C03F08053BB60BB683A
S31508013C200123FB753A4B1B6803F48073002B18D1EB
S31508013C30374B1B68364A43F480731360FEF7CEFD93
S31508013C40386108E0FEF7CAFD02463B69D31A022B22
S31508013C5001D903236CE12E4B1B6803F48073002BF7
S31508013C60F0D07B689B68012B06D1264B1B6F254A32
S31508013C7043F0010313671CE07B689B68052B0CD195
S31508013C80204B1B6F1F4A43F0040313671D4B1B6F21
S31508013C901C4A43F0010313670BE01A4B1B6F194AC1
S31508013CA023F001031367174B1B6F164A23F004030E
S31508013CB013677B689B68002B15D0FEF78FFD38616B
S31508013CC00AE0FEF78BFD02463B69D31A41F28832B8
S31508013CD0934201D903232BE10A4B1B6F03F002031D
S31508013CE0002BEED01CE0FEF779FD386112E0FEF7F5
S31508013CF075FD02463B69D31A41F28832934209D9C6
S31508013D00032315E100380240800E4742D0710108AD
S31508013D1000700040884B1B6F03F00203002BE6D1AD
S31508013D20FB7D012B05D1844B1B6C834A23F0805301
S31508013D3013647B689B69002B0CD07B689B69012BFC
S31508013D4008D07B689B69022B04D040F2CD117B48D1
S31508013D50FDF7ACFF7B689B69002B00F0E880764B8A
S31508013D609B6803F00C03082B00F0A9807B689B690C
S31508013D70022B40F08D807B68DB69002B09D07B68BC
S31508013D80DB69B3F5800F04D04FF4EB716B48FDF78F
S31508013D908DFF7B681B6A012B03D97B681B6A3F2B46
S31508013DA004D940F2D7116548FDF780FF7B685B6A45
S31508013DB0312B04D97B685B6AB3F5D87F04D94FF4F4
S31508013DC0EC715E48FDF772FF7B689B6A022B10D087
S31508013DD07B689B6A042B0CD07B689B6A062B08D0F0
S31508013DE07B689B6A082B04D040F2D9115348FDF72A
S31508013DF05DFF7B68DB6A012B03D97B68DB6A0F2BC6
S31508013E0004D94FF4ED714D48FDF750FF4C4B002294
S31508013E101A60FEF7E3FC386108E0FEF7DFFC0246AC
S31508013E203B69D31A022B01D9032381E0424B1B6854
S31508013E3003F00073002BF0D17B68DA697B681B6A93
S31508013E401A437B685B6A9B011A437B689B6A5B081A
S31508013E50013B1B041A437B68DB6A1B06364913437D
S31508013E604B60374B01221A60FEF7B8FC386108E04F
S31508013E70FEF7B4FC02463B69D31A022B01D9032388
S31508013E8056E02D4B1B6803F00073002BF0D04EE073
S31508013E902B4B00221A60FEF7A1FC386108E0FEF7F9
S31508013EA09DFC02463B69D31A022B01D903233FE045
S31508013EB0214B1B6803F00073002BF0D137E07B68B8
S31508013EC09B69012B01D1012332E01B4B5B68FB6027
S31508013ED07B689B69012B28D0FB6803F480027B6809
S31508013EE0DB699A4221D1FB6803F03F027B681B6AB2
S31508013EF09A421AD1FA6847F6C07313407A68526A29
S31508013F009201934211D1FB6803F440327B689B6AA4
S31508013F105B08013B1B049A4207D1FB6803F07062F8
S31508013F207B68DB6A1B069A4201D0012300E0002365
S31508013F3018461837BD4680BD00380240D0710108C1
S31508013F406000474280B584B000AF786039607B680D
S31508013F50002B01D1012374E17B681B68002B03D078
S31508013F607B681B680F2B04D940F25A217B48FDF761
S31508013F709DFE3B68002B19D03B68012B16D03B6888
S31508013F80022B13D03B68032B10D03B68042B0DD0B2
S31508013F903B68052B0AD03B68062B07D03B68072BE5
S31508013FA004D040F25B216D48FDF780FE6C4B1B681F
S31508013FB003F007033A689A420CD9694B3A68D2B2B8
S31508013FC01A70674B1B6803F007033A689A4201D0D7
S31508013FD0012336E17B681B6803F00203002B49D0F5
S31508013FE07B681B6803F00403002B05D05D4B9B68B7
S31508013FF05C4A43F4E05393607B681B6803F008034B
S31508014000002B05D0574B9B68564A43F4604393608F
S315080140107B689B68002B24D07B689B68802B20D00B
S315080140207B689B68902B1CD07B689B68A02B18D05B
S315080140307B689B68B02B14D07B689B68C02B10D01B
S315080140407B689B68D02B0CD07B689B68E02B08D0DB
S315080140507B689B68F02B04D040F27E213F48FDF730
S3150801406025FE404B9B6823F0F0027B689B683D491F
S3150801407013438B607B681B6803F00103002B59D03F
S315080140807B685B68002B10D07B685B68012B0CD0C2
S315080140907B685B68022B08D07B685B68032B04D0BE
S315080140A040F285212D48FDF701FE7B685B68012BEF
S315080140B007D12C4B1B6803F40033002B19D10123BC
S315080140C0BFE07B685B68022B03D07B685B68032BC8
S315080140D007D1244B1B6803F00073002B09D1012378
S315080140E0AFE0204B1B6803F00203002B01D101232B
S315080140F0A7E01C4B9B6823F003027B685B681949A0
S3150801410013438B60FEF76AFBF8600AE0FEF766FB6D
S315080141100246FB68D31A41F28832934201D9032336
S315080141208FE0104B9B6803F00C027B685B689B0071
S315080141309A42EBD10A4B1B6803F007033A689A4285
S3150801414012D2074B3A68D2B21A70054B1B6803F0B4
S3150801415007033A689A4207D0012372E0D071010831
S31508014160003C0240003802407B681B6803F00403E8
S31508014170002B25D07B68DB68002B18D07B68DB68B1
S31508014180B3F5805F13D07B68DB68B3F5A05F0ED00B
S315080141907B68DB68B3F5C05F09D07B68DB68B3F57C
S315080141A0E05F04D040F2C3212848FDF77FFD284B84
S315080141B09B6823F4E0527B68DB68254913438B60CF
S315080141C07B681B6803F00803002B26D07B681B69F4
S315080141D0002B18D07B681B69B3F5805F13D07B6809
S315080141E01B69B3F5A05F0ED07B681B69B3F5C05F89
S315080141F009D07B681B69B3F5E05F04D040F2CA2198
S315080142001248FDF753FD124B9B6823F460427B6805
S315080142101B69DB000E4913438B6000F021F8024647
S315080142200B4B9B681B0903F00F030A49CB5C22FA67
S3150801423003F3094A1360094B1B681846FEF78AFA05
S31508014240002318461037BD4680BD00BFD07101084E
S315080142500038024080730108000000200400002095
S315080142602DE9B04F90B000AF00237B630023FB63B9
S3150801427000233B630023BB63594B9B6803F00C0384
S31508014280082B0DD0082B00F2A180002B02D0042B9D
S3150801429003D09BE0534BBB639BE0534BBB6398E056
S315080142A04F4B5B6803F03F037B634D4B5B6803F43D
S315080142B08003002B28D04A4B5B689B0900223B628E
S315080142C07A623B6AC3F308000021474B03FB01F2FC
S315080142D0002300FB03F31344434AA0FB0212FA62CC
S315080142E00A46BA62FA6A1344FB627B6B0022BB6117
S315080142F0FA61D7E90623D7E90A01FBF7C9FF02469E
S315080143000B461346FB6353E0354B5B689B0900225A
S315080143103B617A613B69C3F3080A4FF0000B5246C9
S315080143205B464FF000004FF00001590141EAD261A6
S31508014330500102460B46B2EB0A0863EB0B094FF034
S3150801434000024FF000034FEA891343EA98634FEAE4
S315080143508812B2EB080463EB09054FF000024FF02F
S315080143600003EB0043EA5473E20014461D4614EBBE
S315080143700A033B6045EB0B037B604FF000024FF0ED
S315080143800003D7E9004529468B02214643EA9153A2
S3150801439021468A02104619467B6B0022BB60FA60E9
S315080143A0D7E90223FBF774FF02460B461346FB6364
S315080143B00B4B5B681B0C03F0030301335B003B6388
S315080143C0FA6B3B6BB2FBF3F3BB6302E0054BBB63D2
S315080143D000BFBB6B18464037BD46BDE8B08F00BF6E
S315080143E0003802400024F40000366E0180B400AFA4
S315080143F0034B1B681846BD465DF8047B704700BF32
S315080144000000002080B500AFFFF7F0FF0246054B1C
S315080144109B689B0A03F007030349CB5C22FA03F363
S31508014420184680BD003802409073010880B500AF78
S31508014430FFF7DCFF0246054B9B685B0B03F007039E
S315080144400349CB5C22FA03F3184680BD00380240C3
S315080144509073010880B582B000AF78607B68002B45
S3150801446001D10123AEE07B689B69002B2CD07B68C8
S315080144701B68564A93420ED07B681B68544A93427E
S3150801448009D07B681B68534A934204D040F27311E2
S315080144905148FDF70BFC7B689B69002B28D07B688C
S315080144A09B69B3F5807F23D07B689B69B3F5007F51
S315080144B01ED07B689B69B3F5407F19D04FF4BA715A
S315080144C04548FDF7F3FB13E07B681B683F4A9342B7
S315080144D00ED07B681B683E4A934209D07B681B68ED
S315080144E03C4A934204D04FF4BC713B48FDF7DEFBCE
S315080144F07B689B68002B09D07B689B68B3F5805F56
S3150801450004D04FF4BD713448FDF7D0FB7B68DB69F5
S31508014510002B09D07B68DB69B3F5004F04D040F264
S315080145207B112D48FDF7C2FB7B6893F84130DBB25E
S31508014530002B11D17B68002283F84020786800F0AF
S315080145404FFD7B681B6F002B02D17B68234A1A67D4
S315080145507B681B6F786898477B68242283F841201B
S315080145607B681B68DA687B681B6822F40052DA608C
S31508014570786800F0B7FF7B681B681A697B681B6857
S3150801458022F490421A617B681B685A697B681B682A
S3150801459022F02A025A617B681B68DA687B681B6805
S315080145A042F40052DA607B6800225A647B68202252
S315080145B083F841207B68202283F842207B68002209
S315080145C05A63002318460837BD4680BD00100140CE
S315080145D0004400400014014008720108B124010892
S315080145E080B58AB002AFF860B9603B601346FB80BC
S315080145F000237B61FB6893F84130DBB2202B75D130
S31508014600BB68002B02D0FB88002B01D101236EE089
S31508014610FB6800225A64FB68212283F84120FEF7D1
S31508014620DDF87861FB68FA889A84FB68FA88DA8487
S31508014630FB689B68B3F5805F08D1FB681B69002B93
S3150801464004D10023FB61BB68BB6103E0BB68FB6166
S315080146500023BB612EE03B6800937B690022802121
S31508014660F86800F0F5FC0346002B05D0FB6820220C
S3150801467083F8412003233AE0FB69002B0BD1BB6980
S315080146801B881A46FB681B68C2F308025A60BB6995
S315080146900233BB6107E0FB691A78FB681B685A603D
S315080146A0FB690133FB61FB68DB8C9BB2013B9AB268
S315080146B0FB68DA84FB68DB8C9BB2002BCBD13B68A9
S315080146C000937B6900224021F86800F0C1FC03468B
S315080146D0002B05D0FB68202283F84120032306E03E
S315080146E0FB68202283F84120002300E002231846B4
S315080146F02037BD4680BD80B58AB002AFF860B96083
S315080147003B601346FB8000237B61FB6893F84230CC
S31508014710DBB2202B40F08180BB68002B02D0FB88DE
S31508014720002B01D1012379E0FB6800225A64FB685A
S31508014730222283F84220FB6800221A63FEF74EF80C
S315080147407861FB68FA889A85FB68FA88DA85FB68D6
S315080147509B68B3F5805F08D1FB681B69002B04D100
S315080147600023FB61BB68BB6103E0BB68FB610023F7
S31508014770BB6147E03B6800937B6900222021F8680A
S3150801478000F066FC0346002B05D0FB68202283F85F
S315080147904220032342E0FB69002B0CD1FB681B680E
S315080147A05B689BB2C3F308039AB2BB691A80BB69FB
S315080147B00233BB611FE0FB689B68B3F5805F07D0D6
S315080147C0FB689B68002B0AD1FB681B69002B06D185
S315080147D0FB681B685B68DAB2FB691A7008E0FB685C
S315080147E01B685B68DBB203F07F03DAB2FB691A70F8
S315080147F0FB690133FB61FB68DB8D9BB2013B9AB216
S31508014800FB68DA85FB68DB8D9BB2002BB2D1FB68AE
S31508014810202283F84220002300E00223184620378D
S31508014820BD4680BD80B584B000AFF860B960134657
S31508014830FB80FB6893F84230DBB2202B12D1BB68B0
S31508014840002B02D0FB88002B01D101230BE0FB686A
S3150801485000221A63FB881A46B968F86800F051FC09
S31508014860034600E0022318461037BD4680BD000006
S3150801487080B59AB000AF78607B681B680C33BB645F
S31508014880BB6C53E8003F7B647B6C23F490737B66B7
S315080148907B681B680C337A6E7A653B65396D7A6D70
S315080148A041E80023FB64FB6C002BE5D17B681B68A0
S315080148B014337B637B6B53E8003F3B633B6B23F00D
S315080148C001033B667B681B6814333A6E3A64FB63E3
S315080148D0F96B3A6C41E80023BB63BB6B002BE5D14E
S315080148E07B681B6B012B19D17B681B680C333B62F8
S315080148F03B6A53E8003FFB61FB6923F01003FB6544
S315080149007B681B680C33FA6DFA62BB62B96AFA6A8C
S3150801491041E800237B627B6A002BE5D17B681B6833
S315080149205B6903F04003402B40D17B681B68143355
S31508014930FB60FB6853E8003FBB60BB6823F040039C
S31508014940BB657B681B681433BA6DBA617B6179698B
S31508014950BA6941E800233B613B69002BE5D17B68D5
S31508014960DB6B002B13D07B68DB6B1A4A1A657B68F5
S31508014970DB6B1846FEF712F90346002B24D07B6839
S31508014980DB6B1B6D7A68D26B104698471CE07B6817
S315080149900022DA857B68202283F842207B68002280
S315080149A01A637B685B6E786898470DE07B6800221E
S315080149B0DA857B68202283F842207B6800221A6305
S315080149C07B685B6E78689847002318466837BD464A
S315080149D080BD00BF6152010880B5BAB000AF7860EA
S315080149E07B681B681B68C7F8E4307B681B68DB6853
S315080149F0C7F8E0307B681B685B69C7F8DC300023C1
S31508014A00C7F8D8300023C7F8D430D7F8E43003F014
S31508014A100F03C7F8D830D7F8D830002B0FD1D7F8FD
S31508014A20E43003F02003002B09D0D7F8E03003F077
S31508014A302003002B03D0786800F094FC7AE2D7F8BB
S31508014A40D830002B00F0E180D7F8DC3003F0010301
S31508014A50002B06D1D7F8E03003F49073002B00F051
S31508014A60D480D7F8E43003F00103002B0BD0D7F834
S31508014A70E03003F48073002B05D07B685B6C43F050
S31508014A8001027B685A64D7F8E43003F00403002B6B
S31508014A900BD0D7F8DC3003F00103002B05D07B6877
S31508014AA05B6C43F002027B685A64D7F8E43003F082
S31508014AB00203002B0BD0D7F8DC3003F00103002BDF
S31508014AC005D07B685B6C43F004027B685A64D7F8AF
S31508014AD0E43003F00803002B11D0D7F8E03003F0D7
S31508014AE02003002B05D1D7F8DC3003F00103002B96
S31508014AF005D07B685B6C43F008027B685A647B6867
S31508014B005B6C002B00F01182D7F8E43003F0200328
S31508014B10002B08D0D7F8E03003F02003002B02D091
S31508014B20786800F01FFC7B681B685B6903F040032B
S31508014B30402B0CBF01230023DBB2C7F8D4307B68B6
S31508014B405B6C03F00803002B03D1D7F8D430002B94
S31508014B5051D0786800F00FFB7B681B685B6903F02E
S31508014B604003402B42D17B681B681433C7F89C303D
S31508014B70D7F89C3053E8003FC7F89830D7F89830F3
S31508014B8023F04003C7F8D0307B681B681433D7F885
S31508014B90D020C7F8A820C7F8A430D7F8A410D7F8AA
S31508014BA0A82041E80023C7F8A030D7F8A030002B89
S31508014BB0D9D17B68DB6B002B13D07B68DB6B8D4A05
S31508014BC01A657B68DB6B1846FDF7E8FF0346002B81
S31508014BD019D07B68DB6B1B6D7A68D26B10469847D8
S31508014BE011E07B689B6D786898470CE07B689B6D44
S31508014BF07868984707E07B689B6D786898477B6873
S31508014C0000225A6491E100BF8FE17B681B6B012B7F
S31508014C1040F06B81D7F8E43003F01003002B00F065
S31508014C206481D7F8E03003F01003002B00F05D81B2
S31508014C300023BB607B681B681B68BB607B681B68BD
S31508014C405B68BB60BB687B681B685B6903F04003F4
S31508014C50402B40F0D1807B68DB6B1B685B68A7F84B
S31508014C60BE30B7F8BE30002B00F0AA807B689B8D5A
S31508014C70B7F8BE209A4280F0A3807B68B7F8BE20B9
S31508014C80DA857B68DB6BDB69B3F5807F00F08880AA
S31508014C907B681B680C33C7F88830D7F8883053E827
S31508014CA0003FC7F88430D7F8843023F48073C7F8F7
S31508014CB0B8307B681B680C33D7F8B820C7F894203E
S31508014CC0C7F89030D7F89010D7F8942041E8002318
S31508014CD0C7F88C30D7F88C30002BD9D17B681B6884
S31508014CE014337B677B6F53E8003F3B673B6F23F0C9
S31508014CF00103C7F8B4307B681B681433D7F8B420AE
S31508014D00C7F88020FB67F96FD7F8802041E80023B0
S31508014D10BB67BB6F002BE1D17B681B6814333B660D
S31508014D203B6E53E8003FFB65FB6D23F04003C7F874
S31508014D30B0307B681B681433D7F8B020FA66BB66B7
S31508014D40B96EFA6E41E800237B667B6E002BE3D1D0
S31508014D507B68202283F842207B6800221A637B68DD
S31508014D601B680C33FB64FB6C53E8003FBB64BB6CEC
S31508014D7023F01003C7F8AC307B681B680C33D7F8EF
S31508014D80AC20BA657B65796DBA6D41E800233B6550
S31508014D903B6D002BE3D17B68DB6B1846FDF78EFE76
S31508014DA07B6802225A637B68DB6E7A68918D7A6822
S31508014DB0D28D92B28A1A92B2114678689847B6E0AD
S31508014DC07B689B8DB7F8BE209A4240F0B0807B681D
S31508014DD0DB6BDB69B3F5807F40F0A9807B68022233
S31508014DE05A637B68DB6E7A68928D114678689847B4
S31508014DF09DE000BF3D5201087B689A8D7B68DB8D7B
S31508014E009BB2D31AA7F8CE307B68DB8D9BB2002BF9
S31508014E1000F08F80B7F8CE30002B00F08A807B68CF
S31508014E201B680C33BB63BB6B53E8003F7B637B6B2F
S31508014E3023F49073C7F8C8307B681B680C33D7F81E
S31508014E40C8207A643B64396C7A6C41E80023FB63B9
S31508014E50FB6B002BE3D17B681B6814337B627B6A8F
S31508014E6053E8003F3B623B6A23F00103C7F8C430AD
S31508014E707B681B681433D7F8C4203A63FB62F96A66
S31508014E803A6B41E80023BB62BB6A002BE3D17B681E
S31508014E90202283F842207B6800221A637B681B68FC
S31508014EA00C333B613B6953E8003FFB60FB6823F029
S31508014EB01003C7F8C0307B681B680C33D7F8C020CD
S31508014EC0FA61BB61B969FA6941E800237B617B69CB
S31508014ED0002BE3D17B6802225A637B68DB6EB7F845
S31508014EE0CE2011467868984723E0D7F8E43003F0D6
S31508014EF08003002B09D0D7F8E03003F08003002B9C
S31508014F0003D0786800F0C5F914E0D7F8E43003F067
S31508014F104003002B0ED0D7F8E03003F04003002BF6
S31508014F2008D0786800F005FA04E000BF02E000BF87
S31508014F3000E000BFE837BD4680BD00BF80B483B03E
S31508014F4000AF786000BF0C37BD465DF8047B70473B
S31508014F5080B483B000AF786000BF0C37BD465DF8FA
S31508014F60047B704780B483B000AF786000BF0C370C
S31508014F70BD465DF8047B704780B483B000AF7860A6
S31508014F8000BF0C37BD465DF8047B704780B483B01B
S31508014F9000AF786000BF0C37BD465DF8047B7047EB
S31508014FA080B483B000AF786000BF0C37BD465DF8AA
S31508014FB0047B704780B483B000AF786000BF0C37BC
S31508014FC0BD465DF8047B704780B483B000AF786056
S31508014FD00B467B8000BF0C37BD465DF8047B7047E6
S31508014FE080B483B000AF78607B68104A9A647B68A6
S31508014FF00F4ADA647B680F4A1A657B680E4A5A6556
S315080150007B680E4A9A657B680D4ADA657B680D4AA4
S315080150101A667B680C4A5A667B680C4ADA6600BFD0
S315080150200C37BD465DF8047B704700BF514F010838
S315080150303D4F0108654F010859130108794F0108C9
S315080150408D4F0108A14F0108B54F0108C94F010845
S3150801505080B586B000AFF860B9603B601346FB7156
S315080150603BE03B6AB3F1FF3F37D0FDF7B7FB02469A
S315080150703B68D31A3A6A9A4202D33B6A002B01D19A
S3150801508003233AE0FB681B68DB6803F00403002B83
S3150801509023D0BB68802B20D0BB68402B1DD0FB6872
S315080150A01B681B6803F00803082B16D100237B61D4
S315080150B0FB681B681B687B61FB681B685B687B6117
S315080150C07B69F86800F057F8FB6808225A64FB68A0
S315080150D0002283F8402001230FE0FB681B681A6849
S315080150E0BB681340BA689A420CBF01230023DBB29E
S315080150F01A46FB799A42B4D0002318461837BD469A
S3150801510080BD80B485B000AFF860B9601346FB80F6
S31508015110FB68BA689A62FB68FA889A85FB68FA8816
S31508015120DA85FB6800225A64FB68222283F842204A
S31508015130FB681B69002B07D0FB681B68DA68FB68EC
S315080151401B6842F48072DA60FB681B685A69FB685F
S315080151501B6842F001025A61FB681B68DA68FB6842
S315080151601B6842F02002DA60002318461437BD4650
S315080151705DF8047B704780B495B000AF78607B68B2
S315080151801B680C337B637B6B53E8003F3B633B6BCC
S3150801519023F49073FB647B681B680C33FA6C3A64DE
S315080151A0FB63F96B3A6C41E80023BB63BB6B002BCD
S315080151B0E5D17B681B6814333B623B6A53E8003FC1
S315080151C0FB61FB6923F00103BB647B681B6814332D
S315080151D0BA6CFA62BB62B96AFA6A41E800237B6271
S315080151E07B6A002BE5D17B681B6B012B19D17B6888
S315080151F01B680C33FB60FB6853E8003FBB60BB6868
S3150801520023F010037B647B681B680C337A6CBA61E4
S315080152107B617969BA6941E800233B613B69002BE7
S31508015220E5D17B68202283F842207B6800221A6335
S3150801523000BF5437BD465DF8047B704780B584B01E
S3150801524000AF78607B689B6BFB60FB680022DA85A0
S31508015250FB689B6DF868984700BF1037BD4680BD4F
S3150801526080B584B000AF78607B689B6BFB60FB6898
S315080152700022DA85FB68202283F84220FB68002297
S315080152801A63FB685B6EF868984700BF1037BD461E
S3150801529080BD80B485B000AF78607B6893F84130F3
S315080152A0DBB2212B3ED17B689B68B3F5805F14D1B5
S315080152B07B681B69002B10D17B681B6AFB60FB6846
S315080152C01B881A467B681B68C2F308025A607B680A
S315080152D01B6A9A1C7B681A6208E07B681B6A591C60
S315080152E07A6811621A787B681B685A607B68DB8C5E
S315080152F09BB2013B9BB27A681946D184002B0FD128
S315080153007B681B68DA687B681B6822F08002DA60B2
S315080153107B681B68DA687B681B6842F04002DA60C2
S31508015320002300E0022318461437BD465DF8047BC6
S31508015330704780B582B000AF78607B681B68DA6811
S315080153407B681B6822F04002DA607B68202283F8BA
S3150801535041207B68DB6C7868984700231846083734
S31508015360BD4680BD80B58CB000AF78600023FB6276
S315080153700023BB627B6893F84230DBB2222B40F0F4
S31508015380AC807B689B68B3F5805F15D17B681B6928
S31508015390002B11D17B689B6ABB627B681B685B68C3
S315080153A09BB2C3F308039AB2BB6A1A807B689B6AED
S315080153B09A1C7B689A6224E07B689B6AFB627B681D
S315080153C09B68B3F5805F07D07B689B68002B0AD181
S315080153D07B681B69002B06D17B681B685B68DAB2A0
S315080153E0FB6A1A7008E07B681B685B68DBB203F02E
S315080153F07F03DAB2FB6A1A707B689B6A5A1C7B6860
S315080154009A627B68DB8D9BB2013B9BB27A6819462F
S31508015410D185002B5FD17B681B68DA687B681B68BE
S3150801542022F02002DA607B681B68DA687B681B68F1
S3150801543022F48072DA607B681B685A697B681B688C
S3150801544022F001025A617B68202283F842207B6898
S3150801545000225A637B681B6B012B36D17B680022BD
S315080154601A637B681B680C337B617B6953E8003FD1
S315080154703B613B6923F010037B627B681B680C3335
S315080154807A6A3A62FB61F9693A6A41E80023BB61C3
S31508015490BB69002BE5D17B681B681B6803F0100309
S315080154A0102B0AD10023FB607B681B681B68FB6015
S315080154B07B681B685B68FB60FB687B68DB6E7A68E8
S315080154C0928D11467868984703E07B685B6D78682A
S315080154D09847002302E0002300E0022318463037EC
S315080154E0BD4680BD2DE9B04FC0B000AFC7F8F40086
