S02B00002E2F77656C6C2D6D6F6E69746F722D322D626F6F746C6F616465725F76616C6964617465642E7372B7
S3150801000000800120611D0108F11C0108F31C01088B
S31508010010F51C0108F71C0108F91C0108000000007D
S31508010020000000000000000000000000FB1C0108A1
S31508010030FD1C010800000000FF1C0108011D010844
S31508010040B11D0108B11D0108B11D0108B11D010845
S31508010050B11D0108B11D0108B11D0108B11D010835
S31508010060B11D0108B11D0108B11D0108B11D010825
S31508010070B11D0108B11D0108B11D0108B11D010815
S31508010080B11D0108B11D0108B11D010800000000DC
S31508010090000000000000000000000000B11D01087A
S315080100A0B11D0108B11D0108B11D0108B11D0108E5
S315080100B0B11D0108B11D0108B11D0108B11D0108D5
S315080100C0B11D0108B11D0108B11D0108B11D0108C5
S315080100D0B11D0108B11D0108051D01080000000038
S315080100E0B11D0108B11D0108B11D0108000000007C
S315080100F0000000000000000000000000B11D01081A
S3150801010000000000B11D0108B11D0108B11D01085B
S3150801011000000000000000000000000000000000D0
S31508010120B11D0108B11D0108B11D0108B11D010864
S31508010130B11D0108000000000000000000000000D9
S31508010140000000000000000000000000B11D0108C9
S31508010150B11D0108B11D0108B11D0108B11D010834
S31508010160B11D0108B11D01080000000000000000D2
S315080101700000000000000000000000000000000070
S3150801018000000000B11D0108000000000000000089
S31508010190B11D010800000000000000000000000079
S315080101A010B5054C237833B9044B13B10448AFF3A2
S315080101B000800123237010BD90000020000000007C
S315080101C0004B010808B5034B1BB103490348AFF3BC
S315080101D0008008BD0000000094000020004B0108C3
S315080101E010F8012B11F8013B012A28BF9A42F7D0D2
S315080101F0D01A7047034613F8012B002AFBD1181AA7
S3150801020001387047000000000000000000000000EF
S3150801021001F0FF01102A2BDB10F0070F08D010F8A8
S31508010220013B013A8B422DD010F0070F42B3F6D1AC
S31508010230F0B441EA012141EA014122F007047FF0C5
S3150801024000070023F0E80256083C85EA010586EA1C
S31508010250010685FA47F5A3FA87F586FA47F6A5FA58
S3150801026087F68EB9EED1F0BC01F0FF0102F0070264
S3150801027032B110F8013B013A83EA010313B1F8D10F
S315080102800020704701387047002D06BF35460338F0
S31508010290073815F0010F07D1013015F4807F02BF29
S315080102A0013015F4C03F0130F0BC0138704700BF7A
S315080102B053B94AB9002908BF00281CBF4FF0FF31BE
S315080102C04FF0FF3000F088B9ADF1080C6DE904CEA6
S315080102D000F006F8DDF804E0DDE9022304B0704712
S315080102E02DE9F047089D0F4604468C46002B48D158
S315080102F08A42164661D9B2FA82F34BB1C3F120029A
S3150801030001FA03FC20FA02F29E4042EA0C0C9C40D8
S315080103104FEA164EB7B2BCFBFEF1220C0EFB11CC0E
S3150801032042EA0C4201FB07F0904209D9B21801F1E1
S31508010330FF3C80F0EE80904240F2EB800239324475
S31508010340121AA4B2B2FBFEF00EFB102244EA0244D2
S3150801035000FB07F7A74209D9341900F1FF3280F0EB
S31508010360DA80A74240F2D7803444023840EA014095
S31508010370E41B00211DB1DC400023C5E90043BDE8AB
S31508010380F0878B4206D90DB1C5E90001002108465F
S31508010390BDE8F087B3FA83F1002948D1BB4202D3FD
S315080103A0824200F20781841A67EB03020120944610
S315080103B0002DE4D0C5E9004CE1E7002A00F092805F
S315080103C0B2FA82F3002B40F0A8808A1A4FEA164E39
S315080103D01FFA86FC0121200CB2FBFEF70EFB172241
S315080103E040EA02420CFB07F0904207D9B21807F11E
S315080103F0FF3802D2904200F2E2804746121AA4B2AE
S31508010400B2FBFEF00EFB102244EA02440CFB00FC90
S31508010410A44507D9341900F1FF3202D2A44500F2E6
S31508010420CB801046A4EB0C0440EA0740A2E7C1F1D1
S3150801043020068B4022FA06FC4CEA030C07FA01F463
S3150801044020FA06F3F7404FEA1C49234300FA01F85C
S315080104501FFA8CFEB7FBF9F01C0C09FB107744EA6E
S31508010460074400FB0EF7A74202FA01F20AD91CEB70
S31508010470040400F1FF3A80F09B80A74240F298807D
S3150801048002386444E41B9FB2B4FBF9F309FB134435
S3150801049047EA044403FB0EFEA64509D91CEB0404EE
S315080104A003F1FF3780F08280A6457FD9023B644479
S315080104B043EA0040A4EB0E04A0FB02E7BC427346E4
S315080104C0B94663D360D05DB1B8EB030264EB0904A6
S315080104D004FA06F622FA01F31E43CC40C5E9006484
S315080104E000214CE76208480842EAC1710B0C43EA4D
S315080104F000438AB242EA0342B3FBF6F1E407B44683
S315080105003746B6461F23B0FBF6F0D21B41EA004137
S3150801051061E7614614E7104628E7C3F1200120FA8E
S3150801052001F29E4027FA01F19F403A434FEA164EDF
S315080105301FFA86FCB1FBFEF70EFB1710110C41EAF8
S31508010540004107FB0CF8884504FA03F43AD97118F7
S3150801055007F1FF3001D288451FD8A1EB0801B1FB8D
S31508010560FEF808FB0CF70EFB181192B242EA01429B
S31508010570BA422FD2B21808F1FF31C6D2BA42C4D252
S31508010580A8F102013244C0E7F0459CD2BEEB020352
S3150801059067EB0C070138B94695E7A6EB080841440D
S315080105A0B81EB1FBFEF808FB0CF7DCE73B467FE714
S315080105B0504667E70846FBE63444023832E7023F0D
S315080105C032441BE7A1EB08013846B1FBFEF808FBEC
S315080105D00CF7C8E7414698E7704700BF2DE9F04F89
S315080105E0E1B00F469DF8A89115469846824620B96E
S315080105F00124204661B0BDE8F08FFFF7FBFD84B208
S31508010600FA2CF5D82246514620A803F0A5F920AAC6
S315080106100D23135504F1020A0134A4B20A23135512
S3150801062000214FF480724448444E03F01DF900231B
S315080106304348338002F00EFE01F006FC1FFA8AFADF
S3150801064000F1320401F000FCA04207D23C48052320
S315080106500122694602F0A6FD0028F3D0394A3A4933
S31508010660DFF8DCB0684603F09FF84FF47A7314227A
S315080106706946364802F048FD4FF47A73524620A976
S31508010680324802F041FD4346524620A9584602F037
S315080106903BFD04460028ABD1B9F1000FA9D0DFF81C
S315080106A098904346FF224946584602F07BFDBBF81F
S315080106B02E30244A2649C3F1FF039BB2684609F83E
S315080106C00340338003F070F84FF47A7314226946B5
S315080106D01E4802F019FD32881C484FF47A7392B20B
S315080106E0494602F011FD8FB185B133889BB26BB1D2
S315080106F0338811499BB2013DAB42B8BF3588ADB2CB
S315080107002A46384603F028F900237B5511490A4839
S3150801071003F0D7F800287FF46CAF0F49064803F0B9
S31508010720D0F800287FF464AF3488A4B2B4FA84F40C
S31508010730640964005DE700BFAE000020AC0000203C
S3150801074050130020D5510108244B0108C813002075
S315080107502D4B01085C4F01085E4B0108BFF34F8F13
S315080107600549064BCA6802F4E0621343CB60BFF33E
S315080107704F8F00BFFDE700BF00ED00E00400FA055A
S3150801078030B5C1B0044603460F4A8021684602F0D7
S31508010790D5FF234605460D4A0D4920A803F004F85E
S315080107A020A982B264230B4802F0AEFC4FF47A7397
S315080107B0AAB26946084802F0A7FC642001F04AFB80
S315080107C072B6FFF7CBFF00BF364B01080852010886
S315080107D04D4B0108C81300205013002010B50446DC
S315080107E0FFF708FD214682B24FF4FA63054802F085
S315080107F08BFCBDE81040044902484FF4FA73022203
S3150801080002F082BC501300209E4C010838B50D4CED
S315080108102288B2B10C4D0D49286800F01EFF50B967
S315080108200B4B1B782BB10B48FFF7D8FF0A48FFF78C
S31508010830A7FF0A48F8E723882A6813442B60002390
S31508010840238038BDAE010020C0020020B00100207F
S31508010850BD020020564B0108734B0108644B010881
S3150801086030B5234D2B780C2B87B006D12149224868
S31508010870FFF7B6FC18B90E232B7007B030BD1F4918
S315080108801D48FFF7ADFC04460028F6D10146019044
S31508010890102202A802F0E8FF19491A4801AB02AA78
S315080108A002F0A4FF0128E8DD019B002BE5D0B3F592
S315080108B0003F05D91448FFF791FF1448FFF760FF79
S315080108C0062000F06DFE20B90F48FFF787FF104894
S315080108D0F4E71048FFF782FF0F4B019A1A600F4B96
S315080108E01C600F4B1C800F4B01221A700D23C3E7A6
S315080108F04E130020884B0108CA020020924B0108BA
S315080109009A4B0108D1020020A24B0108AE4B0108FF
S31508010910C74B0108E04B0108C4020020C0020020B1
S31508010920BE020020BD02002070B5244D2B780F2B86
S3150801093086B040D122492348FFF752FC20B96420EA
S3150801094001F088FAFFF70AFF1F491E48FFF748FC1E
S31508010950044600282FD1102601460190324602A8E6
S3150801096002F082FF19491A4801AB02AA02F03EFFBA
S31508010970012820DD019BF3B1B3F5003F05D91548E0
S31508010980FFF72CFF1448FFF7FBFE062000F008FED0
S3150801099020B91048FFF722FF1048F4E71048FFF77F
S315080109A01DFF104B019A1A600F4B2E701C600F4BDE
S315080109B01C800F4B1C7006B070BD00BF4E13002083
S315080109C0EC4B0108CA020020F74B01089A4B0108B3
S315080109D0D2020020004C01080D4C0108C74B010842
S315080109E0274C0108C4020020C0020020BE020020D4
S315080109F0BD02002007490B88B3F5805F10B508D200
S31508010A00054A064C12881A44C2F30B020133A05454
S31508010A100B8010BD4A0300204C0300204E03002022
S31508010A202DE9F041ADF50C7D4FF4807200210CA83B
S31508010A3002F01AFFAD4BAE4DAE4AAF4900261E80F5
S31508010A40AE4B2E701E80AE4B1E80AE4B4CAC1E605C
S31508010A50AD4B20461E6002F0A7FE4FF47A732222A0
S31508010A602146AA4802F050FBA24AA949204602F0AB
S31508010A709BFE4FF47A732E222146A44802F044FBCA
S31508010A8001224FF40051A34801F060FE4FF4FA70B9
S31508010A9001F0E0F9974AA049204602F085FE4FF495
S31508010AA07A732D222146994802F02EFB32464FF4DD
S31508010AB00051984801F04AFE4FF4FA7001F0CAF95C
S31508010AC08C4A9649204602F06FFE4FF47A732B2220
S31508010AD021468E4802F018FB32464FF480418D4874
S31508010AE001F034FE4FF4FA7001F0B4F901224FF423
S31508010AF08041884801F02AFE894B1968CA6822F4A0
S31508010B000052CA60196801F1140252E8002F22F452
S31508010B100072143141E80026002EF3D19A69814901
S31508010B2022F400729A611A68D36843F40053D360B9
S31508010B302046704A02F038FE02AF4FF47A732B2230
S31508010B402146724802F0E0FA28223146384602F078
S31508010B508BFE4FF00A0842F2107307223946704895
S31508010B6002F020FB704B714A00978021204602F063
S31508010B70E5FD214682B24FF47A73644802F0C4FA5D
S31508010B806B49384602F09DFE002840F03D81B8F1D8
S31508010B900108E0D1674847E16748CDF800804FF47E
S31508010BA07A731146FFF71AFD074608B163483BE118
S31508010BB006222146624800F048FD2268614B9A42A6
S31508010BC0614B0CBFA08838461880604B18BF804619
S31508010BD083F8008000224FF001085D48CDF80080B7
S31508010BE04FF47A731146FFF7F9FC074608B15948DD
S31508010BF01AE15948CDF8008040F6B8334FF48072AF
S31508010C002146FFF7EBFCA0B1544B55491322184670
S31508010C1002F044FEC7740022012611465148009687
S31508010C204FF47A73FFF7DAFC024600283DD04E48A6
S31508010C30FAE04E49204602F044FED8B1437A222B07
S31508010C4014BF09300A30844610F8013BA3B9434A58
S31508010C5017461CF80630EBB1A3F130010A2904D96D
S31508010C6023F020014139052914D8132E0ED100236A
S31508010C70FB74D0E72046E6E7A3F13002092AE6D954
S31508010C8023F02003413B052BDDD8E0E702F8013BC1
S31508010C900136DEE70023BB55002EBCD130492F486B
S31508010CA0132202F0FBFDFE74B5E7014600963048B3
S31508010CB04FF47A73FFF792FC024608B12D48B3E068
S31508010CC0014600962C484FF47A73FFF787FC0246D3
S31508010CD008B12A48A8E00146009629484FF47A73D4
S31508010CE0FFF77CFC00284FD026489DE04C030020E6
S31508010CF04E13002022520108344C01084A030020F1
S31508010D00C8020020B4020020B0020020C813002047
S31508010D103F4C010800040240564C01086C4C01087E
S31508010D2050130020804C010813520108944C010805
S31508010D30A14C0108B64E0108B94C0108D44C01086A
S31508010D4000C000084C4C4557BA020020B8020020E2
S31508010D50E74C0108F44C0108084D01080000002081
S31508010D60144D0108304D0108424D0108264D010870
S31508010D705B4D01086F4D01088A4D0108A24D010816
S31508010D80C14D0108F04D0108284800964EF660232A
S31508010D90FF220CA9FFF722FC074608B1244843E0C5
S31508010DA00523244A24492B70204602F0FDFC2146DE
S31508010DB022484FF47A73312202F0A6F920490CA889
S31508010DC002F07FFDB8B13A461E4800964FF4FA6321
S31508010DD03946FFF703FC024608B11B4824E00146E1
S31508010DE000961A484FF4FA63FFF7F8FB08B118485A
S31508010DF01AE006232B7017491748012202F08DFCC9
S31508010E000DF50C7DBDE8F08100224FF00108114671
S31508010E101248CDF800804FF47A73FFF7DFFB0246DC
S31508010E2000283FF4B9AE0E48FFF7AAFC264E010882
S31508010E30354E0108225201084B4E0108C8130020FD
S31508010E40654E01086E4E0108874E01089B4E010842
S31508010E50A54E0108BC02002050130020CD4E010802
S31508010E60A74C01080268084B9A4210B50AD1074CEB
S31508010E702078FFF7BFFD21460548BDE8104001224D
S31508010E8002F04BBC10BD00BF00440040BC0200206C
S31508010E90501300202DE9F04F9D4DA7B09D4C2378A6
S31508010EA0062B71D19C4A9D4906A802F07DFC4FF498
S31508010EB07A739B48232206A902F026F9994B1B78D7
S31508010EC0002B47D007232370974E934A33889749B7
S31508010ED006A802F069FC4FF47A7382B206A9904813
S31508010EE002F012F93388924A402106A802F026FC3C
S31508010EF006A8FFF773FC082323708E4EDFF8988245
S31508010F0033688D4F53B1DFF89492B8F800103B88D7
S31508010F1021B12A6830688242C0F0A480DFF880B225
S31508010F20BBF800C03B88B8F80010DFF870A2DFF8FC
S31508010F306492002062468646002940F0DE8108B1A7
S31508010F40ABF80020BEF1000FA8D00022A8F80020B7
S31508010F503B80A3E709232370784B6F4A784906A893
S31508010F6002F022FC4FF47A7382B206A96C4802F0A9
S31508010F70CBF8724B734A402106A802F0DFFB06A89C
S31508010F80FFF72CFC0A23B7E7072B9DD0092BE3D0E3
S31508010F900B2B27D16C4802AA002310F8011F21B197
S31508010FA00133082B02F8011BF7D198336B44002251
S31508010FB003F8902C6549584A02AB06A802F0F4FBDF
S31508010FC04FF47A7382B206A9554802F09DF802AB2E
S31508010FD05F4A402106A802F0B1FB06A8FFF7FEFB0F
S31508010FE00C2389E70E2B88D15A4E5B4F5B490822A1
S31508010FF0304602F029FC002800F0DD810836BE42A1
S31508011000F4D157490F2202A802F048FC00238DF8B3
S3150801101017300FE00130082803F8012B03D016F822
S31508011020012F002AF6D100F198030DEB03000023E6
S3150801103000F8903C384A4B4902AB06A802F0B4FBCB
S315080110404FF47A7382B206A9354802F05DF802AB0D
S31508011050454A402106A802F071FB06A8FFF7BEFB28
S315080110600F2349E7DFF83CC119F8030001390133B9
S31508011070A8F80010BCF80010C3F30B033B804B1C07
S315080110809BB2ACF80030DFF820C10132FF2B0CF817
S3150801109001002A6001D9FFF7B9FB2A6833689A4229
S315080110A0FFF433AFFFF7B2FB304B1B78ABB13048D7
S315080110B0FFF794FB2F4A138801331380002333600B
S315080110C02B602D4B1A682D4B1B689A42FFF426AFED
S315080110D0642000F0BFFEFFF741FB2948E8E72949EC
S315080110E0294806AB02AA02F081FB02287FF4D6AE94
S315080110F0204B1A88029B9A4205D02448FFF76EFBBB
S315080111002348FFF73DFB069B3360C5F80090C5E60B
S31508011110B00200204E130020EC510108344C01089E
S31508011120C8130020B8020020BA020020D84E0108D0
S31508011130EC4E0108B40200204C03002000000020F8
S31508011140F64E01080B4F01083F550108164F0108D5
S315080111502A4F010800000608B0FF0708E4510108F4
S31508011160E94F0108344F0108494F0108BD02002023
S31508011170544F0108BE020020C0020020C40200200C
S315080111805F4F01087E4F0108D2020020564B010825
S31508011190844F0108CA0200204A0300204E0300209A
S315080111A0C8020020AE010020B0010020BAF1050FE7
S315080111B042D18249824802F084FB00283FF4B0AE4E
S315080111C0804802F047F8804B804A402106A802F081
S315080111D0B5FA4FF0010900221146CDF800904FF4F7
S315080111E0FA6306A8FFF7FAF9024608B1784888E7CC
S315080111F00146CDF8009077484FF4FA63FFF7EEF908
S31508011200024608B174487CE70146CDF80090734858
S315080112104FF4FA63FFF7E2F908B1714871E77149CA
S3150801122068484A4602F079FA6F4B1B78002B0CBFC7
S3150801123009230723237073E6BAF1080F0FD16B4907
S315080112405F48FEF7CDFF08B90B23F3E768495C4809
S31508011250FEF7C6FF00287FF463AE0923EAE7BAF171
S315080112600A0F36D163495648072202F005FB0028C2
S315080112707FF456AE524B604902AAD81D02F0B6FA5F
S31508011280012882467FF44CAE029BBDF80820B3F5CF
S31508011290803FBFF445AE1FFA83F9584BADF81C20C1
S315080112A0A3F80090564B069303204FF6FF73ADF84B
S315080112B01E3000F075F90028C6D05248082206A942
S315080112C000F08BF94D4BA3F80090474B83F800A02B
S315080112D0BAE74D4B1B7813B1FFF7C2FA20E6BAF10C
S315080112E0100F02D1FFF720FB1AE6BAF10C0FF3D063
S315080112F0BAF10F0F7FF414AEF4E71AF803E00139D7
S315080113000133BEF10A0FC3F30B0389B246D1002894
S3150801131018BF94463B802A4BA8F800104FF00002EC
S3150801132003F80C204FF00003384AABF8003080214F
S31508011330234B06A802F002FA4FF47A7382B206A981
S31508011340334801F0E1FE94F800A0BAF10D0F03D07D
S31508011350BAF1100F7FF42AAF2E491948082202F074
S315080113608BFA814600283FF4BAAE2B491448092264
S3150801137002F082FA81460028ABD12849284806ABF3
S3150801138002AA02F033FA02287FF488AD254B1A889F
S31508011390029B9A423FF4B7AE2348AFE6BEF10D0F62
S315080113A006D07E2A9FBF501C09F802E082B20120AE
S315080113B04FF0010EC0E5173602AB30E6654E01085F
S315080113C0CA02002050130020000000209D4F01088A
S315080113D0AD4F01086E4E0108874E01089B4E010864
S315080113E0A54E0108BC020020B8020020BF4F010823
S315080113F0C94F0108D14F0108F34E0108BA0200206E
S315080114004C4C455700C00008BD020020D94F0108C1
S31508011410C81300206B4F0108744F01087E4F01085D
S31508011420D3020020BE020020644B010870B50F4AA2
S315080114300F4E104B904218BF1E4600F158039E42AC
S3150801144002D20025284670BD0B490822054602F03E
S31508011450FBF905F1080430B908490822204602F0CB
S31508011460F3F90028EED02046E7E700BF000004089C
S3150801147000000608000008085D52010855520108D7
S3150801148070B53F48A4B0FFF7D1FF044600283DD008
S31508011490456A3C4BA5F158029A4237D803F10063D5
S315080114A003F500332B44984230D1374908222830B6
S315080114B002F0CAF950BB08A800F0C2FA3049A5F1F2
S315080114C0300208A800F0E8FA2F49082208A800F017
S315080114D0E3FA08222D4908A800F0DEFA694608A8A9
S315080114E000F0F6FA202204F13801684602F0ACF958
S315080114F060B9BFF34F8F2649264BCA6802F4E062EA
S315080115001343CB60BFF34F8F00BFFDE7224D28463B
S31508011510FFF78CFF044680B3466A1A4BA6F15802B8
S315080115209A422AD803F1006303F58023334498428B
S3150801153023D11A490822283002F086F9E8B9134955
S31508011540082204F1300002F07FF9B0B908AAA6F121
S315080115502001284600F010FB202204F138010DEB8A
S31508011560020002F071F940B92A686B6872B682F313
S31508011570088824B0BDE87040184724B070BD00BF84
S3150801158000000408A8FF01004D5201083D52010858
S3150801159000ED00E00400FA050000060845520108BE
S315080115A030B587B000250728044600950ED800F007
S315080115B025FE022303946946012401A80195059392
S315080115C0049400F029FF20B100F02AFE002007B09C
S315080115D030BD00F025FE2046F9E783072DE9F743DC
S315080115E006460D4614462CD100F008FE24F00309E0
S315080115F0A9442F46761BB94506EB070816D114F000
S3150801160003020FD024F00304D8F8003001932919F6
S3150801161001A802F0A1F9019A00234146022000F02F
S3150801162031FE60B900F0FCFD01200BE057F8042BF0
S3150801163000234146022000F025FE0028DBD000F0F9
S31508011640EFFD002003B0BDE8F08308B50B4601465F
S31508011650184602F081F9012008BD034613F0030F6D
S3150801166000F1006010B400F5802007D11344B3F5EA
S31508011670003F03D85DF8044BFFF7AFBF00205DF8C4
S31508011680044B704710B594B0102200210AA802F045
S31508011690EBF81422002103A802F0E6F8204B0021FA
S315080116A001911A6C42F080521A641B6C1D4A03F0B0
S315080116B080530193019B0291136823F4404343F439
S315080116C000431360136803F440430293029B01220B
S315080116D04FF480330224CDE908234FF48003CDE982
S315080116E00E430C214823CDE9101308A804231294AC
S315080116F0139301F045F808B172B6FEE70F23CDE959
S3150801170003344FF48053CDE906300590214603A8EA
S3150801171001F088FA08B172B6FEE714B010BD00BF31
S31508011720003802400070004070B5A6B000F066FBB4
S3150801173062B6FFF7A7FF1422002106A802F094F863
S315080117400024614B01941A6B604842F004021A6343
S315080117501A6B02F004020192019A02941A6B42F082
S3150801176080021A631A6B02F080020292029A0394AB
S315080117701A6B42F001021A631A6B02F00102039214
S31508011780039A04941A6B42F002021A631A6B02F066
S3150801179002020492049A05941A6B42F008021A632B
S315080117A01B6B03F00803059322464FF40051059B72
S315080117B000F0CCFF454801224FF4804100F0C6FFF6
S315080117C0224643484FF4805100F0C0FF032542F6F4
S315080117D0FF733F48089406A9CDE9063500F080FE57
S315080117E048F2F0133B48089406A9CDE9063500F0FE
S315080117F077FE49F2FF733548089406A9CDE90635FF
S31508011800012600F06DFE4FF4C043304806A9CDE924
S315080118100636CDE9084400F063FE4FF480532C48A0
S3150801182006A9CDE90636CDE9084400F059FE042398
S315080118302948089406A9CDE9063500F051FE274A3C
S31508011840274B13604FF4E1360C251046C2E90164B3
S31508011850C2E90554D4601461D46101F0CBFE08B124
S3150801186072B6FEE71F4C204BC4E90200C4E9040521
S31508011870C4E906002046C4E9003601F0BBFE08B1FA
S3150801188072B6FEE7194906A802F05EF818220DEBB2
S3150801189002014FF47A73204601F036FCFFF7F0FD9A
S315080118A0FFF7BEF8124906A802F04EF84FF47A730C
S315080118B0252206A9204601F027FCFFF7EBFA0A20A4
S315080118C000F0C8FADEE700BF003802400004024013
S315080118D00008024000000240000C0240501300209C
S315080118E000440040C813002000100140EF4F0108D2
S315080118F008500108704700002DE9F04FCBB00AAA3D
S3150801190001F1400514464B780E781B0443EA066339
S31508011910CE7833438E78043143EA06238D4244F860
S31508011920043BF0D11024916B16464FEAF14383EA42
S31508011930714383EA9123716A366852F8045F314428
S315080119400B444FEAB54181EAF51181EAD501013423
S315080119500B44402CD363E6D1036D0093436D019389
S31508011960836D0293C36D0393036E0493436E0593CC
S31508011970836E0693C36E0793DDE9067ADDE9041CD7
S31508011980DDE90258DDE900462C4B08934FF0000EBD
S315080119900DF12809089A52F8043B08924FEAF122F8
S315080119A082EAB11282EA7162099259F82E2003EB92
S315080119B0020B099A27EA01035A4401EA0C0B83EA46
S315080119C00B031A44524486EA05034FEA743A06EAB7
S315080119D0050B8AEAB40A23408AEAB45A83EA0B0356
S315080119E00EF1010E5344BEF1400F02EB080B1344EE
S315080119F0A846BA461AD1009A1A44019B026523449D
S31508011A004365029B33448365039B2B44C365049B4F
S31508011A105B440366059B0B444366069B63448366E6
S31508011A20079B3B44C3664BB0BDE8F08F6746354616
S31508011A308C46264659461C46ACE700BF6852010843
S31508011A400023002203640023C0E912230B4B0C4A2E
S31508011A500C49DFF840C0C0E914230B4BC0E9161343
S31508011A600A4BC0E918C30A4B836603F17453A3F5FD
S31508011A702303A3F69243C366704700BF85AE67BBCF
S31508011A8067E6096A72F36E3C3AF54FA58C68059BC1
S31508011A90ABD9831F7F520E5170B50C468D1800269F
S31508011AA0AC4200D170BD036C14F8012BC25401334A
S31508011AB0402B0364F4D10146FFF71EFFD0E9123229
S31508011AC013F5007342F10002C0E912320664E7E732
S31508011AD070B5056C8022372D425504460E4600EB3B
S31508011AE0050337D800F1370200219A422FD1D4E9EC
S31508011AF01223ED00AD1843F10003C4E912531BBAD2
S31508011B002DBAC4E90E3521462046FFF7F5FE013EFA
S31508011B101823226DDA4006F8012F626DDA40327118
S31508011B20A26DDA403272E26DDA403273226EDA4021
S31508011B303274626EDA403275A26EDA403276E26E3D
S31508011B40DA40083B13F1080F3277E2D170BD03F88A
S31508011B50011FCAE7C0F101010020CA183F2A08D9A6
S31508011B6021462046FFF7C8FE3822002101F07CFEF7
S31508011B70BDE703F8010FF0E710B59CB00023144642
S31508011B80109300220023CDE91223104A104BDFF8E7
S31508011B9050C0DFF850E0CDE914230E4BCDE916C34A
S31508011BA00D4BCDE918E30D4B1A9303F17453A3F5C5
S31508011BB02303A3F692430A46014668461B93FFF799
S31508011BC06BFF2146FFF784FF1CB010BD67E6096A63
S31508011BD085AE67BB3AF54FA58C68059BABD9831FC4
S31508011BE072F36E3C7F520E5182B00C4B002100916C
S31508011BF05A6C42F480425A645A6C02F4804200924A
S31508011C00009A01911A6C42F080521A641B6C03F017
S31508011C1080530193019B02B0704700BF0038024010
S31508011C2010B514228AB0044600210DEB020001F01A
S31508011C301BFE23682A4A934224D12A4B002101918B
S31508011C405A6C42F010025A645A6C02F01002019260
S31508011C50019A02911A6B42F001021A631B6B03F097
S31508011C60010302934FF4F050029B0223CDE90503C9
S31508011C70032407231C4805A9CDE9084300F030FCD5
S31508011C800AB010BD194A9342FAD1164B16480024D8
S31508011C9003941A6C42F400321A641A6C02F4003284
S31508011CA00392039A04941A6B42F001021A631B6B9E
S31508011CB003F001030493049B0F220223CDE90523B4
S31508011CC003210723CDE9081305A900F009FC2246DB
S31508011CD02146262000F0F0F8262000F02FF9CFE75C
S31508011CE00010014000380240000002400044004054
S31508011CF0FEE7FEE7FEE7FEE7FEE770477047704737
S31508011D0000F096B8014801F0FBBA00BF5013002055
S31508011D100A4A0346106810B508B909481060094906
S31508011D20094C0344091B8B4206D901F0E1FD0C233A
S31508011D3003604FF0FF3010BD1360FCE7401400202C
S31508011D40901500200080012000040000034AD2F803
S31508011D50883043F47003C2F88830704700ED00E01C
S31508011D60DFF834D0FFF7F2FF0C480D490D4A00237E
S31508011D7002E0D458C4500433C4188C42F9D30A4A31
S31508011D800A4C002301E013600432A242FBD301F09E
S31508011D90B5FDFFF7C9FC704700800120000000204F
S31508011DA0900000209454010890000020901500200E
S31508011DB0FEE7000038B50E4B1A784FF47A73B3FB79
S31508011DC0F2F30C4A05461068B0FBF3F000F0CAF8C6
S31508011DD0044658B90F2D09D8024629464FF0FF3057
S31508011DE000F06AF8044B20461D6038BD0120FCE767
S31508011DF018000020140000201C00002008B50B4B19
S31508011E001A6842F400721A601A6842F480621A600B
S31508011E101A6842F480721A60032000F02FF80F2026
S31508011E20FFF7C8FFFFF7E0FE002008BD003C0240AF
S31508011E30034A044B11681B780B441360704700BFB3
S31508011E404414002018000020014B1868704700BF91
S31508011E504414002038B50446FFF7F6FF631C1CBF7F
S31508011E60054B1B78054618BFE418FFF7EDFF431B22
S31508011E70A342FAD338BD00BF18000020C31E042BA5
S31508011E8010B5044603D90A489021FFF733FD0949DD
S31508011E90CA6822F4E0622302120403F4E063120C16
S31508011EA0134343F0BF6343F40033CB6010BD00BF57
S31508011EB02E50010800ED00E00F2A70B505460C46C4
S31508011EC0164603D91A48A821FFF714FD0F2C03D982
S31508011ED01748A921FFF70EFD164BD968C1F3022150
S31508011EE0C1F107030A1D042B28BF0423062A4FF054
S31508011EF0FF328CBF0339002102FA03F324EA0303F4
S31508011F008A4026EA02068B40002D43EA0603ACBF47
S31508011F1005F16045084A4FEA0313B8BF05F00F05F6
S31508011F20DBB2AABF05F56145535585F8003370BD87
S31508011F302E50010800ED00E014ED00E0002808DB52
S31508011F40064A4109012300F01F00834042F8213067
S31508011F5070470348BC21FFF7CDBC00BF00E100E094
S31508011F602E5001080138B0F1807F0BD24FF0E023E3
S31508011F70054A5861F02182F823100020072298614A
S31508011F801A6170470120704700ED00E070B50446FC
S31508011F90866DFFF759FF94F83530022B054606D0B2
S31508011FA0802363650120002384F8343070BD2368DB
S31508011FB01A6822F016021A605A6922F080025A61DA
S31508011FC0226C0AB9A26C1AB11A6822F008021A60C0
S31508011FD01A6822F001021A602368186810F00100D5
S31508011FE007D1E26D3F239340B360012384F835306E
S31508011FF0D9E7FFF729FF401B0528EDD92023032040
S31508012000636584F83500CEE790F83530022B03D0A6
S3150801201080234365012070470268052380F835301F
S31508012020136823F00103136000207047204BDA6818
S31508012030D00606D51F49CA6942F01002CA611022A4
S31508012040DA60DA68910606D51A49CA6942F00802C1
S31508012050CA612022DA60164BDA68520606D5154996
S31508012060CA6942F00402CA614022DA60DA681006D7
S3150801207006D51049CA6942F00202CA618022DA60AD
S315080120800B4BDA68D10507D50A49CA6942F001023C
S31508012090CA614FF48072DA60DA68920706D5054993
S315080120A0CA6942F02002CA610222DA60704700BF9B
S315080120B0003C02402000002038B500F17843B3F512
S315080120C0002F04460D460BD300F1604303F5084380
S315080120D0B3F5047F04D3094840F2BA21FFF70AFC95
S315080120E0074B1A6922F440721A611A691A611A6948
S315080120F042F001021A61257038BD00BF6950010816
S31508012100003C024038B500F17843B3F5002F044688
S315080121100D460BD300F1604303F50843B3F5047F7D
S3150801212004D30A4840F2A121FFF7E4FB084B1A69D8
S3150801213022F440721A611A6942F480721A611A69A4
S3150801214042F001021A61258038BD00BF69500108B5
S31508012150003C024038B500F17843B3F5002F044638
S315080121600D460BD300F1604303F50843B3F5047F2D
S3150801217004D30A484FF42271FFF7BCFB084B1A69CE
S3150801218022F440721A611A6942F400721A611A69D4
S3150801219042F001021A61256038BD00BF6950010885
S315080121A0003C024070B51D4600F17843B3F5002F97
S315080121B0044616460BD300F1604303F50843B3F50D
S315080121C0047F04D30B4840F26621FFF793FB0A49C3
S315080121D00B6923F440730B610B6943F440730B617C
S315080121E00B6943F001030B612660BFF36F8F6560CE
S315080121F070BD00BF69500108003C0240064B1A69D0
S31508012200002ABFBF054A5A6002F188325A60BABF2E
S315080122101869C00F00207047003C0240230167453A
S31508012220034A136943F0004313610020704700BF56
S31508012230003C0240114B70B500220446DA61FFF7F3
S3150801224003FE0F4D0646EB68DA030CD4EB68DB0791
S3150801225044BF0123EB60E86810F4F97007D0FFF773
S31508012260E5FE012003E0611CEDD00CB9032070BD29
S31508012270FFF7EAFD801BA042E5D9F7E72000002019
S31508012280003C02402DE9F0411E4F98463B7E012B4A
S3150801229006460C46154632D0012303283B7603D958
S315080122A01948A921FFF726FB4CF25030FFF7C2FF68
S315080122B068B986B9E9B22046FFF7FEFE4CF25030FE
S315080122C0FFF7B8FF114A136923F0010313610023CD
S315080122D03B76BDE8F081012E04D1A9B22046FFF76D
S315080122E011FFEBE7022E04D129462046FFF732FFFC
S315080122F0E4E72A4643462046FFF754FFDEE7022075
S31508012300E7E700BF2000002069500108003C0240B1
S31508012310032838B504460D4604D90E4840F2B731AC
S31508012320FFF7E8FA012D04D00A484FF46E71FFF75A
S31508012330E1FA094B1A6922F440721A611A6942F0E4
S3150801234004021A61186940EA042040F480301861D1
S3150801235038BD00BFA3500108003C0240072838B524
S3150801236005460C4604D9144840F2D631FFF7C2FA9D
S31508012370032C1DD9104840F2D731FFF7BBFA4FF4A9
S3150801238040740E4B1A6922F440721A611A69224383
S315080123901A611A6922F0F8021A61186940EAC50039
S315080123A040F0020018611A6942F480321A6138BD98
S315080123B0E5D02402E5E700BFA3500108003C02402E
S315080123C0144B1A6891050FD51A6822F400721A601F
S315080123D01A6842F400621A601A6822F400621A60E6
S315080123E01A6842F400721A600A4B1A6852050FD528
S315080123F01A6822F480621A601A6842F480521A60D6
S315080124001A6822F480521A601A6842F480621A60C5
S31508012410704700BF003C02402DE9F843DFF8BC8055
S3150801242098F81830012B04460F4651D0012388F835
S3150801243018300368012B03D92648A921FFF75AFA50
S315080124404CF25030FFF7F6FE0546A8B94FF0FF33B8
S315080124503B602368012B15D16168207CFFF758FF83
S315080124604CF25030FFF7E6FE1B4A136923F00403CA
S3150801247005461361FFF7A4FF002388F8183028469C
S31508012480BDE8F883D4E902231344013B072B03D99A
S315080124901048C121FFF72EFAA668DFF83C90D4E967
S315080124A002231344B342E5D9217C3046FFF756FF90
S315080124B04CF25030FFF7BEFED9F8103023F0FA037C
S315080124C0C9F8103010B13E600546D3E70136E6E794
S315080124D00225D4E7A3500108003C02402000002051
S315080124E0944B98422DE9F74F04460D4617D003F54C
S315080124F08063984213D003F5806398420FD003F5A1
S31508012500806398420BD003F58063984207D003F5A0
S315080125104063984203D08848AC21FFF7EBF92B6852
S315080125209AB212B1B3F5803F03D38348AD21FFF7C1
S31508012530E1F96B68B3F5041F12D000F2EC80B3F52C
S31508012540881F0DD009D8032B0AD9113B012B07D9AE
S315080125507948AE21FFF7CEF902E0B3F5901FF7D11E
S315080125600027DFF8E091DFF8E0813E462B684FF05F
S31508012570010B0BFA06FB0BEA030A3BEA030340F0DD
S31508012580C1806B6803F00302013A012A18D8EB6887
S31508012590032B03D96848C021FFF7ACF9A2680323C6
S315080125A0BB4022EA0302EB68BB401343A3606B6896
S315080125B06168C3F3001221EA0B01B2400A43626063
S315080125C003F00303032B32D0AB68022B03D95A4815
S315080125D0D121FFF78FF9E2680323BB4022EA030200
S315080125E0AB68BB401343E3606B6803F00303022B3C
S315080125F01DD12B6963B1013B0E2B05D844F6FF3279
S3150801260022FA03F3DB0703D44B48DE21FFF772F9FD
S31508012610F20804EB820206F00701106A89000F230B
S315080126208B4020EA03002B698B4003431362206821
S31508012630032303FA07F220EA02006A6802EA0301A1
S31508012640B940014312F4403F21605BD03B494FF04A
S31508012650000BCDF804B0486C40F480404864496CDE
S3150801266001F480410191019926F0030101F18041AC
S3150801267001F59C3106EA030C88684FEA8C0C4FF089
S315080126800F0E0EFA0CFE20EA0E00DFF8A8E07445DC
S315080126904AD044454AD00EF5006E744548D00EF529
S315080126A0806E744504D0264B9C4214BF072304232D
S315080126B003FA0CF303438B60D9F808306FEA0A0171
S315080126C0D00254BF0B404AEA0303C9F80830D9F8C7
S315080126D00C30900254BF0B404AEA0303C9F80C3088
S315080126E0D9F80430900354BF0B404AEA0303C9F8EA
S315080126F00430D9F80030D20354BF0B404AEA030329
S31508012700C9F800300136102E07F102077FF42EAF03
S3150801271003B0BDE8F08FB3F5441F3FF421AF23F4AE
S315080127208013B3F5081F1AE75B46C1E70123BFE724
S315080127300223BDE700000240E050010800380240CC
S3150801274000100240003C01400004024070B50546F5
S3150801275016460C4621B9094840F29D11FFF7CAF8F9
S31508012760012E06D905484FF4CF71FFF7C3F8AC61BE
S3150801277070BD002EFBD12404F9E700BFE050010823
S315080127802DE9F3410446002842D003680F2B03D9EB
S315080127909948E621FFF7AEF82368DE0718D42368BF
S315080127A09D076ED42368190700F1C08023685A076C
S315080127B000F1E880A369022B04D98F4840F2CD11B4
S315080127C0FFF798F8A369002B40F05381002037E002
S315080127D0636833F4803206D0B3F5A02F03D0864858
S315080127E0EB21FFF787F8854B9A6802F00C02042A59
S315080127F007D09A6802F00C02082A0BD15B685902C5
S3150801280008D57E4B1B689A03C9D56368002BC6D1C8
S31508012810012015E06368794DB3F5803F13D12B6824
S3150801282043F480332B60FFF70FFB744E054633687C
S315080128309B03B4D4FFF708FB401B6428F7D9032090
S3150801284002B0BDE8F081B3F5A02F04D12B6843F49B
S3150801285080232B60E3E72A6822F480322A602A68FB
S3150801286022F480222A60002BDDD1FFF7EDFA064615
S315080128702B689F0393D5FFF7E7FA801B6428F7D9DE
S31508012880DDE7E368012B04D95B4840F21D11FFF728
S3150801289031F823691F2B04D957484FF48F71FFF775
S315080128A029F8564B9A6812F00C0F07D09A6802F06D
S315080128B00C02082A11D15B685D020ED44F4A1368CF
S315080128C0990702D5E368012BA2D11368216923F080
S315080128D0F80343EAC103136064E7E268484BB2B1FF
S315080128E001221A60FFF7B0FA444D06462B689B078A
S315080128F007D52B68226923F0F80343EAC2032B6044
S3150801290050E7FFF7A1FA801B0228EFD997E71A606B
S31508012910FFF79AFA394E054633689F077FF542AFA6
S31508012920FFF792FA401B0228F6D988E76369012B5B
S3150801293004D931484FF4AF71FEF7DCFF6269304BB9
S3150801294082B10122C3F8802EFFF77EFA2B4E054687
S31508012950736F9B073FF52AAFFFF776FA401B0228EC
S31508012960F6D96CE7C3F8802EFFF76EFA234E0546B3
S31508012970736F9F077FF51AAFFFF766FA401B0228A8
S31508012980F6D95CE7A368012B06D9052B04D01A48AA
S315080129904FF4C571FEF7AEFF184B1A6C12F0805250
S315080129A028D101921A6C42F080521A641B6C03F00A
S315080129B080530193019B0127124D2B68D80523D516
S315080129C0A3680E4D012B2FD12B6F43F001032B6703
S315080129D0FFF73AFA094E054641F28838336F9A07E6
S315080129E041D5002F3FF4E6AE044A136C23F0805319
S315080129F01364DFE60027DFE71951010800380240B2
S31508012A0000004742007000402B6843F480732B6036
S31508012A10FFF71AFA06462B68D905D1D4FFF714FA37
S31508012A20801B0228F7D90AE7052B04D12B6F43F03F
S31508012A3004032B67C8E72A6F22F001022A672A6F67
S31508012A4022F004022A67002BC2D1FFF7FDF941F2F1
S31508012A50883806462B6F9B07C3D5FFF7F5F9801B08
S31508012A604045F7D9EBE6FFF7EFF9401B4045B5D9E5
S31508012A70E5E6524DAA6802F00C02082A73D0022B29
S31508012A8061D1E36933F4800304D04D484FF4EB7107
S31508012A90FEF730FF236A023B3D2B04D9484840F232
S31508012AA0D711FEF727FF636A323BB3F5BF7F04D917
S31508012AB043484FF4EC71FEF71DFFA26A082A04D8B1
S31508012AC04FF4AA73D340D80704D43D4840F2D9112C
S31508012AD0FEF710FFE36A023B0D2B04D938484FF481
S31508012AE0ED71FEF707FF374B344E00221A66FFF7E2
S31508012AF0ABF90546336899011FD4D4E90732134364
S31508012B00626A2E4D43EA8213E26A43EA0263A26AC3
S31508012B105208013A43EA024373602A4B01221A66B4
S31508012B20FFF792F904462B689A013FF54FAEFFF776
S31508012B308BF9001B0228F6D981E6FFF785F9401BB8
S31508012B400228D7D97BE61F4B00221A66FFF77CF9C4
S31508012B5004462B689B017FF539AEFFF775F9001B13
S31508012B600228F6D96BE6012B3FF452AE6B68E2698F
S31508012B7003F4800191427FF44BAE216A03F03F02D0
S31508012B808A427FF445AE616A47F6C0721A40B2EBD3
S31508012B90811F7FF43DAEA26A520803F44031013A1F
S31508012BA0B1EB024F7FF434AEE26A03F07063B3EB24
S31508012BB0026F14BF0120002042E600BF0038024020
S31508012BC01951010800004742134908B58B6803F0FB
S31508012BD00C03042B1CD0082B1CD14A684B68496886
S31508012BE013F4800314BF0D480D48C1F3881118BFAB
S31508012BF0002302F03F02A1FB0001FDF759FB064B3A
S31508012C005B68C3F3014301335B00B0FBF3F008BD16
S31508012C100248FCE70248FAE70038024000366E012E
S31508012C200024F4002DE9F0410D46044610B90120AF
S31508012C30BDE8F0810368013B0E2B04D96D4840F2CB
S31508012C405A21FEF757FE072D04D96A4840F25B213F
S31508012C50FEF750FE684B1A6802F00702AA423DD3F6
S31508012C602268960742D42368D9076CD4624B1A683E
S31508012C7002F00702AA4200F29B8023685A0700F174
S31508012C80A08023681B0718D5236933F480520CD01A
S31508012C9023F40062B2F5A05F07D0B3F5C05F04D094
S31508012CA0544840F2CA21FEF725FE544A2169936821
S31508012CB023F4604343EAC1039360FFF785FF4F4B53
S31508012CC04F4A9B68C3F30313D35CD8404D4B186036
S31508012CD04D4B1868FFF76EF80020A9E7EAB21A709B
S31508012CE01B6803F00703AB42A1D1B9E7434B12F0C6
S31508012CF0040F1EBF996841F4E0519960100742BF5D
S31508012D009A6842F460429A60A36833F0800212D04E
S31508012D1023F02002902A0ED023F04002A02A0AD0DE
S31508012D2023F01002C02A06D0F02B04D0314840F215
S31508012D307E21FEF7DFFD314AA168936823F0F0038F
S31508012D400B4393608FE76368032B04D9294840F244
S31508012D508521FEF7CFFD6268284B012A1ED11B6823
S31508012D6013F4003F3FF463AF244EB36823F0030323
S31508012D701343B360FFF768F841F288380746B3682A
S31508012D80626803F00C03B3EB820F3FF46FAFFFF7F2
S31508012D905BF8C01B4045F2D9032049E7911E01297A
S31508012DA01B6802D813F0007FDCE713F0020FD9E79E
S31508012DB0EAB21A701B6803F00703AB427FF437AF18
S31508012DC05BE7E36833F480520CD023F40062B2F572
S31508012DD0A05F07D0B3F5C05F04D0064840F2C3210F
S31508012DE0FEF788FD054AE168936823F4E0530B432F
S31508012DF0936046E719510108003C02400038024039
S31508012E0070530108140000201C000020044B054AD9
S31508012E109B68C3F38223D35C034A1068D840704782
S31508012E20003802406853010814000020044B054A83
S31508012E309B68C3F34233D35C034A1068D840704792
S31508012E4000380240685301081400002070470268E0
S31508012E5002F10C0353E8003F23F490730C3242E865
S31508012E60003102680029F2D102F1140353E8003F48
S31508012E7023F0010302F1140C4CE800310029F3D1C7
S31508012E80036B012B0BD102F10C0353E8003F23F02E
S31508012E90100302F10C0C4CE800310029F3D1202370
S31508012EA080F84230002303637047806B0023C38593
S31508012EB0836D1847806B00232022C38580F8422042
S31508012EC00363436E1847000038B54268414B9A427E
S31508012ED0054604D9404840F69961FEF70BFDEB68B3
S31508012EE033F4005304D03C4840F69A61FEF702FDDC
S31508012EF02B6933F4806207D0B3F5C06F04D0364826
S31508012F0040F69B61FEF7F6FC6B694FF6F3721342C6
S31508012F1000D123B9304840F69C61FEF7EBFC2A68DC
S31508012F20E9681369286923F440530B431361AB68B5
S31508012F30D168034368690343E86921F4164121F01E
S31508012F400C0103430B43D3605369A96923F4407306
S31508012F500B435361214B9A4203D003F580639A428E
S31508012F6024D1FFF763FFEA691921B2F5004FD5E9C4
S31508012F700043A0FB01011CD1DA184FF0000545EB0F
S31508012F800503FDF795F96422B0FBF2F102FB110383
S31508012F90DB003233B3FBF2F303F007025B0002EB0B
S31508012FA0011203F4F8731344A36038BDFFF72EFF2B
S31508012FB0D9E79A009B0FFDF77BF96422B0FBF2F182
S31508012FC002FB11031B013233B3FBF2F303EB0113CB
S31508012FD0EAE700BFA037A0005151010800100140DF
S31508012FE0F7B505460C4617461E462A68136834EA9D
S31508012FF0030301D1002021E0701CF7D0FEF724FF5E
S31508013000C01B86421CD3DEB12B68DA685107ECD5A2
S31508013010802CEAD0402CE8D01A681207E5D500249E
S3150801302001941A6801925B6801932846019BFFF790
S315080130300EFF08236B6485F84040012003B0F0BDFC
S315080130400320FBE790F84230222B82B053D18168E6
S315080130500268836AB1F5805F3DD1016900293DD1D6
S315080130605268C2F3080223F8022B8362C38D013B1F
S315080130709BB2C385002B3ED10268D16821F020019D
S31508013080D160D16821F48071D160516921F00101C3
S315080130905161202280F842204363026B012A0268AB
S315080130A026D1036302F10C0353E8003F23F0100312
S315080130B002F10C0C4CE800310029F3D11368DB0648
S315080130C005D501911368019353680193019BC36E5A
S315080130D0818D02B0184739B9016929B95268D2B246
S315080130E01A70836A0133C0E7526802F07F02F7E774
S315080130F0436D02B0184702B0704770477047704772
S3150801310070477047704770472DE9F843984690F81D
S315080131104130202B04460E4617463FD100293FD0A1
S31508013120002A3DD021230025456480F84130FEF769
S315080131308BFEA368A784B3F5805F8146E78403D134
S3150801314023690BB935461E46E38C9BB253B94346F0
S315080131504A4640212046FFF743FF202350B984F809
S3150801316041300AE043464A4680212046FFF738FFA8
S3150801317028B1202384F841300320BDE8F88322686A
S315080131804EB935F8023BC3F308035360E18C0139A4
S3150801319089B2E184D8E716F8013BF6E70220ECE7A5
S315080131A00120EAE72DE9F8431F4690F84230202B23
S315080131B004460E46914648D1002948D0002A46D0F1
S315080131C022230025456480F842300563FEF73CFE5C
S315080131D0A368A4F82C90B3F5805F8046A4F82E90D6
S315080131E003D123690BB935461E46E08D80B218B95D
S315080131F0202384F842300AE03B46424620212046F5
S31508013200FFF7EEFE28B1202384F842300320BDE8FB
S31508013210F88323684EB95B68C3F3080325F8023BB4
S31508013220E38D013B9BB2E385DFE7A268B2F5805FD8
S3150801323002D032B9226922B95968C9B206F8011B06
S31508013240EEE7596801F07F01F8E70220DFE7012080
S31508013250DDE7000010B50446226802F10C0353E8C5
S31508013260003F23F490730C3242E8003123680029A9
S31508013270F2D103F1140252E8002F22F0010203F100
S31508013280140040E800210029F3D1226B012A0BD151
S3150801329003F10C0252E8002F22F0100203F10C0090
S315080132A040E800210029F3D15A6912F040021FD0E3
S315080132B003F1140252E8002F22F0400203F1140030
S315080132C040E800210029F3D1E06B48B10B4B0365B7
S315080132D0FEF79AFE10B1E06B036D9847002010BD0A
S315080132E02023E08584F842302063636E2046F4E7A4
S315080132F02023E28584F842302263F6E7B52E0108D9
S3150801330003681A6873B51607D9685D69044608D152
S3150801331096066AD58D0668D502B0BDE87040FFF7F6
S3150801332091BE05F0010001F4907505435DD0D607FD
S3150801333005D5CD0542BF636C43F0010363645307AA
S3150801334004D518B1636C43F002036364960704D588
S3150801335018B1636C43F004036364150707D501F0DC
S31508013360200303431EBF636C43F008036364636C65
S31508013370002B38D0920604D58B0602D52046FFF7D6
S3150801338061FE26687369626C03F0400302F0080265
S3150801339053EA020523D02046FFF759FD73695E06F5
S315080133A01BD5226802F1140353E8003F23F04003BA
S315080133B0143242E800310029F3D1E06B50B1794B60
S315080133C00365FEF721FE70B1E06B036D02B0BDE83F
S315080133D070401847A36D2046F8E7A36DF6E7A36D7D
S315080133E020469847656402B070BD206B012840F0FD
S315080133F09E80D50640F19B80C80640F19880002240
S3150801340001921A6801925A680192019A5969A28D24
S31508013410490659D5E06B0168496889B2002949D03E
S31508013420914247D2C269E185B2F5807F36D003F170
S315080134300C0252E8002F22F4807203F10C0040E8D6
S3150801344000210029F3D103F1140252E8002F22F0DA
S31508013450010203F1140040E800210029F3D103F128
S31508013460140252E8002F22F0400203F1140040E84A
S3150801347000210029F3D1202284F84220216303F197
S315080134800C0252E8002F22F0100203F10C0040E86A
S3150801349000210029F3D1E06BFEF778FD022363636F
S315080134A0E38DA18DC91AE36E89B2204602B0BDE843
S315080134B070401847914296D1C369B3F5807F92D17E
S315080134C002236363E36EF0E7E18DE08D80B289B292
S315080134D0002888D0521A91B2002984D003F10C022F
S315080134E052E8002F22F4907203F10C0545E80020FA
S315080134F00028F3D103F1140252E8002F22F0010249
S3150801350003F1140545E800200028F3D1202284F8A8
S315080135104220206303F10C0252E8002F22F0100228
S3150801352003F10C0545E800200028F3D1C8E7160683
S3150801353028D50D0626D594F84120212A7FF453AFC4
S31508013540A168226AB1F5805F17D12169A9B932F854
S31508013550021BC1F3080159602262E28C013A92B258
S31508013560E284002A7FF43FAFDA6822F08002DA604B
S31508013570DA6842F04002DA6035E7511C21621278B6
S315080135805A60EAE750067FF52EAF4A067FF52BAF5C
S31508013590DA6822F04002DA60202384F84130E36CCD
S315080135A019E700BFAB2E0108094B8364094BC364B5
S315080135B0094B0365094B4365094B8365094BC3658C
S315080135C0094B0366094B4366094BC366704700BF3F
S315080135D0FD300108FB300108FF300108650E0108BE
S315080135E001310108033101080531010807310108D4
S315080135F04D2E010810B5044600286BD08169036871
S31508013600354A00295AD093420CD0A2F54C4293422E
S3150801361008D002F55042934204D0304840F2731163
S31508013620FEF768F9A36933F4407304D04FF4BA710D
S315080136302A48FEF75FF9A36833F4805304D0274874
S315080136404FF4BD71FEF756F9E36933F4004304D02C
S31508013650224840F27B11FEF74DF994F8413003F008
S31508013660FF0253B984F840202046FFF79DFF236FD8
S315080136700BB91B4B2367204698472268242384F8F5
S315080136804130D36823F40053D3602046FFF71CFC6E
S3150801369023681A6922F490421A615A6922F02A02A9
S315080136A05A61DA6842F40052DA6000202023606425
S315080136B084F8413084F84230606310BD9342BAD031
S315080136C0084A9342B7D002F550429342B3D04FF419
S315080136D0BC71ADE70120F0E7001001405151010826
S315080136E0211C010800440040C28500238285026925
S315080136F04364222380F84230816203681AB1DA688A
S3150801370042F48072DA605A6942F001025A61DA6853
S3150801371042F02002DA600020704770B590F84260E6
S31508013720202E07D141B13AB100240463FFF7DCFF2B
S31508013730204670BD0220FCE70120FAE70CB430B53B
S31508013740184B0C1E1D689DB008DA8B232B604FF0B1
S31508013750FF301DB0BDE8304002B070474FF4027328
S31508013760ADF814304FF000031B9314BF04F1FF3377
S315080137702346049307934FF6FF7302900690ADF81C
S315080137801630209A21AB02A92846019300F04AFA7D
S31508013790431CBCBF8B232B60002CDAD0029B002272
S315080137A01A70D6E7400000200EB410B59DB01FABC5
S315080137B0029006906FF000410A48079104910A4960
S315080137C053F8042B0591002402A9006801931B9460
S315080137D000F028FA029B1C701DB0BDE8104003B02A
S315080137E0704700BF400000200802FFFF0EB470B505
S315080137F09DB021AC00254FF4017254F8046BADF865
S3150801380014201B9502900690FCF7F4FC0B4B0390D1
S3150801381007900B480B934FF6FF73ADF816303246F7
S31508013820234602A900680F951495019400F04CFBF4
S315080138301DB0BDE8704003B0704700BF45380108A8
S31508013840400000200020704710B50139024490421B
S3150801385001D1002005E0037811F8014FA34201D0F8
S31508013860181B10BD0130F2E702440346934200D10A
S31508013870704703F8011BF9E710B56AB101398418D5
S3150801388010F8012B11F8013F9A4203D1A04201D049
S31508013890002AF5D1D01A10BD1046FCE710B501393A
S315080138A0034632B111F8014F03F8014B013A002CD6
S315080138B0F7D11A440021934200D110BD03F8011B28
S315080138C0F9E70A7870B56AB970BD9A4209D10C460A
S315080138D0054614F8013F002BF6D015F8016F9E42F4
S315080138E0F7D001300378002BEFD11846ECE700003A
S315080138F0014B1868704700BF4000002070B50D4B9A
S315080139000D4D5B1B9C100026A64209D101F0F8F863
S315080139100A4D0B4B5B1B9C100026A64205D170BDB8
S3150801392055F8043B98470136EEE755F8043B9847A6
S315080139300136F2E78C5401088C5401088C540108AD
S315080139409054010870477047034611F8012B03F894
S31508013950012B002AF9D170470A44914200F1FF333D
S3150801396000D1704710B511F8014B03F8014F914288
S31508013970F9D110BD38B50546002941D051F8043CA6
S315080139800C1F002BB8BFE41800F0E0F81D4A1368B5
S3150801399033B9636014602846BDE8384000F0DCB8E6
S315080139A0A34208D9206821188B4201BF19685B68B0
S315080139B009182160EDE71A465B680BB1A342FAD9EB
S315080139C011685018A0420BD120680144501883424F
S315080139D01160E0D118685B68536008441060DAE743
S315080139E002D90C232B60D6E7206821188B4204BF25
S315080139F019685B68636004BF091821605460CAE7E7
S31508013A0038BD00BF8C15002070B50F4E0C463168C5
S31508013A10054611B900F042FF30602146284600F0FC
S31508013A203DFF431C03D14FF0FF34204670BDC41C33
S31508013A3024F00304A042F8D0211A284600F02EFFEC
S31508013A400130F2D1EFE700BF881500202DE9F843D0
S31508013A50CD1C25F0030508350C2D38BF0C25002D86
S31508013A60064601DBA94204D90C2333600020BDE8D0
S31508013A70F883DFF8D48000F069F8D8F800301C46DE
S31508013A8044BB29463046FFF7BFFF431C044658D1BD
S31508013A90D8F800402746002F43D1002C4BD0236885
S31508013AA03946304604EB030900F0F8FE814542D158
S31508013AB021686D1A29463046FFF7A6FF01303AD02C
S31508013AC023682B442360D8F800305A6862BBC8F8CB
S31508013AD000700FE02268521B20D40B2A17D96119EE
S31508013AE0A342256018BF5960636808BFC8F800106B
S31508013AF062514B60304600F02FF804F10B00231D8C
S31508013B0020F00700C21A1CBF1B1AA350AFE7626850
S31508013B10A3420CBFC8F800205A60EBE72346646845
S31508013B20AEE73C467F68B6E71A465B68A342FBD117
S31508013B3000235360DEE70C233360304600F00CF8AF
S31508013B4094E70560D6E700BF8C1500200148FFF70A
S31508013B50F9BE00BF841500200148FFF7F4BE00BF77
S31508013B60841500202DE9F0478E681F46BE4282461D
S31508013B700C469046334653D8B1F90C0010F4906FB1
S31508013B802BD065692368096905EB4505A3EB01098E
S31508013B9005EBD5757B1C6D104B44AB422A4684BF99
S31508013BA01D462A46430527D511465046FFF74EFFBF
S31508013BB0064658B321694A46FFF7CEFEA38923F480
S31508013BC0906343F08003A381266165614E44A5EBAA
S31508013BD009052660A5603E463B461F4620683A46CB
S31508013BE0414600F042FEA3689B1BA36023683B4441
S31508013BF023600020BDE8F087504600F05FFE0646C8
S31508013C000028E1D121695046FFF7B4FE0C23CAF812
S31508013C100030A38943F04003A3814FF0FF30E9E761
S31508013C203E46DBE72DE9F0471F468B891B069CB00C
S31508013C3006460D46144610D50B6973B94021FFF7A0
S31508013C4005FF2860286130B90C2333604FF0FF3037
S31508013C501CB0BDE8F08740236B610023099320233C
S31508013C608DF8293003973023654F8DF82A304FF0A8
S31508013C7001082346994613F8012B0AB1252AF9D1D9
S31508013C80B9EB040A0BD05346224629463046FFF7BC
S31508013C9069FF013000F0A480099A5244099299F803
S31508013CA00030002B00F09C8000234FF0FF32CDE955
S31508013CB0052309F10109049307938DF853301A93E3
S31508013CC04C464F4814F8011B0522FCF7A1FA049B40
S31508013CD0D0B9D80644BF20228DF85320190744BF0E
S31508013CE02B228DF8532099F800202A2A13D0079AF7
S31508013CF04C4600204FF00A0C214611F8013B303B97
S31508013D00092B49D968B913E0C01B08FA00F0184312
S31508013D100490A146D4E7039A111D12680391002A5B
S31508013D2001DB079204E0524243F00203079204932F
S31508013D3023782E2B0AD163782A2B32D1039B1A1D9D
S31508013D401B68039243EAE37302340593DFF8C090D4
S31508013D50217803224846FCF75BFA38B1049BA0EBAD
S31508013D6009004022824013430134049314F8011BCD
S31508013D7024488DF828100622FCF74AFA002835D07F
S31508013D80214818BB039B073323F007030833039322
S31508013D90099B034409936CE70CFB02320C4601208C
S31508013DA0AAE700230134059319464FF00A0C204669
S31508013DB010F8012B303A092A03D9002BC6D00591F0
S31508013DC0C4E70CFB012104460123F0E703AB00938A
S31508013DD02A460E4B04A93046AFF30080421CD7D1C0
S31508013DE0AB895B063FF532AF099831E703AB009320
S31508013DF02A46064B04A9304600F052FAEEE700BF00
S31508013E008A5101089451010800000000653B010828
S31508013E109051010838B54B1C144603D14FF0FF35B4
S31508013E20284638BD938923F020039381636B526832
S31508013E30CDB28BB1A36B934208DD23685A1E22606B
S31508013E4003F8015C636801336360E9E7214600F022
S31508013E50D2FC0028F1D0E1E72169236851B19942E2
S31508013E6008D213F8011CA94204D1013B013223608F
S31508013E706260D5E7C4E90F3204F14403636303239F
S31508013E80A363234603F8465F23600123DCE710B5E5
S31508013E900C46496B69B104F14403994201D0FFF715
S31508013EA069FD236C63600020606313B1E36B2360D3
S31508013EB010BD2369236000236360A38943F02003AF
S31508013EC0A3814FF0FF30F3E72DE9F04FADF5237DE0
S31508013ED041AC0D460021C4E9031101A96161AF494D
S31508013EE0C4F87C11DFF8C4B2AD49C4F8801107469D
S31508013EF0E846009392F80090B9F1000F00F060814E
S31508013F001BF8093013F0080302F101061BD06B6890
S31508013F10002B10DD2B681A781BF80220120701D432
S31508013F203246E7E72269013222616A680133013ABA
S31508013F306A602B60EBE7D4F8803129463846984702
S31508013F400028E7D0ECE7B9F1250F40F0848023601B
S31508013F50A36053782A2B02BF1023961C23600A22DA
S31508013F60B2461AF8011BA1F13003092B1DD98D4B55
S31508013F7003221846FCF74CF938B18A4B2268C01A55
S31508013F800123834013432360564616F8013B782BD9
S31508013F9006D8572B10D8252B5DD057D8002B76D0AD
S31508013FA00323A3610A23636089E0A36802FB031163
S31508013FB03039A1605646D3E7A3F15802202AEFD833
S31508013FC001A151F822F000BF9D400108A13F010857
S31508013FD0A13F0108F9400108A13F0108A13F0108D5
S31508013FE0A13F0108A13F0108A13F0108A13F01081E
S31508013FF0A13F01080F410108F54001085340010896
S315080140005340010853400108A13F0108AF40010888
S31508014010A13F0108A13F0108A13F0108A13F0108ED
S315080140201F410108B740010895400108A13F010851
S31508014030A13F01081B410108A13F0108F5400108FC
S31508014040A13F0108A13F01089D400108453B022BFC
S31508014050A6D8052332E06B68002B0DDD2B681A788C
S315080140604A4540F0AD8001336A682B602369013AFD
S3150801407001336A60236153E7D4F88031294638460B
S3150801408098470028EAD0E068002840F091804FF070
S31508014090FF3091E0226842F020022260226842F451
S315080140A00072226010226E2B626006D801E000239E
S315080140B06360032302E0082363600423A3616B683A
S315080140C0002B3CDD2368590605D42B681A781BF8A2
S315080140D0022012073BD4A369022B4BDC43462A462E
S315080140E02146384600F002FA012869D002287FF4F1
S315080140F017AFC8E70A22D6E7314601A800F042FB06
S31508014100236843F04003236006460123D6E7236864
S3150801411043F0400323600023D0E70223CEE720685B
S31508014120C3063FF5FDAED8F800302269191DC8F857
S3150801413000101B68C0074CBF1A801A60F0E6D4F855
S3150801414080312946384698470028BBD09BE7226923
S31508014150013222616A68013A002A6A6002DD013386
S315080141602B60B2E7D4F880312946384698470028AB
S31508014170ABD088E7042B06DC43462A462146384657
S3150801418000F00EFAB0E7084B002B3FF4C9AE4346E0
S315080141902A4621463846AFF30080A5E7153E0108B1
S315080141A08F3E010890510108000000008153010863
S315080141B0AB895B063FF56BAF0DF5237DBDE8F08F47
S315080141C0E068F9E72DE9F047164698468A680B69CB
S315080141D0DDF820909342B8BF1346336091F8432027
S315080141E007460C460AB1013333602368990642BF74
S315080141F0336802333360256815F0060506D104F1E4
S31508014200190AE36832689B1AAB4226DC94F84330F4
S315080142102268003B18BF012392062BD404F14302FE
S3150801422041463846C84701301ED02368226903F043
S315080142300603042B02BFE5683368ED1AA3680CBFB1
S3150801424025EAE57500259342C4BF9B1AED18002699
S315080142501A34B5421AD1002008E0012352464146D4
S315080142603846C847013003D14FF0FF30BDE8F08723
S315080142700135C6E7E1185A1C302081F8430022446B
S3150801428094F8451082F843100233C7E70123224602
S3150801429041463846C8470130E6D00136D9E700001D
S315080142A02DE9F0430D7E85B0782D90460C9E074684
S315080142B00C46994601F1430207D8622D0AD8002D0A
S315080142C000F0D780582D00F0BC8004F1420684F82E
S315080142D042503BE0A5F16303152BF6D801A151F82D
S315080142E023F000BF3D43010851430108CB420108B1
S315080142F0CB420108CB420108CB42010851430108D0
S31508014300CB420108CB420108CB420108CB42010846
S31508014310594401087B4301080B440108CB420108B3
S31508014320CB4201087B440108CB4201087B430108C3
S31508014330CB420108CB4201081344010833681A1D10
S315080143401B68326004F1420684F842300123A1E079
S3150801435033682068191D3160060601D51D6803E01A
S315080143604506FBD5B3F90050002D03DA2D236D421E
S3150801437084F843305B480A2311E02168336808064C
S3150801438053F8045B02D4490648BFADB23360237EB5
S3150801439054486F2B5CD10823002184F843106668C2
S315080143A0A660002E05DB21682E4321F00401216059
S315080143B050D01646B5FBF3F103FB115C10F80CC09F
S315080143C006F801CDAC4663450D46F3D9082B0BD14A
S315080143D02368DB0708D5236961689942DEBF302364
S315080143E006F8013C06F1FF36921B2261CDF80090D2
S315080143F0434603AA21463846FFF7E4FE01304ED16B
S315080144004FF0FF3005B0BDE8F083236843F0200381
S3150801441023603548782584F845502368316813F0B8
S31508014420800F51F8045B03D113F0400F18BFADB2EA
S315080144303160D90744BF43F0200323601DB110231F
S31508014440AAE72848E7E7236823F020032360F6E76D
S315080144500A23A1E71646B9E7336825686169181D75
S3150801446030602E061B6801D5196002E06806FBD587
S315080144701980002323611646B8E733681A1D32608E
S315080144801E68626800213046FBF7C2FE08B1801B30
S31508014490606063682361002384F84330A6E72369D3
S315080144A0324641463846C8470130A9D023689B079A
S315080144B013D4E068039B9842B8BF1846A2E70123C4
S315080144C0324641463846C847013099D00135E36836
S315080144D003995B1AAB42F2DCEBE7002504F11906F6
S315080144E0F5E700BF9B510108AC5101082DE9F843D6
S315080144F015468A6880460C4632B98A69002A14BF6D
S315080145004FF0FF3201228A602268DFF89090D106C7
S315080145105FBF1A68111D196016680027A06988B15E
S31508014520012807D12B681A7863699B5C53B9002F58
S3150801453032D023E0022821D12B681B7819F80330E1
S315080145401B071BD42368DA065EBF2B681B7806F89F
S31508014550013B6B68013B6B602B6801332B60A368D9
S31508014560013B0137A3604BB16B68002BD6DCD4F84D
S3150801457080312946404698470028CFD0236813F052
S31508014580100305D1E2680132E260A26902B1337013
S3150801459023693B4423610020BDE8F8838153010860
S315080145A02DE9F04F9846734B0C468246164693E81A
S315080145B0070087B003AB83E807006F4BA1696F4A11
S315080145C0032908BF1A46A36801925A1EB2F5AE7F9F
S315080145D084BF6FF4AE7503EB0509274684BF40F225
S315080145E05D13A36057F81C3B43F4506398BF4FF023
S315080145F0000923603D464FF0000B316803AB09788B
S3150801460053F82B000222FBF703FE28B3BBF1010F77
S3150801461058D162682AB92268082142F40072616099
S315080146202260226822F4A0622260A268511EA1605B
S3150801463092B13268511C3160127805F8012B726803
S31508014640013A002A726007DCD4F8802131465046C7
S315080146509047002840F083800BF1010BBBF1030F53
S31508014660CBD1616809B90A216160454B6069591A5C
S3150801467000F088F84FF0000BA3682268002B3DD0A4
S315080146803168606991F800C010F80C00002835D02F
S31508014690BCF1300F24D1100522D50BF1010BB9F16C
S315080146A0000F03D0013309F1FF39A3607368013B99
S315080146B0002B73601BDD336801333360A368013B4C
S315080146C0A360D9E7BBF1020FAFD1226802F4C0613A
S315080146D0B1F5007FC5D11021616042F48072A3E76C
S315080146E022F4106222600B7805F8013BDEE7D4F864
S315080146F080313146504698470028DFD02368DB05CC
S315080147000DD5BD4209D915F8011CD4F87C313246BC
S315080147105046984705F1FF394D46BD4227D02268D4
S3150801472012F0100212D12A706368019E394650466A
S31508014730B047D8F8003021681A1DC8F800208E063F
S315080147401B680FD51860E3680133E3602369ED1B25
S315080147505D442B442361002007B0BDE8F08F4FF07C
S31508014760000BCBE7CA074CBF18801860EBE701209E
S31508014770F2E700BF184B01080D4A0108ED4A010886
S31508014780CD51010870B50B7804465E2B0BBF4B78EB
S315080147904A1C8A1C002108BF0121013804F1FF05C2
S315080147A000F8011FA842FBD10BB9501E70BD81F05C
S315080147B00101E1541046024612F8015B2D2D05D080
S315080147C05D2D16D0002DF1D02B46F2E746785D2EE9
S315080147D0FAD0B342F8DC02301A4601329642A154A5
S315080147E0FBDCF21A013AB342A8BF00220133134493
S315080147F0E1E71046DAE72DE9F0410C46496B04F189
S31508014800440399421DD14FF48061FFF71FF918B986
S315080148104FF0FF30BDE8F0814FF48063A36394F84D
S315080148204630606380F8FF3394F8453080F8FE33EC
S3150801483094F8443080F8FD3300F2FD302060002002
S31508014840E8E7A66B77003A4600F038F805460028EF
S31508014850DED000EB0608014632464046FFF77CF8F3
S31508014860C4E90D57C4F80080E9E7884210B501EBA1
S31508014870020402D98442234607D8431EA14207D01F
S3150801488011F8012B03F8012FF8E70244824200D1FF
S3150801489010BD13F8011D02F8011DF7E738B5064DDD
S315080148A00023044608462B60FDF732FA431C02D161
S315080148B02B6803B1236038BD801500202DE9F0412E
S315080148C0074614460D4621B9BDE8F0411146FFF7E2
S315080148D0BDB82AB9FFF74EF825462846BDE8F08146
S315080148E000F006F98442064602D8B4EB500FF4D814
S315080148F021463846FFF7AAF8804608B94546ECE747
S31508014900B4422246294628BF3246FFF725F82946EA
S315080149103846FFF72FF8F1E7242B2DE9F0478646AD
S31508014920904601D8012B06D1FEF7E2FF1623036054
S315080149300020BDE8F08734480D462A4615F8014B94
S31508014940065D16F00806F8D12D2C10D12C78012613
S31508014950951C33F0100215D1302C0DD12A7802F0AE
S31508014960DF02582A08D16C78023510230AE02B2C6D
S3150801497004BF2C78951CECE7002BF6D1302C14BF1C
S315080149800A23082306F1004C0CF1FF3C0022BCFB6C
S31508014990F3F9104603FB19CAA4F13007092F0FD8FA
S315080149A03C46A3421BDD571C07D0814514D301D1D0
S315080149B0A24511DB00FB0340012215F8014BEBE789
S315080149C0A4F14107192F01D8373CEAE7A4F1610799
S315080149D0192F04D8573CE4E74FF0FF32EDE7531C93
S315080149E008D12223CEF800306046B8F1000FA0D0D6
S315080149F0691E06E006B14042B8F1000F99D0002AB7
S31508014A00F6D1C8F8001094E781530108FFF784BF6F
S31508014A102DE9F043344E86460D46284615F8014BD6
S31508014A20375D17F00807F8D12D2C10D12C780127FE
S31508014A30851C33F0100015D1302C0DD1287800F0E3
S31508014A40DF00582808D16C78023510230AE02B2C90
S31508014A5004BF2C78851CECE7002BF6D1302C14BF4B
S31508014A600A2308234FF0FF380026B8FBF3F803FBA7
S31508014A7008F96FEA09093046A4F1300CBCF1090FAF
S31508014A8010D86446A3421EDDB6F1FF3F07D0804524
S31508014A9016D301D1A14513DB00FB0340012615F806
S31508014AA0014BE9E7A4F1410CBCF1190F01D8373CD8
S31508014AB0E8E7A4F1610CBCF1190F04D8573CE1E70A
S31508014AC04FF0FF36EBE7731C06D12223CEF80030F0
S31508014AD0304632B9BDE8F08307B14042002AF9D021
S31508014AE006B1691E1160F5E781530108FFF790BF0A
S31508014AF051F8043C181F002BBCBF0B58C01870474F
S31508014B00F8B500BFF8BC08BC9E467047F8B500BFAB
S31508014B10F8BC08BC9E467047CF510108234D0108D1
S31508014B20D251010825732073656E64200025732010
S31508014B30726563762000426F6F746C6F616465728B
S31508014B40204572726F72212025730D0A0025732D77
S31508014B503E25730D0A00424C2044415441204552DA
S31508014B60524F52004150502044415441204552521F
S31508014B704F5200466C6173682070726F6772616D7F
S31508014B80206661696C65640057534D20424C204F7D
S31508014B904B0057534D20424C2000253135732025B3
S31508014BA07500424C20444C204552524F52004E65E6
S31508014BB07720626F6F746C6F6164657220746F6FB2
S31508014BC0206C61726765004661696C656420746F63
S31508014BD020657261736520736563746F7220360090
S31508014BE0424C20444C2052454144590057534D20CC
S31508014BF0415050204F4B0057534D204150502000F3
S31508014C0041505020444C204552524F52004E657730
S31508014C10206170706C69636174696F6E20746F6F5F
S31508014C20206C617267650041505020444C20524502
S31508014C3041445900257320626567696E0D0A00258E
S31508014C4073205374657068616E6F5F506F77657214
S31508014C504F66660D0A002573205374657068616E88
S31508014C606F5F506F7765724F6E0D0A00257320537B
S31508014C7074657068616E6F5F52657365740D0A00BD
S31508014C80257320776169745F666F725F7265616407
S31508014C90790D0A002573202D3E20272573270D0A35
S31508014CA00072656164790041542B524553544F5241
S31508014CB045206661696C65640041542B554152541F
S31508014CC05F4355523D3131353230302C382C312C39
S31508014CD0302C310041542B554152545F43555220D3
S31508014CE06661696C65640041542B424C45494E49DD
S31508014CF0543D320041542B424C45494E49543D32AC
S31508014D00206661696C65640041542B424C454144F7
S31508014D1044523F0030303A30303A30303A30303A47
S31508014D2030303A3030002B424C45414444523A0027
S31508014D3041542B424C4547415454535352564352BE
S31508014D40450041542B424C454741545453535256FE
S31508014D50435245206661696C65640041542B424C97
S31508014D6045474154545353525653544152540041A2
S31508014D70542B424C4547415454535352565354416C
S31508014D805254206661696C65640041542B424C4556
S31508014D904E414D453D225374657068616E6F2D49CC
S31508014DA0220041542B424C454E414D453D225374F8
S31508014DB0657068616E6F2D4922206661696C65644C
S31508014DC00041542B424C45414456444154413D22ED
S31508014DD03032303130363042303935333734363582
S31508014DE0373036383631364536463244343922007C
S31508014DF041542B424C45414456444154413D22308D
S31508014E00323031303630423039353337343635374A
S31508014E1030363836313645364632443439222066FC
S31508014E2061696C65640041542B424C4541445653B3
S31508014E30544152540041542B424C45414456535413
S31508014E40415254206661696C6564002573204C6F74
S31508014E506F6B696E6720666F72202B424C45434F14
S31508014E604E4E0D0A002B424C45434F4E4E004154BF
S31508014E702B424C455350504346473D312C312C3239
S31508014E802C312C312C300041542B424C4553505077
S31508014E90434647206661696C65640041542B424C60
S31508014EA0455350500041542B424C455350502066AF
S31508014EB061696C6564005374657068616E6F205230
S31508014EC0656164792074696D656F75740041542B49
S31508014ED0524553544F52450025732073656E64201D
S31508014EE057534D2049442025750D0A0057534D2027
S31508014EF049442025750025732073656E6420575330
S31508014F004D204D41432025730D0A0057534D204D21
S31508014F1041432025730025732073656E642057531A
S31508014F204D20424C2025730D0A0057534D20424C03
S31508014F302025730025732073656E642057534D2011
S31508014F404150502025730D0A0057534D20415050AA
S31508014F5020257300424C2044415441204F4B0041C7
S31508014F6050502044415441204F4B00424C2044416B
S31508014F705441200041505020444154412000257598
S31508014F8020257500556E65787065637465642070B3
S31508014F9061636B6574206E756D6265720041542B91
S31508014FA0424C45434F4E4E3A302C25730041542B03
S31508014FB0424C45434F4E4E206661696C6564005705
S31508014FC0534D204944204F4B00554E4B4E4F574E9B
S31508014FD00057534D2049442000526563656976653B
S31508014FE06420272573270D0A00302E302E30004302
S31508014FF0616C6C696E6720426F6F746C6F61646572
S31508015000725F52756E0D0A0043616C6C696E67209A
S31508015010426F6F746C6F616465725F446F776E6C13
S315080150206F61645F50726F636573730D0A002E2E8C
S315080150302F447269766572732F53544D3332463451
S3150801504078785F48414C5F4472697665722F53726E
S31508015050632F73746D3332663478785F68616C5F79
S31508015060636F727465782E63002E2E2F44726976EB
S315080150706572732F53544D3332463478785F4841FD
S315080150804C5F4472697665722F5372632F73746D20
S315080150903332663478785F68616C5F666C61736811
S315080150A02E63002E2E2F447269766572732F535420
S315080150B04D3332463478785F48414C5F447269769D
S315080150C065722F5372632F73746D33326634787831
S315080150D05F68616C5F666C6173685F65782E6300F3
S315080150E02E2E2F447269766572732F53544D3332BF
S315080150F0463478785F48414C5F4472697665722F09
S315080151005372632F73746D3332663478785F6861CE
S315080151106C5F6770696F2E63002E2E2F4472697655
S315080151206572732F53544D3332463478785F48414C
S315080151304C5F4472697665722F5372632F73746D6F
S315080151403332663478785F68616C5F7263632E63A5
S31508015150002E2E2F447269766572732F53544D3380
S3150801516032463478785F48414C5F44726976657295
S315080151702F5372632F73746D3332663478785F6890
S31508015180616C5F756172742E6300232D302B2000CC
S31508015190686C4C00656667454647003031323334E2
S315080151A03536373839414243444546003031323382
S315080151B034353637383961626364656600412D4690
S315080151C0612D66383930313233343536375D002B47
S315080151D02D0078580041545F53656E64436F6D6DB9
S315080151E0616E6400DEADBEEFCAFEBABE426F6F7471
S315080151F06C6F616465725F446F776E6C6F61645F33
S3150801520050726F63657373006479696E675F67616E
S31508015210737000776169745F666F725F7265616446
S315080152207900426F6F746C6F616465725F436F6E6C
S315080152306E656374546F536572766572000000007B
S3150801524000FFFFFFFFFFFFFFFF00000000FFFFFF5A
S31508015250FFFFFFFFFF2152411035014542DEADBE7A
S31508015260EFCAFEBABE000000982F8A4291443771F0
S31508015270CFFBC0B5A5DBB5E95BC25639F111F159CA
S31508015280A4823F92D55E1CAB98AA07D8015B83120C
S31508015290BE853124C37D0C55745DBE72FEB1DE80B8
S315080152A0A706DC9B74F19BC1C1699BE48647BEEFE7
S315080152B0C69DC10FCCA10C246F2CE92DAA84744A72
S315080152C0DCA9B05CDA88F97652513E986DC631A8E8
S315080152D0C82703B0C77F59BFF30BE0C64791A7D5C7
S315080152E05163CA0667292914850AB72738211B2E4F
S315080152F0FC6D2C4D130D385354730A65BB0A6A7637
S315080153002EC9C281852C7292A1E8BFA24B661AA842
S31508015310708B4BC2A3516CC719E892D1240699D652
S3150801532085350EF470A06A1016C1A419086C371ECB
S315080153304C774827B5BCB034B30C1C394AAAD84EA9
S315080153404FCA9C5BF36F2E68EE828F746F63A578E4
S315080153501478C8840802C78CFAFFBE90EB6C50A477
S31508015360F7A3F9BEF27871C6000000000102030432
S3150801537000000000000000000102030406070809F6
S315080153800020202020202020202028282828282006
S3150801539020202020202020202020202020202020FE
S315080153A02088101010101010101010101010101066
S315080153B01004040404040404040404101010101056
S315080153C01010414141414141010101010101010120
S315080153D00101010101010101010101011010101072
S315080153E010104242424242420202020202020202F2
S315080153F00202020202020202020202021010101046
S31508015400200000000000000000000000000000006D
S31508015410000000000000000000000000000000007D
S31508015420000000000000000000000000000000006D
S31508015430000000000000000000000000000000005D
S31508015440000000000000000000000000000000004D
S31508015450000000000000000000000000000000003D
S31508015460000000000000000000000000000000002D
S31508015470000000000000000000000000000000001D
S31508015480000000005CADFF7F01000000C5010108B6
S31508015490A101010830303A30303A30303A30303AEA
S315080154A030303A30300000000024F40001000000DA
S315080154B010000000000000000000000000000000CD
S315080154C000000000010000000000000000000000CC
S315080154D000000000440000200000000048140020DD
S315080154E0B01400201815002000000000000000007C
